:100000000C94FE030C94DD0E0C940E0F0C943F0F19
:100010000C94700F0C94A10F0C94D20F0C9403103D
:100020000C9434100C942A040C942A040C942A0482
:100030000C942A040C942A040C942A040C942A0488
:100040000C942A040C942A040C942A040C942A0478
:100050000C942A040C942A040C942A040C949910ED
:100060000C942A040C94C1120C94ED130C942A04E1
:100070000C942A040C942A040C942A040C942A0448
:100080000C942A040C942A040C942A040C942A0438
:100090000C94FA120C942C140C942A040C942A0438
:1000A0000C942A040C942A040C942A040C942A0418
:1000B0000C942A040C942A040C942A040C942A0408
:1000C0000C942A040C942A040C942A040C943313E0
:1000D0000C946B140C942A040C946C130C94AA14B6
:1000E0000C942A0400002100240027002A002D007F
:1000F0003000330001010000040107010A01000083
:100100002200250028002B002E00310034000201BF
:100110000000050108010B0100002000230026005B
:1001200029002C002F00320000010000030106010D
:10013000090105050505070508080808020202026D
:100140000A0A080804040404010101010101010173
:100150000303030303030303040707070C0C0C0C3E
:100160000C0C0C0C02020202060606060606060627
:100170000B0B0B0B0B0B0B0B0102102020080810B4
:100180002040102040800201020108040201010207
:1001900004081020408080402010080402018004E0
:1001A000020180402010080402010804020101023B
:1001B0000408102040800102040810204080000044
:1001C000090A02080B0C0D070603040100000000D9
:1001D000000000000000000000000000000000001F
:1001E0000000000000000000000011100F000000DF
:1001F00000000000000000000000000000000000FF
:100200000000000000000000003E5B4F5B3E3E6BC4
:100210004F6B3E1C3E7C3E1C183C7E3C181C577DA0
:10022000571C1C5E7F5E1C00183C1800FFE7C3E7EC
:10023000FF0018241800FFE7DBE7FF30483A060EFE
:100240002629792926407F050507407F05253F5A45
:100250003CE73C5A7F3E1C1C08081C1C3E7F1422B5
:100260007F22145F5F005F5F06097F017F00668960
:10027000956A606060606094A2FFA29408047E04A6
:100280000810207E201008082A1C08081C2A0808CC
:100290001E101010100C1E0C1E0C30383E3830068C
:1002A0000E3E0E06000000000000005F0000000788
:1002B000000700147F147F14242A7F2A12231308B6
:1002C000646236495620500008070300001C224192
:1002D000000041221C002A1C7F1C2A08083E080836
:1002E00000807030000808080808000060600020E6
:1002F000100804023E5149453E00427F40007249C9
:100300004949462141494D331814127F102745456C
:1003100045393C4A49493141211109073649494982
:1003200036464949291E00001400000040340000F0
:100330000008142241141414141400412214080259
:10034000015909063E415D594E7C1211127C7F49CC
:100350004949363E414141227F4141413E7F494921
:1003600049417F090909013E414151737F0808084D
:100370007F00417F41002040413F017F081422411E
:100380007F404040407F021C027F7F0408107F3E78
:100390004141413E7F090909063E4151215E7F09E5
:1003A000192946264949493203017F01033F40404C
:1003B000403F1F2040201F3F4038403F6314081437
:1003C0006303047804036159494D43007F4141416F
:1003D0000204081020004141417F04020102044050
:1003E00040404040000307080020545478407F28D4
:1003F0004444383844444428384444287F385454CA
:10040000541800087E090218A4A49C787F080404EC
:100410007800447D40002040403D007F102844008B
:1004200000417F40007C047804787C08040478381C
:1004300044444438FC1824241818242418FC7C084C
:10044000040408485454542404043F44243C4040C9
:10045000207C1C2040201C3C4030403C442810287C
:10046000444C9090907C4464544C440008364100C5
:100470000000770000004136080002010204023C3F
:100480002623263C1EA1A161123A4040207A38540E
:100490005455592155557941215454784121555489
:1004A000784020545579400C1E52721239555555DA
:1004B00059395454545939555454580000457C41C5
:1004C0000002457D420001457C40F0292429F0F0DE
:1004D000282528F07C545545002054547C547C0A2F
:1004E000097F4932494949323248484832324A48FC
:1004F00048303A4141217A3A42402078009DA0A0FC
:100500007D39444444393D4040403D3C24FF24244F
:10051000487E4943662B2FFC2F2BFF0929F620C06C
:10052000887E090320545479410000447D413048BD
:10053000484A32384040227A007A0A0A727D0D1900
:10054000317D2629292F28262929292630484D4062
:1005500020380808080808080808382F10C8ACBA5E
:100560002F102834FA00007B000008142A142222DD
:10057000142A1408AA005500AAAA55AA55AA0000D0
:1005800000FF00101010FF00141414FF001010FFE3
:1005900000FF1010F010F0141414FC001414F700F5
:1005A000FF0000FF00FF1414F404FC141417101FC4
:1005B00010101F101F1414141F00101010F0000052
:1005C00000001F101010101F10101010F01000006D
:1005D00000FF101010101010101010FF100000007D
:1005E000FF140000FF00FF00001F10170000FC04B4
:1005F000F414141710171414F404F40000FF00F797
:1006000014141414141414F700F7141414171410F9
:10061000101F101F141414F4141010F010F0000028
:100620001F101F0000001F14000000FC140000F049
:1006300010F01010FF10FF141414FF141010101FEE
:1006400000000000F010FFFFFFFFFFF0F0F0F0F0FF
:10065000FFFFFF0000000000FFFF0F0F0F0F0F381C
:10066000444438447C2A2A3E147E02020606027E56
:10067000027E0263554941633844443C04407E2075
:100680001E2006027E020299A5E7A5991C2A492A86
:100690001C4C7201724C304A4D4D30304878483015
:1006A000BC625A463D3E494949007E0101017E2A0D
:1006B0002A2A2A2A44445F444440514A4440404440
:1006C0004A51400000FF0103E080FF000008086B72
:1006D0006B083612362436060F090F06000018186C
:1006E0000000001010003040FF0101001F01011E3A
:1006F00000191D1712003C3C3C3C00000000000F9C
:100700000180961180FFB103012C2DB203012C2D25
:10071000B306012C2D012C2DB40107C003A20284C5
:10072000C101C5C2020A00C3028A2AC4028AEEC5F8
:10073000010E20003601C83A0105022A0400020019
:10074000812B04000100A0022A040000007F2B047A
:100750000000009F04E010021C07123732292D29E7
:10076000252B3900010310E110031D07062E2C294B
:100770002D2E2E373F0000021013800A29806412AC
:100780000180321180FF3A81050AB1830006030A15
:10079000360108B6021502B40100C08202700AC117
:1007A0000105C2020102C5823C380AFC021115E0B3
:1007B0001009160920211B131917151E2B040502F9
:1007C0000EE1900B14081E221D181E1B1A242B0666
:1007D00006020F0A2A04000200812B040002008195
:1007E00013800A2980FF7C3C3E5E2B3D3F2F5B5DE2
:1007F0003B2C2A225C002C041416572011241FBE07
:10080000CFEFD1E2DEBFCDBF00E00CBF15E0A0E02E
:10081000B2E0ECEEF3E700E00BBF02C007900D92F0
:10082000A63CB107D9F71BE0A6ECB5E001C01D92CC
:10083000AF32B107E1F717E0CCEFD7E004C0229761
:10084000FE010E94F039C63FD107C9F70E94321756
:100850000C9464360C94000087EC95E066E047E069
:1008600028E00E9436201092FC051092FD0510929F
:10087000FE051092FF0510920006109201061092DC
:1008800002061092030610920406109205061092BA
:10089000060610920706109208061092090610929A
:1008A0000A0610920B060E94E11060930F067093E7
:1008B0001006809311069093120608959091C60534
:1008C00080916305981711F40E943D0A0895909154
:1008D000C60580916305981711F40E94310A0895A6
:1008E000EF92FF920F931F93CF93DF93EC017B0165
:1008F00080E00E9465102091BE043091BF048C01FD
:10090000021B130B81E00E9465102091C0043091FE
:10091000C104821B930B9C01C8010496099710F433
:1009200000E010E0C9010496099710F420E030E0DF
:10093000C80160E870E00E949E3979836883C9012C
:1009400060E870E00E949E39F701718360830E9425
:10095000E1107B018C0180910F0690911006A0910F
:100960001106B0911206E816F9060A071B0740F4B3
:10097000E0920F06F09210060093110610931206F3
:100980008091C2049091C304A091C404B091C504A5
:1009900020910F06309110064091110650911206D9
:1009A000820F931FA41FB51F8E159F05A007B107C7
:1009B00010F080E019C0E0920F06F092100600934C
:1009C00011061093120684E00E94901220E0892BF9
:1009D00009F421E080910E06882321F080E0222393
:1009E00009F481E020930E06DF91CF911F910F91C2
:1009F000FF90EF90089584E060E00E94AA1184E0E7
:100A000061E00E945D1281E00E9465109093BF0436
:100A10008093BE0480E00E9465109093C10480938F
:100A2000C004089589ED98E065E00E94BB22882308
:100A300029F50F920F9280E092E0EDB7FEB7928316
:100A400081830E94BA0988E192E0EDB7FEB79283F4
:100A500081830E94BA098CE292E0EDB7FEB79283DF
:100A600081830E94BA0984E492E0EDB7FEB79283D5
:100A700081830E94BA090F900F90FFCF0F920F92BF
:100A80008DE792E0EDB7FEB7928381830E94BA09A9
:100A90000F900F9008950F931F9307EC15E0C80176
:100AA00061E00E940820C80160E00E94A91EC80100
:100AB00060E070E040E050E00E941C1CC80160E073
:100AC00070E00E94281CC80161E00E94221CC8013D
:100AD0006FE170E00E94161E1F910F910895EF9232
:100AE000FF920F931F93CF93DF93EC0180910C063D
:100AF00090910D068C179D0789F1D0930D06C09338
:100B00000C0687EC95E060E070E044E950E020E8F6
:100B100030E00CE010E0E0EEEE2EE7E0FE2E0E946A
:100B2000311E87EC95E061E00E94221C87EC95E085
:100B30006FE178EF0E94281C87EC95E060E070E0A0
:100B400046E950E00E941C1C87EC95E061E00E94A1
:100B5000221C87EC95E0BE010E94BB17DF91CF916C
:100B60001F910F91FF90EF9008958CE892E00E9402
:100B70006F0508958F929F92AF92BF92CF92DF92AE
:100B8000EF92FF920F931F93DF93CF93CDB7DEB712
:100B900028970FB6F894DEBF0FBECDBF8DB79EB7B6
:100BA00040912B0B50912C0B4115510511F09A01DE
:100BB00004C02091B8043091B9046091BC047091D4
:100BC000BD04821B930B8617970730F52DB73EB7F0
:100BD0004115510521F44091B8045091B90400D059
:100BE00000D0EDB7FEB731968DE892E0ADB7BEB755
:100BF00012969C938E931197241B350B338322837B
:100C0000758364830E94BA09EDB7FEB736960FB6B6
:100C1000F894FEBF0FBEEDBF8091F305882311F459
:100C2000992404C01092F305992493941A8219828E
:100C30001C821B82F894909163058091C6058824DC
:100C4000981711F0882483947894882009F441C07F
:100C500030911306809163053817E9F02091630500
:100C600000D000D0EDB7FEB731968EE992E0ADB777
:100C7000BEB712969C938E9311973283138224836E
:100C800015820E94BA09EDB7FEB736960FB6F894F2
:100C9000FEBF0FBEEDBF0E94120C4091690550913E
:100CA0006A055695479580911806909119062091EE
:100CB0006B0530916C053695279560911A067091F9
:100CC0001B06621B730B841B950B0E94650A9924FB
:100CD0009394CE010196BE016D5F7F4F0E94700418
:100CE000D82E89819A81892B29F48B819C81892B2B
:100CF00009F457C0E0901406F0901506009116060E
:100D000010911706CE010596BE01695F7F4F0E94C4
:100D1000490A882309F445C08D819E818A30910556
:100D200048F4E0901406F090150680EE9FEFE80E70
:100D3000F91E0DC08637910510F420E009C0E0903F
:100D40001406F0901506A0E2B0E0EA0EFB1E21E0CA
:100D50008F8198858A30910538F40091160610919C
:100D60001706005210400CC08637910538F00091EC
:100D7000160610911706005E1F4F02C0222339F09D
:100D8000C701B8010E94650A992493940AC00E9481
:100D9000980A6B817C8189819A810E941A0D0E9438
:100DA000040BDD2009F478C1EDB7FEB73A970FB612
:100DB000F894FEBF0FBEEDBF319685EB92E0ADB764
:100DC000BEB712969C938E931197809120069091B6
:100DD0002106A0912206B091230682839383A483E7
:100DE000B58380911C0690911D06A0911E06B091BE
:100DF0001F0686839783A087B1870E94BA09A090B7
:100E00001C06B0901D06C0901E06D0901F06E090F4
:100E10002006F09021060091220610912306EDB7DE
:100E2000FEB73A960FB6F894FEBF0FBEEDBF8091A5
:100E3000FA059091FB05892BE1F58DB79EB70A97CE
:100E40000FB6F8949EBF0FBE8DBFEDB7FEB73196BB
:100E500084ED92E0ADB7BEB712969C938E93119736
:100E6000A282B382C482D582E682F782008711878C
:100E70000E94BA09E0920006F09201060093020671
:100E800010930306A092FC05B092FD05C092FE05EA
:100E9000D092FF0581E090E09093FB058093FA05E6
:100EA000EDB7FEB73A960FB6F894FEBF0FBEEDBF92
:100EB000F3C08DB79EB70A970FB6F8949EBF0FBECA
:100EC0008DBFEDB7FEB7319680EF92E0ADB7BEB7FC
:100ED00012969C938E931197A282B382C482D5827C
:100EE000E682F782008711870E94BA09E09208061D
:100EF000F092090600930A0610930B06A0920406CE
:100F0000B0920506C0920606D09207061092FB0525
:100F10001092FA05EDB7FEB738960FB6F894FEBFFB
:100F20000FBEEDBF8AE093E0928381830E94BA09ED
:100F30000F900F902091FC053091FD054091FE052A
:100F40005091FF05609100067091010680910206A4
:100F500090910306A0900406B0900506C090060686
:100F6000D0900706E0900806F090090600910A0666
:100F700010910B060E94C80D8C0100D00F928BE1DE
:100F800093E0ADB7BEB712969C938E9311971496CB
:100F90001C930E9313970E94BA090F900F900F9015
:100FA0000F90101611060CF077C08091F405909107
:100FB000F5058017910728F49093F7058093F605BF
:100FC00004C01093F7050093F6054091F405509185
:100FD000F5058091F8059091F905B8010E942A0D58
:100FE00097FD5CC00F920F928FE293E0EDB7FEB7D2
:100FF000928381830E94BA0900E010E0EE24FF246E
:101000000F900F90F5E4CF2EF3E0DF2E3CC020913F
:10101000F8053091F9052E0D3F1D8DB79EB70C9741
:101020000FB6F8949EBF0FBE8DBFEDB7FEB73196D9
:10103000ADB7BEB71296DC92CE921197138302839E
:10104000D90114964D915D916D917C9117974483D0
:101050005583668377832D913D914D915C912087D7
:101060003187428753870E94BA090F5F1F4FE8E01C
:10107000F0E0EE0EFF1E8DB79EB70C960FB6F894FB
:101080009EBF0FBE8DBF8091F6059091F7050817A2
:10109000190708F4BCCF02C09920F1F00E94D50ACC
:1010A0000E94040B0E94B5058820B1F0F89480914D
:1010B0001306809363058093C60578940F920F9270
:1010C00081E593E0ADB7BEB712969C938E931197CE
:1010D0000E94BA090F900F908091FA059091FB053C
:1010E000892B19F481E693E002C087E693E00E9421
:1010F0006F0528960FB6F894DEBF0FBECDBFCF9117
:10110000DF911F910F91FF90EF90DF90CF90BF90F4
:10111000AF909F908F900895CF92DF92EF92FF92C1
:101120000F931F93CF93DF938DE598E040E855E24E
:1011300060E070E00E94E9148DE598E06BE673E0F2
:101140000E94BB178DE598E00E94C9150E944B05CF
:101150000E9412050E94FB040E940C0AC090130614
:10116000CC2DD0E074E0CC0FDD1F7A95E1F763E081
:10117000C62E65E0D62ECC0EDD1EFE01E95FFA4FCD
:10118000D6011C966D917D918D919C911F97208128
:10119000318142815381620F731F841F951F22E0AA
:1011A00030E040E050E00E94D33979018A01C55F08
:1011B000DA4F688179818A819B81F60120813181B2
:1011C00042815381620F731F841F951F22E030E01C
:1011D00040E050E00E94D339C801B7010E94B70B2C
:1011E0008091690590916A059695879540911406BE
:1011F0005091150660916B0570916C057695679519
:101200002091160630911706620F731F840F951FE9
:101210000E94CA0C81E08093F30582E060E00E94A6
:10122000AA1182E061E00E945D1283E060E00E940A
:10123000AA1183E061E00E945D1281E067E674E03C
:1012400042E050E00E94610E80E06EE574E042E012
:1012500050E00E94610E68EE73E080E090E00E9432
:10126000EF1084E690E09093F5058093F4058DB738
:101270009EB720912B0B30912C0B2115310511F0CD
:10128000A90104C04091B8045091B9046091BC0414
:101290007091BD04841B950B861B970B8052934065
:1012A000B0F48DB79EB72115310521F42091B80413
:1012B0003091B904821B930B861B970B03E0969524
:1012C00087950A95E1F79093F5058093F405809151
:1012D000F4059091F50513E0880F991F1A95E1F731
:1012E0000E942F358093F8059093F90500D00F9256
:1012F00087E793E0ADB7BEB712969C938E93119794
:101300008091F4059091F50514969C938E93139714
:101310000E94BA091092F7051092F6054DB75EB714
:1013200020912B0B30912C0B0F900F900F900F9062
:101330002115310521F42091B8043091B90400D071
:101340000F9288E893E0EDB7FEB792838183421B4A
:10135000530B548343830E94BA090F900F900F9050
:101360000F90DF91CF911F910F91FF90EF90DF9041
:10137000CF900895CF92DF92EF92FF920F931F9339
:10138000DF93CF93CDB7DEB7EDB6FEB6CEB6809184
:10139000C604882359F18DB79EB7805091400FB68F
:1013A000F8949EBF0FBE8DBF0DB71EB70F5F1F4FC6
:1013B000FE013E96C80160E071E04C855D859F01AD
:1013C0000E948E368DE598E064E973E00E94B817BC
:1013D0008DE598E0B8010E94BB172E2D3C2DC90168
:1013E0000FB6F8949EBF0FBE8DBF08C08DB79EB7D5
:1013F0009C010FB6F8943EBF0FBE2DBF0FB6F894F8
:10140000FEBE0FBEEDBECF91DF911F910F91FF90F9
:10141000EF90DF90CF90089510921C0610921D0659
:1014200010921E0610921F0610922006109221069E
:101430001092220610922306109219061092180696
:1014400010921B0610921A0610921506109214069E
:10145000109217061092160680916305809313066A
:10146000089580916305853028F4809163058F5F2E
:1014700080936305809163050895809163058823B7
:1014800029F0809163058150809363058091630505
:101490000895FC01DB0180911806909119062091B6
:1014A000140630911506821B930B918380838091E3
:1014B0001A0690911B062091160630911706821B82
:1014C000930B8D939C9381E0089597FF03C0E0E018
:1014D000F0E010C0E0911306F0E0EE0FFF1FE953BB
:1014E000FB4F0190F081E02DE058F0408E179F07F0
:1014F00008F4FC01F0931506E093140677FF03C08F
:1015000060E070E010C0E0911306F0E0EE0FFF1F06
:10151000ED52FB4F0190F081E02DE05AF040E617CC
:10152000F70708F4BF017093170660931606089535
:10153000AF92BF92CF92DF92EF92FF920F931F93E1
:1015400040911806509119064250504020911A06B9
:1015500030911B06225030408091130666E0869F32
:10156000C001112460911406709115068A01061BB2
:10157000170B60911606709117067901E61AF70AA3
:1015800081529B4F67EC75E0F5E0CF2ED12CE5E062
:10159000AE2EB12C0E949E321F910F91FF90EF90C2
:1015A000DF90CF90BF90AF900895AF92BF92CF924F
:1015B000DF92EF92FF920F931F938091130626E024
:1015C000829FC0011124409114065091150620916C
:1015D00016063091170681529B4F67EC75E000E0CC
:1015E00010E0EE24FF24B0E8CB2ED12CA0EAAA2EE6
:1015F000B12C0E949E321F910F91FF90EF90DF90CF
:10160000CF90BF90AF9008950F931F9360911806ED
:10161000709119068091140690911506681B790B3C
:1016200040911A0650911B0680911606909117065C
:10163000481B590B87EC95E022E030E000E018EF02
:101640000E9419191F910F910895AF92BF92CF92E6
:10165000DF92EF92FF920F931F935A016B01A82F15
:10166000BB27A7FDB09500D00F9263E075E0FD01A8
:1016700084E0EE0FFF1F8A95E1F7E60FF71F208148
:10168000318142815381AA0FBB1FCD01019613E026
:10169000880F991F1A95E1F7680F791FFB01E08009
:1016A000F18002811381AD52BB4F8D919C91A0E0DE
:1016B000B0E0EDB7FEB781839283A383B483C60104
:1016C000B501AA24BB2465010E94CE170F900F908C
:1016D0000F900F901F910F91FF90EF90DF90CF90A0
:1016E000BF90AF900895AF92BF92CF92DF92EF92EA
:1016F000FF920F931F935A016B01A82FBB27A7FDE1
:10170000B09500D00F92FD0104E0EE0FFF1F0A9587
:10171000E1F783E095E0E80FF91F248135814681E8
:101720005781E484F58406851785AA0FBB1FA9534A
:10173000BB4F8D919C91A0E0B0E0EDB7FEB78183E7
:101740009283A383B483C601B501AA24BB24650197
:101750000E94CE170F900F900F900F901F910F9136
:10176000FF90EF90DF90CF90BF90AF900895AF9231
:10177000BF92CF92DF92EF92FF920F931F937B0164
:101780008C0159016A0180911306B801A7010E94DA
:10179000730B709315066093140680911306B601BF
:1017A000A5010E94250B209114063091150637FFE4
:1017B00003C0E0E0F0E010C0E0911306F0E0EE0FAF
:1017C000FF1FE953FB4F0190F081E02DE058F040FE
:1017D0002E173F0708F4F901F0931506E09314065D
:1017E00077FF03C060E070E010C0E0911306F0E006
:1017F000EE0FFF1FED52FB4F0190F081E02DE05AFC
:10180000F040E617F70708F4BF01709317066093DE
:1018100016061F910F91FF90EF90DF90CF90BF9031
:10182000AF900895809163058093130640911C0644
:1018300050911D0660911E0670911F060E94730B49
:101840007093190660931806409120065091210666
:101850006091220670912306809113060E94250B49
:1018600070931B0660931A06809113060895AF9239
:10187000BF92CF92DF92EF92FF920F931F93A82F08
:10188000BB27A7FDB09500D00F92CD01880F991FFF
:10189000FC01ED52FB4FE080F18000E010E0E3E05E
:1018A000F5E034E0AA0FBB1F3A95E1F7AE0FBF1F7A
:1018B000AD90BD90CD90DC90019623E0880F991FEC
:1018C0002A95E1F7E80FF91F80819181A281B38108
:1018D000EDB7FEB781839283A383B483CB01BA01B2
:1018E00020E030E040E050E00E94CE170F900F90D3
:1018F0000F900F901F910F91FF90EF90DF90CF907E
:10190000BF90AF900895AF92BF92CF92DF92EF92C7
:10191000FF920F931F93992787FD909500D00F9208
:10192000FC01EE0FFF1FE953FB4FE080F18000E068
:1019300010E0B4E0880F991FBA95E1F7E3E0F5E015
:10194000DF01A80FB91F1496AD90BD90CD90DC902B
:101950001797E80FF91F84859585A685B785EDB79C
:10196000FEB781839283A383B483CB01BA0120E0C5
:1019700030E040E050E00E94CE170F900F900F90A3
:101980000F901F910F91FF90EF90DF90CF90BF903D
:10199000AF90089597FF03C080E090E00EC0E09103
:1019A0001306F0E0EE0FFF1FE953FB4F0190F081AB
:1019B000E02DE817F90708F4CF01909319068093FA
:1019C000180677FF03C060E070E00EC0E0911306D8
:1019D000F0E0EE0FFF1FED52FB4F0190F081E02D84
:1019E000E617F70708F4BF0170931B0660931A0609
:1019F000AC0160E070E0809113060E94830C60935C
:101A00001C0670931D0680931E0690931F0640913E
:101A10001A0650911B0660E070E0809113060E9448
:101A2000370C6093200670932106809322069093D2
:101A300023060895409118065091190620911A0620
:101A400030911B06260F371F840F951FB9010E9486
:101A5000CA0C08958F929F92AF92BF92CF92DF925D
:101A6000EF92FF920F931F93CF93DF93182F092FBD
:101A70006B015A0100D000D0EDB7FEB7319683ED6F
:101A800093E0ADB7BEB712969C938E931197738374
:101A90006283558344830E94BA098DB79EB7069628
:101AA0000FB6F8949EBF0FBE8DBF1C141D0414F416
:101AB000B7FE1EC000D000D0EDB7FEB731968EEF56
:101AC00093E0ADB7BEB712969C938E931197D382D5
:101AD000C282B582A4820E94BA092FEF3FEF8DB770
:101AE0009EB706960FB6F8949EBF0FBE8DBF42C03C
:101AF000812F902F9C01E901EE24FF24870186E1CC
:101B0000882E84E0982EADB7BEB71A970FB6F8941A
:101B1000BEBF0FBEADBFEDB7FEB7319612969C9219
:101B20008E921197E282F38204831583E682F78214
:101B3000008711870E94BA098DB79EB70A960FB623
:101B4000F8949EBF0FBE8DBFEA14FB0444F4EC82F0
:101B5000FD820E831F83E882F9820A831B83089427
:101B6000E11CF11C011D111D2896EC14FD045CF212
:101B700020E030E0C901DF91CF911F910F91FF90DC
:101B8000EF90DF90CF90BF90AF909F908F9008958F
:101B90004F925F926F927F928F929F92AF92BF927D
:101BA000CF92DF92EF92FF920F931F93DF93CF9329
:101BB000CDB7DEB760970FB6F894DEBF0FBECDBFCE
:101BC00029833A834B835C836D837E838F839887DD
:101BD000A986BA86CB86DC86ED86FE860F87188BB3
:101BE0004DB65EB62D813E814F815885E980FA80E1
:101BF0000B811C81AD84BE84CF84D88869847A84AB
:101C00008B849C848DB79EB780970FB6F8949EBF47
:101C10000FBE8DBFADB7BEB752970FB6F894BEBF1B
:101C20000FBEADBFEDB7FEB731968EE494E01296CD
:101C30009C938E9311972283338344835583E6824A
:101C4000F78200871187A286B386C486D58666860A
:101C50007786808A918A0E94BA09EDB7FEB73E96D0
:101C60000FB6F894FEBF0FBEEDBF8CE794E09283F1
:101C7000818388E090E0948383830E94BA090F9067
:101C80000F900F900F9088E090E00FB6F8945EBE32
:101C90000FBE4DBE60960FB6F894DEBF0FBECDBF2F
:101CA000CF91DF911F910F91FF90EF90DF90CF9038
:101CB000BF90AF909F908F907F906F905F904F906C
:101CC0000895883008F078C0E82FF0E0EE0FFF1F8D
:101CD000EC5DF94F718360838330D9F0843030F448
:101CE000813009F444C0823060F439C0853051F14C
:101CF0008530D8F0863009F446C0873009F05CC0E2
:101D00004FC0809169008C7F842B80936900E89A92
:101D1000089580916900440F551F440F551F837F1C
:101D2000842B80936900E99A08958091690074E09A
:101D3000440F551F7A95E1F78F7C842B80936900BF
:101D4000EA9A08958091690066E0440F551F6A95EC
:101D5000E1F78F73842B80936900EB9A089580914B
:101D60006A008C7F842B80936A00EC9A089580919E
:101D70006A00440F551F440F551F837F842B8093A7
:101D80006A00ED9A089580916A0024E0440F551F7F
:101D90002A95E1F78F7C842B80936A00EE9A089550
:101DA00080916A0096E0440F551F9A95E1F78F7372
:101DB000842B80936A00EF9A08951F920F920FB6BA
:101DC0000F920BB60F9211242F933F934F935F9373
:101DD0006F937F938F939F93AF93BF93EF93FF93F3
:101DE0008091280690912906892B29F0E0912806F8
:101DF000F09129061995FF91EF91BF91AF919F91B5
:101E00008F917F916F915F914F913F912F910F90A3
:101E10000BBE0F900FBE0F901F9018951F920F9240
:101E20000FB60F920BB60F9211242F933F934F933F
:101E30005F936F937F938F939F93AF93BF93EF9332
:101E4000FF9380912A0690912B06892B29F0E0912F
:101E50002A06F0912B061995FF91EF91BF91AF9152
:101E60009F918F917F916F915F914F913F912F91B2
:101E70000F900BBE0F900FBE0F901F9018951F92E2
:101E80000F920FB60F920BB60F9211242F933F9320
:101E90004F935F936F937F938F939F93AF93BF9372
:101EA000EF93FF9380912C0690912D06892B29F0BA
:101EB000E0912C06F0912D061995FF91EF91BF91BD
:101EC000AF919F918F917F916F915F914F913F91D2
:101ED0002F910F900BBE0F900FBE0F901F90189573
:101EE0001F920F920FB60F920BB60F9211242F93E1
:101EF0003F934F935F936F937F938F939F93AF9392
:101F0000BF93EF93FF9380912E0690912F06892B1C
:101F100029F0E0912E06F0912F061995FF91EF918F
:101F2000BF91AF919F918F917F916F915F914F91F1
:101F30003F912F910F900BBE0F900FBE0F901F90EF
:101F400018951F920F920FB60F920BB60F92112495
:101F50002F933F934F935F936F937F938F939F93B1
:101F6000AF93BF93EF93FF93809124069091250642
:101F7000892B29F0E0912406F09125061995FF910F
:101F8000EF91BF91AF919F918F917F916F915F91F1
:101F90004F913F912F910F900BBE0F900FBE0F905E
:101FA0001F9018951F920F920FB60F920BB60F92BB
:101FB00011242F933F934F935F936F937F938F934E
:101FC0009F93AF93BF93EF93FF93809126069091D9
:101FD0002706892B29F0E0912606F091270619950E
:101FE000FF91EF91BF91AF919F918F917F916F91F1
:101FF0005F914F913F912F910F900BBE0F900FBEAD
:102000000F901F9018951F920F920FB60F920BB65C
:102010000F9211242F933F934F935F936F937F936E
:102020008F939F93AF93BF93EF93FF93809130066D
:1020300090913106892B29F0E0913006F09131061C
:102040001995FF91EF91BF91AF919F918F917F91E2
:102050006F915F914F913F912F910F900BBE0F9019
:102060000FBE0F901F9018951F920F920FB60F92F0
:102070000BB60F9211242F933F934F935F936F935F
:102080007F938F939F93AF93BF93EF93FF93809131
:10209000320690913306892B29F0E0913206F091B7
:1020A00033061995FF91EF91BF91AF919F918F9159
:1020B0007F916F915F914F913F912F910F900BBE48
:1020C0000F900FBE0F901F901895382F863308F091
:1020D000365320917B00832F86958695869590E0D8
:1020E0008170907043E0880F991F4A95E1F7277F30
:1020F000282B20937B003770809164058295880F90
:10210000880F807C832B80937C0080917A00806490
:1021100080937A0080917A0086FDFCCF2091780030
:1021200040917900942F80E030E0282B392BC901B1
:1021300008951F920F920FB60F9211242F933F9381
:102140008F939F93AF93BF938091380690913906F8
:10215000A0913A06B0913B0630913C060196A11D34
:10216000B11D232F2D5F2D3720F02D570196A11D76
:10217000B11D20933C068093380690933906A093B6
:102180003A06B0933B068091340690913506A091B3
:102190003606B09137060196A11DB11D8093340615
:1021A00090933506A0933606B0933706BF91AF9152
:1021B0009F918F913F912F910F900FBE0F901F9085
:1021C00018958FB7F89420913806309139064091D0
:1021D0003A0650913B068FBFB901CA0108959B0191
:1021E000AC017FB7F8948091340690913506A091A8
:1021F0003606B091370666B5A89B05C06F3F19F04B
:102200000196A11DB11D7FBFBA2FA92F982F882736
:10221000860F911DA11DB11D62E0880F991FAA1F95
:10222000BB1F6A95D1F7BC012DC0FFB7F894809110
:10223000340690913506A0913606B0913706E6B582
:10224000A89B05C0EF3F19F00196A11DB11DFFBF6E
:10225000BA2FA92F982F88278E0F911DA11DB11D70
:10226000E2E0880F991FAA1FBB1FEA95D1F7861BD2
:10227000970B885E9340C8F2215030404040504058
:1022800068517C4F211531054105510571F60895BE
:10229000789484B5826084BD84B5816084BD85B541
:1022A000826085BD85B5816085BDEEE6F0E0808108
:1022B00081608083E1E8F0E0108280818260808329
:1022C000808181608083E0E8F0E0808181608083AC
:1022D000E1EBF0E0808184608083E0EBF0E08081DE
:1022E00081608083E1E9F0E0808182608083808189
:1022F00081608083E0E9F0E0808181608083E1EAB1
:10230000F0E0808182608083808181608083E0EA68
:10231000F0E0808181608083E1E2F1E08081826091
:102320008083808181608083E0E2F1E08081816050
:102330008083EAE7F0E0808184608083808182602E
:102340008083808181608083808180688083109217
:10235000C1000895CF93DF93482F50E0CA018858F9
:102360009E4FFC0134914E5C5E4FFA0184918823AC
:1023700069F190E0880F991FFC01EC51FF4FA59186
:10238000B491FC01E250FF4FC591D491662351F402
:102390002FB7F8948C91932F909589238C938881F3
:1023A00089230BC0623061F42FB7F8948C91932F7E
:1023B000909589238C938881832B88832FBF06C0B7
:1023C0009FB7F8948C91832B8C939FBFDF91CF9113
:1023D0000895893009F449C08A30A0F4843051F15D
:1023E000853040F4823079F1833000F5813009F096
:1023F00063C026C0873079F1883098F5863009F0BF
:102400005BC025C08D3009F442C08E3028F48B307B
:10241000B1F18C30C0F52DC0803109F442C081315A
:1024200009F445C08F3009F047C037C08091800063
:102430008F7703C0809180008F7D80938000089506
:1024400084B58F7702C084B58F7D84BD0895809157
:10245000B0008F7703C08091B0008F7D8093B00073
:102460000895809190008F7707C0809190008F7DB4
:1024700003C080919000877F8093900008958091A1
:10248000A0008F7707C08091A0008F7D03C080914E
:10249000A000877F8093A0000895809120018F770E
:1024A00003C0809120018F7D809320010895809149
:1024B0002001877F809320010895FF920F931F933F
:1024C000F62E482F50E0CA0182549E4FFC01249101
:1024D000CA0188589E4FFC0114914E5C5E4FFA0170
:1024E00004910023C9F0222319F0822F0E94E911E0
:1024F000E02FF0E0EE0FFF1FE250FF4FA591B491E7
:102500009FB7F894FF2021F48C911095812302C08D
:102510008C91812B8C939FBF1F910F91FF900895F9
:102520000F931F93482F50E0CA0182549E4FFC0125
:102530002491CA0188589E4FFC0104914E5C5E4F65
:10254000FA011491112319F420E030E015C0222380
:1025500019F0822F0E94E911812F90E0880F991FB6
:10256000885E9E4FFC01A591B4918C9120E030E0F3
:10257000802311F021E030E0C9011F910F910895EF
:1025800008951F920F920FB60F920BB60F9211245F
:102590002F933F934F938F939F93EF93FF9340918C
:1025A000C60020917D0630917E062F5F3F4F2F732E
:1025B000307080917F06909180062817390759F076
:1025C000E0917D06F0917E06E35CF94F4083309305
:1025D0007E0620937D06FF91EF919F918F914F9101
:1025E0003F912F910F900BBE0F900FBE0F901F9039
:1025F000189508951F920F920FB60F920BB60F9277
:1026000011242F933F934F938F939F93EF93FF93B7
:102610004091CE0020910507309106072F5F3F4F74
:102620002F7330708091070790910807281739079A
:1026300059F0E0910507F0910607EB53F94F4083FD
:102640003093060720930507FF91EF919F918F919B
:102650004F913F912F910F900BBE0F900FBE0F9097
:102660001F90189508951F920F920FB60F920BB6F8
:102670000F9211242F933F934F938F939F93EF9338
:10268000FF934091D60020918D0730918E072F5FE8
:102690003F4F2F73307080918F07909190072817CC
:1026A000390759F0E0918D07F0918E07E35BF84F01
:1026B000408330938E0720938D07FF91EF919F9178
:1026C0008F914F913F912F910F900BBE0F900FBEA6
:1026D0000F901F90189508951F920F920FB60F92AA
:1026E0000BB60F9211242F933F934F938F939F9389
:1026F000EF93FF9340913601209115083091160811
:102700002F5F3F4F2F7330708091170890911808FA
:102710002817390759F0E0911508F0911608EB5287
:10272000F84F40833093160820931508FF91EF91DE
:102730009F918F914F913F912F910F900BBE0F90D2
:102740000FBE0F901F901895E0916908F0916A08EC
:10275000E05CFF4F8191919120813181821B930B2D
:102760008F739070892B11F00E94C012E09188083D
:10277000F0918908E05CFF4F819191912081318136
:10278000821B930B8F739070892B11F00E94F912AA
:10279000E091A708F091A808E05CFF4F819191912A
:1027A00020813181821B930B8F739070892B11F0E4
:1027B0000E943213E091C608F091C708E05CFF4F19
:1027C0008191919120813181821B930B8F73907045
:1027D000892B11F00E946B1308951F920F920FB670
:1027E0000F920BB60F9211242F933F938F939F93C9
:1027F000EF93FF932091C1063091C2068091C306EA
:102800009091C4062817390731F48091C1008F7D5B
:102810008093C10014C0E091C306F091C406EF5745
:10282000F94F20818091C3069091C40601968F7361
:1028300090709093C4068093C3062093C600FF91C6
:10284000EF919F918F913F912F910F900BBE0F9021
:102850000FBE0F901F9018951F920F920FB60F92F8
:102860000BB60F9211242F933F938F939F93EF9367
:10287000FF932091490730914A0780914B0790912F
:102880004C072817390731F48091C9008F7D809358
:10289000C90014C0E0914B07F0914C07E75FF84F77
:1028A000208180914B0790914C0701968F73907017
:1028B00090934C0780934B072093CE00FF91EF91AC
:1028C0009F918F913F912F910F900BBE0F900FBE54
:1028D0000F901F9018951F920F920FB60F920BB684
:1028E0000F9211242F933F938F939F93EF93FF9316
:1028F0002091D1073091D2078091D3079091D407CE
:102900002817390731F48091D1008F7D8093D10051
:1029100014C0E091D307F091D407EF56F84F20810F
:102920008091D3079091D40701968F739070909304
:10293000D4078093D3072093D600FF91EF919F9106
:102940008F913F912F910F900BBE0F900FBE0F9064
:102950001F9018951F920F920FB60F920BB60F9201
:1029600011242F933F938F939F93EF93FF93209185
:10297000590830915A0880915B0890915C0828179B
:10298000390731F4809131018F7D8093310114C07A
:10299000E0915B08F0915C08E75EF74F2081809141
:1029A0005B0890915C0801968F73907090935C081F
:1029B00080935B0820933601FF91EF919F918F9157
:1029C0003F912F910F900BBE0F900FBE0F901F9055
:1029D0001895AF92BF92DF92EF92FF920F931F93E1
:1029E000CF93DF93EC017A018B01DD24403081EE3F
:1029F000580780E0680780E0780711F0DD24D39461
:102A000091E0A92EB12CEC89FD89DD2069F0C5018A
:102A10000E8C02C0880F991F0A94E2F7808360E051
:102A200079E08DE390E005C0108260E874E88EE103
:102A300090E0A80197010E94B139215030404040F8
:102A40005040569547953795279580E120303807B7
:102A500020F0DD2011F0DD24D6CFE889F98930831C
:102A6000EA89FB892083EE89FF89408121E030E0FB
:102A7000C9010A8C02C0880F991F0A94E2F7482BFB
:102A80004083EE89FF894081C9010B8C02C0880F09
:102A9000991F0A94E2F7482B4083EE89FF89408111
:102AA000C9010C8C02C0880F991F0A94E2F7482BC9
:102AB0004083EE89FF8980810D8C02C0220F331F75
:102AC0000A94E2F7209528232083DF91CF911F916C
:102AD0000F91FF90EF90DF90BF90AF900895DC01D1
:102AE0001C96ED91FC911D97E05CFF4F2191319177
:102AF00080819181281B390B2F733070C901089593
:102B0000DC011C96ED91FC911D97E05CFF4F20814C
:102B10003181E054F040DF01AE5BBF4F8D919C915D
:102B200011972817390719F42FEF3FEF07C08D9140
:102B30009C91E80FF91F8081282F30E0C90108958A
:102B4000DC011C96ED91FC911D97E05CFF4F20810C
:102B50003181E054F040DF01AE5BBF4F8D919C911D
:102B600011972817390719F42FEF3FEF10C08D91F7
:102B70009C911197E80FF91F20818D919C911197DD
:102B800001968F73907011969C938E9330E0C901DB
:102B90000895FC0186859785DC01A05CBF4FFC0190
:102BA000EE5BFF4F2D913C91119780819181281709
:102BB0003907C1F70895CF93DF93EC01EE85FF85C8
:102BC000E05CFF4F20813181E054F0402F5F3F4FA8
:102BD0002F733070DF01AE5BBF4F8D919C911197C9
:102BE00028173907D1F3E05CFF4F80819181E054D1
:102BF000F040E80FF91F6083EE85FF85E05CFF4F32
:102C000031832083EE89FF89208181E090E00D8C63
:102C100002C0880F991F0A94E2F7282B208381E0D5
:102C200090E0DF91CF9108951F9310926008109269
:102C30005F0828EE33E040E050E0209361083093D5
:102C40006208409363085093640861E775E07093ED
:102C50005E0860935D088DE396E090936A08809328
:102C6000690881E896E090936C0880936B0885EC86
:102C700090E090936E0880936D0884EC90E09093C0
:102C8000700880936F0880EC90E0909372088093B6
:102C9000710881EC90E0909374088093730886EC3F
:102CA00090E0909376088093750814E0109377086D
:102CB000B3E0B0937808A7E0A0937908F5E0F0932B
:102CC0007A08E1E0E0937B0810927F0810927E087A
:102CD00020938008309381084093820850938308A2
:102CE00070937D0860937C0885EC96E0909389084A
:102CF0008093880889E097E090938B0880938A08F6
:102D00008DEC90E090938D0880938C088CEC90E093
:102D100090938F0880938E0888EC90E090939108B0
:102D20008093900889EC90E09093930880939208A8
:102D30008EEC90E0909395088093940810939608F9
:102D4000B0939708A0939808F0939908E0939A0895
:102D500010929E0810929D0820939F083093A0081F
:102D60004093A1085093A20870939C0860939B081D
:102D70008DE497E09093A8088093A70881E997E0F5
:102D80009093AA088093A90885ED90E09093AC08F1
:102D90008093AB0884ED90E09093AE088093AD08EB
:102DA00080ED90E09093B0088093AF0881ED90E0C3
:102DB0009093B2088093B10886ED90E09093B408A8
:102DC0008093B3081093B508B093B608A093B708E2
:102DD000F093B808E093B9081092BD081092BC08AF
:102DE0002093BE083093BF084093C0085093C10899
:102DF0007093BB086093BA0885ED97E09093C7087D
:102E00008093C60889E198E09093C9088093C80828
:102E100085E391E09093CB088093CA0884E391E026
:102E20009093CD088093CC0880E391E09093CF08F5
:102E30008093CE0881E391E09093D1088093D008ED
:102E400086E391E09093D3088093D2081093D4083E
:102E5000B093D508A093D608F093D708E093D8088C
:102E60001F910895CF93DF930E9448110E948C0810
:102E7000C4EAD3E10E94BA052097E1F30E94A413AB
:102E8000F9CF0895CF92DF92EF92FF920F931F93A5
:102E9000CF93DF937C016B018A01C0E0D0E00FC0CB
:102EA000D6016D916D01D701ED91FC910190F081FA
:102EB000E02DC7011995C80FD91F01501040011509
:102EC000110571F7CE01DF91CF911F910F91FF9006
:102ED000EF90DF90CF900895EF92FF920F931F93A2
:102EE0008C01DC01ED91FC910190F081E02D6DE011
:102EF00019957C01D801ED91FC910190F081E02DB4
:102F0000C8016AE019959C012E0D3F1DC9011F9152
:102F10000F91FF90EF900895EF92FF920F931F9300
:102F20007C01DC01ED91FC910190F081E02D19957F
:102F30008C01C7010E946C17080F191FC8011F914F
:102F40000F91FF90EF900895CF93DF93DB010D90E9
:102F50000020E9F71197A61BB70BEC01E881F98176
:102F60000280F381E02DAD011995DF91CF91089595
:102F70000E94A4170895EF92FF920F931F937C0174
:102F80000E94A4178C01C7010E946C17080F191F1B
:102F9000C8011F910F91FF90EF9008952F923F92DB
:102FA0004F925F926F927F928F929F92AF92BF9259
:102FB000CF92DF92EF92FF920F931F93DF93CF9305
:102FC000CDB7DEB73B014C0119012A016E897F891B
:102FD000888D998D6A197B098C099D09621A730A7B
:102FE000840A950AA40193010E946B39E218F30840
:102FF00004091509A80197010E94D3392A0D3B1D28
:103000004C1D5D1DB901CA01CF91DF911F910F9138
:10301000FF90EF90DF90CF90BF90AF909F908F90F8
:103020007F906F905F904F903F902F900895FC019C
:103030001382128281E895E0918380837583648393
:10304000578346837187608753874287158A158621
:1030500014861786168621E0248B8FEF9FEF938BC3
:10306000828B918B808B268B08952F923F924F926B
:103070005F926F927F928F929F92AF92BF92CF9208
:10308000DF92EF92FF920F931F93DF93CF93CDB711
:10309000DEB72E970FB6F894DEBF0FBECDBF9E876A
:1030A0008D871B015E834D83A701260171E0C72E2A
:1030B000D12CC21AD30AC901880F991F6627772716
:1030C000681B790B7A8369836D807E800894610820
:1030D000710883E0882E912C8E0C9F1C790181E071
:1030E00090E09C838B83AA24BB2410E0D801A170BC
:1030F000B070B887AF83FA013196FA87E987B801D3
:10310000627070707C876B8777C0D7FC0AC00894A8
:10311000E108F10889819A8102969A838983C80E11
:10312000D91E0894A11CB11CAB81BC811296BC8332
:10313000AB83EF81F885EF2B41F1AD85BE85ED9135
:10314000FC911197B501620D731D4D815E814E1981
:103150005F099701220F331F89859A85280F391F30
:103160000084F185E02DCD0182011995AD85BE85E4
:10317000ED91FC911197B701620D731D0084F185EB
:10318000E02DCD01A30194011995EB85FC85EF2B72
:1031900041F1AD85BE85ED91FC911197B1016A19A0
:1031A0007B094D815E814E195F099701220F331F04
:1031B00089859A85280F391F0084F185E02DCD017E
:1031C00082011995AD85BE85ED91FC911197B101F4
:1031D0006E197F090084F185E02DCD01A3019401D2
:1031E0001995EB81FC81CE0EDF1E089461087108F1
:1031F00062E070E0860E971EAE14BF040CF485CF1B
:103200002E960FB6F894DEBF0FBECDBFCF91DF91E3
:103210001F910F91FF90EF90DF90CF90BF90AF90F4
:103220009F908F907F906F905F904F903F902F90E6
:1032300008956F927F928F929F92AF92BF92CF929A
:10324000DF92EF92FF920F931F937C014B013A01A3
:1032500059016801DC01ED91FC91421B530B220FD7
:10326000331F2F5F3F4F0084F185E02D1995C70173
:10327000B401A301950103E0EE24FF240E94351858
:103280001F910F91FF90EF90DF90CF90BF90AF9084
:103290009F908F907F906F9008952F923F924F92C2
:1032A0005F926F927F928F929F92AF92BF92CF92D6
:1032B000DF92EF92FF920F931F93DF93CF9300D093
:1032C0000F92CDB7DEB73C017C836B836A01590155
:1032D000FA82E982222433249801241B350B37FF1C
:1032E00003C0309521953F4FC5014B815C81841B04
:1032F000950B97FF03C0909581959F4F8217930779
:103300005CF481E0282E312CC601CB80DC809C83CC
:103310008B83C80185015C018B819C81A816B9064D
:1033200044F4C501AB80BC809C838B83C8018601BB
:103330006C012501AB81BC814A1A5B0A7801EC184B
:10334000FD08F7FE04C0F094E194F108F394C01670
:10335000D10624F088248A94982C03C0B1E08B2EE7
:10336000912CC20162E070E00E949E398B0125C061
:10337000D301ED91FC912114310441F00480F581D9
:10338000E02DC301B6014B815C8107C00480F5814B
:10339000E02DC3016B817C81A60129813A811995B9
:1033A0000E191F0917FF04C0C80CD91C040D151DE8
:1033B000EB81FC813196FC83EB834B815C81A4160D
:1033C000B506B4F60F900F900F900F90CF91DF914C
:1033D0001F910F91FF90EF90DF90CF90BF90AF9033
:1033E0009F908F907F906F905F904F903F902F9025
:1033F00008954F925F926F927F928F929F92AF92B9
:10340000BF92CF92DF92EF92FF920F931F936C01C6
:103410005B014A0139012801DC01ED91FC91028434
:10342000F385E02D87011995D601ED91FC91A4015A
:1034300041505040440D551D0284F385E02DC601D6
:10344000B50193011995D601ED91FC910084F185A8
:10345000E02DC601B501A40192011995D601ED91A7
:10346000FC910894A108B108A60CB71C0084F18552
:10347000E02DC601B501A401920119951F910F918C
:10348000FF90EF90DF90CF90BF90AF909F908F9084
:103490007F906F905F904F900895CF92DF92EF9260
:1034A000FF920F931F93DC016B017801ED91FC916A
:1034B0008A0101501040020F131F0680F781E02D92
:1034C000960119951F910F91FF90EF90DF90CF908B
:1034D0000895CF92DF92EF92FF920F931F93DC013A
:1034E0006A01C9017801ED91FC9111979B0121506E
:1034F0003040280F391F0680F781E02DCD0186016D
:1035000019951F910F91FF90EF90DF90CF90089544
:103510006F927F928F929F92AF92BF92CF92DF92E3
:10352000EF92FF920F931F93CF93DF935C013A01C9
:1035300069014801EB01C60ED71E0DC0D501ED9102
:10354000FC910084F185E02DC501BE01A301940129
:10355000870119952196CC15DD0584F3DF91CF9174
:103560001F910F91FF90EF90DF90CF90BF90AF90A1
:103570009F908F907F906F900895EF92FF920F939E
:103580001F93FC017B01A081B181208531850285DB
:1035900013851E960D90BC91A02D60E070E040E078
:1035A00050E0FD0119951F910F91FF90EF90089544
:1035B0002F923F924F925F926F927F928F929F9243
:1035C000AF92BF92CF92DF92EF92FF920F931F9331
:1035D000DF93CF93CDB7DEB72F970FB6F894DEBF4A
:1035E0000FBECDBF5C015E834D8318870F83FA86C3
:1035F000E986CB86DC0118968D919C911997681706
:1036000079070CF0A4C01A968D919C911B974817CE
:1036100059070CF09CC0EC2DF0E0FF87EE87CF013E
:10362000880F991F8E0F9F1F880F991F860F971F56
:10363000181619060CF08BC0CF01F3E0880F991F04
:10364000FA95E1F7840F951F181619060CF07FC044
:1036500085E0289FA00111245A8349832B011B0177
:103660001C825C81553011F480E005C0E981FA814B
:10367000EC5FFD4F84912C863D866D807E804301FA
:103680001B82C82EDD2480FF1CC0D501ED91FC916A
:10369000BB85B13049F40480F581E02DC501B2014C
:1036A000A3012F81388522C00684F785E02DC5014E
:1036B0006C857D85A4012E853F858901EF80F88486
:1036C00023C0E985FA852F813885E217F307E9F0F1
:1036D000D501ED91FC91BB85B13051F40480F581A9
:1036E000E02DC501B201A30129853A8519950DC0C8
:1036F0000684F785E02DC5016C857D85A4012E85A6
:103700003F858901E984FA841995EB81EF5FEB83AA
:103710002E853F85820E931E0894611C711CE83033
:1037200021F0D594C7948C2DACCF3C813F5F3C8376
:103730004E855F85240E351E0894411C511C8981DD
:103740009A8101969A838983363009F08ACF2F9621
:103750000FB6F894DEBF0FBECDBFCF91DF911F91A2
:103760000F91FF90EF90DF90CF90BF90AF909F9020
:103770008F907F906F905F904F903F902F90089523
:10378000CF92EF92FF920F931F93CF93DF93EC01B1
:10379000262F6A3061F42C8930E003E0220F331FBA
:1037A0000A95E1F78E859F85820F931F37C06D3094
:1037B000C9F16C857D854E855F8508891989EA8800
:1037C000FB88CC880E94D81A2C8986E0289FB001FB
:1037D00011248C859D85680F791F7D876C878E8964
:1037E000882301F1422F50E08AEF9FEF9C01429F16
:1037F000C001439F900D529F900D1124288539855B
:10380000820F931F861797076CF413E0440F551F20
:103810001A95E1F78E859F85840F951F9F878E8768
:103820001D861C8681E090E0DF91CF911F910F9162
:10383000FF90EF90CF900895FC01758764875787BC
:1038400046870895FC01662309F461E0648B0895BE
:10385000FC01738B628B718B608B08950895DC0182
:1038600058968C915897882329F06EBD0DB407FEA9
:10387000FDCF089530E840E050E070E0832F90E005
:10388000862397235996ED91FC915A9796962C9101
:103890009697892B21F08081822B808304C08081C0
:1038A0002095282320835B96ED91FC915C97808185
:1038B00097969C919797892B80835B96ED91FC91CD
:1038C0005C97908197968C919797809589238083B8
:1038D00036954F5F5F4F4830510581F608950F933D
:1038E0001F938C01DC015F96ED91FC919097908184
:1038F00099968C9199978095892380835D96ED9117
:10390000FC915E97908198968C9180958923808315
:10391000C8010E942F1CD8015D96ED91FC915E9725
:10392000808198969C91892B80831F910F91089597
:103930000F931F938C01DC015F96ED91FC919097A2
:10394000808199969C919997892B80835D96ED91C2
:10395000FC915E97908198968C91809589238083C5
:10396000C8010E942F1CD8015D96ED91FC915E97D5
:10397000808198969C91892B80831F910F91089547
:10398000CF92DF92EF92FF920F931F937C01162F3D
:10399000C42ED22E6AE20E946F1CC70160E00E9412
:1039A000981CF70162A5610FC7010E94981CC7010E
:1039B00060E00E94981CF70162A56D0DC7010E948E
:1039C000981CC7016BE20E946F1CC70160E00E9457
:1039D000981CF70163A56C0DC7010E94981CC701D4
:1039E00060E00E94981CF70163A5600FC7010E9468
:1039F000981CC7016CE20E946F1C1F910F91FF90F1
:103A0000EF90DF90CF900895FF920F931F938C015A
:103A1000F62E672FDC015F96ED91FC9190978081E7
:103A200099969C919997892B80835D96ED91FC9155
:103A30005E97908198968C91809589238083C801A8
:103A40000E942F1CC8016F2D0E942F1CD8015D966B
:103A5000ED91FC915E97808198969C91892B808353
:103A60001F910F91FF900895FF920F931F93CF9393
:103A7000DF93EC01F22E132F77FD2EC088859985F8
:103A8000681779074CF557FD27C08A859B8548172D
:103A9000590714F5262F2F5F042F0F5FCE010E94C8
:103AA000C01CEF8DF8A1808199A5892B8083ED8DB5
:103AB000FE8D908188A5809589238083CE01612F1A
:103AC0000E942F1CCE016F2D0E942F1CED8DFE8DAC
:103AD000808198A5892B8083DF91CF911F910F91D1
:103AE000FF900895DF92EF92FF920F931F93CF9371
:103AF000DF93EC01FB017901D02E88859985681749
:103B00007907D4F52A853B8542175307ACF5C701E1
:103B1000840F951F281739071CF47901E41AF50A58
:103B2000042F01500E0DCE016E2F2E2F0E94C01CAF
:103B3000EF8DF8A1808199A5892B8083ED8DFE8D75
:103B4000908188A580958923808308C0CE01612F4C
:103B50000E942F1CCE016D2D0E942F1C0894E1089D
:103B6000F1088FEFE8168FEFF80681F7ED8DFE8DE7
:103B7000808198A5892B8083DF91CF911F910F9130
:103B8000FF90EF90DF900895DF92EF92FF920F93F6
:103B90001F93CF93DF93EC01FA017901D02E288592
:103BA000398562177307D4F58A859B8548175907AD
:103BB000ACF5C701860F971F281739071CF4790148
:103BC000E61AF70A262F21502E0DCE014E2F0E2F6A
:103BD0000E94C01CEF8DF8A1808199A5892B80835C
:103BE000ED8DFE8D908188A580958923808308C006
:103BF000CE01612F0E942F1CCE016D2D0E942F1C23
:103C00000894E108F1088FEFE8168FEFF80681F7C6
:103C1000ED8DFE8D808198A5892B8083DF91CF91DA
:103C20001F910F91FF90EF90DF900895EF92FF9218
:103C30000F931F93FC017B01A081B1812085318509
:103C4000028513851E960D90BC91A02D60E070E05A
:103C500040E050E0FD0119951F910F91FF90EF900A
:103C60000895AF92BF92CF92DF92EF92FF920F939F
:103C70001F93CF93DF936C015901E801DC01189683
:103C80002D913C911997621773070CF057C01A9643
:103C9000ED91FC911B974E175F070CF04FC0C501CB
:103CA000860F971F281739071CF45901A61AB70A5F
:103CB000CE01840F951FE817F9071CF4EF01C41B10
:103CC000D50B262F21502A0D042F01500C0FC601B1
:103CD0000E94C01CD6015F96ED91FC919097808167
:103CE00099969C919997892B80835D96ED91FC9193
:103CF0005E97908198968C918095892380838E0120
:103D00000EC0C6016F2D0E942F1CC6016E2D0E9491
:103D10002F1C21971C161D06A4F3015010401016ED
:103D2000110614F4E501F6CFD6015D96ED91FC91F4
:103D30005E97808198969C91892B8083DF91CF91AB
:103D40001F910F91FF90EF90DF90CF90BF90AF90B9
:103D500008951F93CF93DF93EC01162F66E30E9423
:103D60006F1C13701D8B113081F0113028F0123050
:103D7000A9F01330B1F523C08F89823019F4CE0138
:103D800060EC14C0CE0168EC11C08F89823019F448
:103D9000CE0160EA1CC0CE0168EA19C08F8982306A
:103DA00019F4CE0160E002C0CE0168E00E94981CC8
:103DB00080E890E09987888780EA90E010C08F893A
:103DC000823019F4CE0160E602C0CE0168E60E949E
:103DD000981C80EA90E09987888780E890E09B872C
:103DE0008A87DF91CF911F910895662311F460E2D5
:103DF00001C061E20E946F1C0895AF92BF92CF9202
:103E0000DF92EF92FF920F931F93CF93DF935C01AA
:103E1000FB01EB012196D49031C08E010F5F1F4F43
:103E2000FE016491C5010E946F1C78010894E11C99
:103E3000F11CF801C4900C2D0F77E701102F08C07A
:103E4000FE012196E491C5016E2F0E94981C11502D
:103E50001123B1F7E701C00FD11DC7FE0EC0FE014F
:103E60008491682F70E06F3F710511F464EF71E089
:103E7000219680E090E00E94EF10DA94DD2069F650
:103E8000DF91CF911F910F91FF90EF90DF90CF9036
:103E9000BF90AF9008950F931F93CF93DF93EC01E2
:103EA0008B011BA61AA68AA161E00E94AA1189A112
:103EB00061E00E94AA11E9A14E2F50E0FA01EE5CE8
:103EC000FE4FE491F0E0EE0FFF1FE250FF4F8591AF
:103ED00094919E8F8D8FEAA12E2F30E0F901EE5C38
:103EE000FE4FE491F0E0EE0FFF1FE250FF4F85918F
:103EF000949198A38F8F48585E4FFA01849188A7B8
:103F000028583E4FF901849189A7888D882361F054
:103F10000E947F3280E00E946E3281E00E94603217
:103F200080E00E9469323DC08DA161E00E94AA112B
:103F30008CA161E00E94AA11EDA14E2F50E0FA0180
:103F4000EE5CFE4FE491F0E0EE0FFF1FE250FF4FFA
:103F5000A591B491BC8FAB8FECA12E2F30E0F9016D
:103F6000EE5CFE4FE491F0E0EE0FFF1FE250FF4FDA
:103F7000859194919A8F898F48585E4FFA01949158
:103F80009FA328583E4FF90184918EA38C91909560
:103F900098239C93E98DFA8D90818EA18095892339
:103FA0008083ED8DFE8D908188A580958923808307
:103FB0008BA1882309F161E00E94AA118BA161E025
:103FC0000E945D1264EF71E080E090E00E94EF10CB
:103FD0008BA160E00E945D1264EF71E080E090E0F0
:103FE0000E94EF108BA161E00E945D1264EF71E00E
:103FF00080E090E00E94EF100115110521F0CE0144
:10400000B8010E94FD1EDF91CF911F910F9108957D
:104010001F93CF93DF93EC01162F6FEF76E00E9492
:104020004B1F112351F4CE016AE377E00E94FD1E7D
:1040300082E08AA781E08BA705C0CE0167E477E024
:104040000E94FD1ECE0164E577E00E94FD1E123045
:1040500041F4CE0166E30E946F1CCE0160EC0E9429
:10406000981C1F8BDF91CF911F910895DF92EF92E3
:10407000FF920F931F938C01F62EE42ED22E60E850
:1040800070E040EA50E00E94171889E995E0F801D5
:1040900091838083F1A2E2A2D3A281E0808F15A256
:1040A00014A21F910F91FF90EF90DF90089582E08E
:1040B00090E0A0E0B0E08093D9089093DA08A09354
:1040C000DB08B093DC081092F0081092FA08109206
:1040D000F90881EB95E09093F8088093F708109227
:1040E000FC081092190910921A0910921D091092D9
:1040F0001F0908952F923F924F925F926F927F9285
:104100008F929F92AF92BF92CF92DF92EF92FF92E7
:104110000F931F93DF93CF93CDB7DEB7C754D04033
:104120000FB6F894DEBF0FBECDBF582E492EFB014F
:104130003A01190180A191A1998B888B21EB35E07F
:104140003F872E8782A18A8B83A18B8B84A195A127
:10415000A6A1B7A18C8B9D8BAE8BBF8B80A591A5A3
:10416000A2A5B3A5888F998FAA8FBB8F84A595A58B
:10417000A6A5B7A58C8F9D8FAE8FBF8F80A988A372
:1041800081A992A9A3A9B4A989A39AA3ABA3BCA30B
:1041900085A996A9A7A9B0AD8DA39EA3AFA3B8A7E3
:1041A00081AD92AD9AA789A71EA61DA63CA72BA7F5
:1041B00018AA7A018E01025F1F4F3BE2A32EB12C99
:1041C000AC0EBD1E4E010894811C911C35C0D70158
:1041D0008C918F3221F40894E11CF11C2DC0422FE8
:1041E0004E194D3008F04CE0C42EDD24C401B70157
:1041F000A6010E947F36F401EC0DFD1D1082C50161
:104200000E944C27C501B801A40121E00E94942C12
:10421000882351F4E52DF42D1382128281EB95E071
:1042200091838083158266C0EC0CFD1CC8010E943E
:104230004C27C50158018C01C7016FE270E00E9454
:1042400074369C01009719F6E618F708F101F1821F
:10425000E082E52DF42DD80112968D919C91139753
:104260009383828381EB95E09183808314968C9174
:104270001497848315968C911597858316962D91A6
:104280003D914D915C9119972683378340875187E3
:104290001A962D913D914D915C911D972287338700
:1042A000448755871E962D913D914D915C91519774
:1042B00026873787408B518B52968C915297828BF1
:1042C00053962D913D914D915C915697238B348B54
:1042D000458B568B57962D913D914D915C915A97F8
:1042E000278B308F418F528F5B968D919C915C977D
:1042F000948F838F852D942DC95BDF4F0FB6F89473
:10430000DEBF0FBECDBFCF91DF911F910F91FF9008
:10431000EF90DF90CF90BF90AF909F908F907F9065
:104320006F905F904F903F902F9008959F92AF9223
:10433000BF92CF92DF92EF92FF920F931F93DF9382
:10434000CF93CDB7DEB7C657D0400FB6F894DEBFD7
:104350000FBECDBFC82E992E8A01D22E43E0A42EC7
:10436000B12CAC0EBD1EC501A8019E012F5F3F4FB1
:104370000E947A20E980FA80E00EF11EF701808128
:1043800041EB55E02885882309F03FC08D819E814F
:104390009BA38AA359A348A38F818CA32DA38985AE
:1043A0009A85AB85BC858EA39FA3A8A7B9A78D8549
:1043B0009E85AF85B8898AA79BA7ACA7BDA7898929
:1043C0009A89AB89BC898EA79FA7A8ABB9AB8D8909
:1043D0008AAB8E899F89A88DB98D8BAB9CABADAB19
:1043E000BEAB8A8D9B8DAC8DBD8D8FAB98AFA9AFC9
:1043F000BAAF8E8D9F8D9CAF8BAF8C2D992DBE014A
:10440000605E7F4F4FE854E09FC0FE01FF9611822F
:1044100010825EAF4DAFFE01EE5BFF4F1082222394
:10442000A9F02250CE01CD96223048F467EF78E013
:10443000A7012D2D0E94942C882381F407C0B5017B
:10444000A7012D2D0E94942C882329F48C2D992DC1
:104450000E94EC337BC0C5010E944C27F6E0DF22AE
:1044600059F0FE01E05BFF4F408151816281738111
:10447000CE01CD960E943C269E01265A3F4FFE015A
:10448000FF9680819181F9019383828381EB95E08E
:1044900091838083FE01EF5BFF4F8081F90184836C
:1044A000FE01EE5BFF4F8081F9018583FE01ED5B2C
:1044B000FF4F80819181A281B381F9018683978327
:1044C000A087B187FE01E95BFF4F80819181A281C6
:1044D000B381F90182879387A487B587FE01E55BE5
:1044E000FF4F80819181A281B381F90186879787EF
:1044F000A08BB18BFE01E15BFF4F8081F901828BC4
:10450000FE01E05BFF4F80819181A281B381F901BF
:10451000838B948BA58BB68BFE01EC5AFF4F808169
:104520009181A281B381F901878B908FA18FB28F86
:10453000FE01E85AFF4F80819181F901948F838FAA
:104540008C2D992DB901A7010E94F6348C2D992D3F
:10455000CA58DF4F0FB6F894DEBF0FBECDBFCF9164
:10456000DF911F910F91FF90EF90DF90CF90BF9060
:10457000AF909F900895EF92FF920F931F93CF9368
:10458000DF93EC01462F8C01055C1F4FC80161E0F1
:104590000E9428258823D1F0FC2EED2ECE01B801F3
:1045A00041E00E94352E882339F4CE01B80140E065
:1045B0000E94352E882351F0CE014E966F2D7E2D10
:1045C0000E948229882319F081E001C080E0DF91F8
:1045D000CF911F910F91FF90EF900895FC016730EC
:1045E00020F086E1858380E00895262F30E060FD8D
:1045F00002C0663019F48DB58E7F02C08DB5816022
:104600008DBD8CB58C7F8CBD4CB522FD02C090E079
:1046100001C092E036952795822F8170842B892BDB
:104620008CBD81E00895FF920F931F93CF93DF938A
:104630008B010E94E110EB01FF24FA94FEBC0DB443
:1046400007FEFDCF8EB58F3F11F481E008C00E94B8
:10465000E1106C1B7D0B6017710780F380E0DF9128
:10466000CF911F910F91FF900895FC01848160E02C
:104670000E945D120895FC01848161E00E945D1238
:104680000895DC016EBDFA0120E030E00DB407FEB4
:10469000FDCF80818EBD0DB407FEFDCF81818EBD23
:1046A0002E5F3F4F329682E02030380779F70DB405
:1046B00007FEFDCF8FEF8EBD0DB407FEFDCF8FEF50
:1046C0008EBD0DB407FEFDCF8FEF8EBD0DB407FE7E
:1046D000FDCF8EB51A968C931A978F71853011F491
:1046E00081E0089581E115968C931597CD010E9484
:1046F0003B2380E00895FF920F931F93CF93DF93A6
:10470000EC010E94E1108B01FF24FA9409C00E9481
:10471000E110601B710B6D52714010F08FE00DC005
:10472000FEBC0DB407FEFDCF8EB58A878F3F79F3AF
:104730008E3F11F481E006C08DE08D83CE010E9492
:104740003B2380E0DF91CF911F910F91FF9008955F
:10475000CF93DF93EC018E818823D1F08FEF8EBD54
:104760002F8138854FEF04C00DB407FEFDCF4EBD3D
:104770002F5F3F4FC901019781509240A8F33887BE
:104780002F830DB407FEFDCFCE010E943B231E8276
:10479000DF91CF910895DF92EF92FF920F931F93D5
:1047A000CF93DF93EC01D62E79018A010E94A823D2
:1047B000CE010E943523CE016CE271E00E941323EA
:1047C0008D2D80648EBD0DB407FEFDCF28E130E055
:1047D000D801C701022E04C0B695A7959795879575
:1047E0000A94D2F78EBD0DB407FEFDCF285030409D
:1047F0008FEF283F380761F7DD2011F485E906C007
:1048000088E0D81611F487E801C08FEF8EBD0DB493
:1048100007FEFDCF90E02FEF2EBD0DB407FEFDCFBC
:104820008EB587FF02C09150B9F78A87DF91CF918B
:104830001F910F91FF90EF90DF900895CF92DF923C
:10484000EF92FF920F931F93CF93DF93EC017A01C6
:104850008B016901411551056105710511F482E172
:1048600037C08B85833039F029E0EE0CFF1C001F28
:10487000111F2A95D1F7CE0168E1A80197010E9486
:10488000CB23882311F084E023C0CE016EEFA60174
:104890000E9441238823E9F0CE0168E572E00E947E
:1048A0001323882311F485E113C0CE016DE020E0CD
:1048B00030E040E050E00E94CB23882341F48FEFAA
:1048C0008EBD0DB407FEFDCF8EB5882379F084E14F
:1048D0008D83CE010E943B2380E0DF91CF911F9119
:1048E0000F91FF90EF90DF90CF900895CE010E943E
:1048F0003B2381E0F2CF8F929F92AF92BF92CF92F3
:10490000DF92EF92FF920F931F93CF93DF93EC010F
:104910005A016B0149010115110509F47BC0C80159
:10492000820F931F8150924008F06FC08E818823C0
:1049300071F088819981AA81BB81481759076A075C
:104940007B0729F48F8198858816990618F5A88227
:10495000B982CA82DB828B85833039F069E0AA0C88
:10496000BB1CCC1CDD1C6A95D1F7CE0161E1A60110
:1049700095010E94CB23882319F083E08D8345C0E5
:10498000CE010E947B23882309F43FC018861F8232
:1049900081E08E838FEF8EBD8F8198852FEF05C0CC
:1049A0000DB407FEFDCF2EBD019688159905C0F305
:1049B00098878F83D801119720E030E09FEF0BC0DC
:1049C0000DB407FEFDCF8EB5F701E20FF31F808314
:1049D0009EBD2F5F3F4F2A173B0790F30DB407FE94
:1049E000FDCF8EB5AE0DBF1D8C932F813885200F66
:1049F000311F38872F838985882319F02050324052
:104A000048F0CE010E94A82305C0CE010E943B239E
:104A100080E001C081E0DF91CF911F910F91FF9065
:104A2000EF90DF90CF90BF90AF909F908F900895C0
:104A3000EF92FF920F931F93790120E030E000E0A6
:104A400012E00E947B241F910F91FF90EF90089538
:104A5000BF92CF92DF92EF92FF920F931F93CF936B
:104A6000DF93EC01B62E1B8619861E821D824C83B5
:104A70000E94E1106B018C8161E00E94AA11CE01BD
:104A80000E943B2382E360E00E94AA1183E361E07D
:104A90000E94AA1184E361E00E94AA1185E361E00B
:104AA0000E94AA1185E361E00E945D1283E58CBD3E
:104AB0008DB58E7F8DBD80E09FEF9EBD0DB407FE4E
:104AC000FDCF8F5F8A30C9F7CE010E94352309C020
:104AD0000E94E1106C197D09615D774010F081E062
:104AE0005EC0CE0160E020E030E040E050E00E9497
:104AF000CB23182F8A87813059F7CE0168E02AEA44
:104B000031E040E050E00E94CB2382FF02C01B87CF
:104B100011C080E02FEF2EBD0DB407FEFDCF9EB576
:104B20008F5F8430C1F79A879A3A11F082E037C0DC
:104B300082E08B878B85823021F0EE24FF24870171
:104B40000FC0E12CF12C012DF0E41F2F09C00E94B1
:104B5000E1106C197D09615D774010F088E01FC09D
:104B6000CE0167E320E030E040E050E00E94CB233C
:104B7000CE0169E2A80197010E94CB238A8788238E
:104B800031F78B85823031F5CE016AE320E030E0E9
:104B900040E050E00E94CB23882339F086E08D83EB
:104BA000CE010E943B2380E01CC08FEF8EBD0DB470
:104BB00007FEFDCF8EB5807C803C11F483E08B87AF
:104BC00080E09FEF9EBD0DB407FEFDCF2EB58F5F39
:104BD0008330C1F7CE010E943B23CE016B2D0E9492
:104BE000EE22DF91CF911F910F91FF90EF90DF9018
:104BF000CF90BF900895CF93DF93EC01DB0180E06D
:104C000090E020E2FD01E80FF91F208301968B3030
:104C10009105C1F757E040E021C02E3219F086EE31
:104C200097E007C05A3019F15AE048E017C0321730
:104C3000F1F0FC01019634913323C9F75417B8F011
:104C40002132A8F02F3798F4822F81568A3108F448
:104C50002052FD01E40FF11D20834F5F2991222393
:104C6000E1F690E08C91803219F091E001C090E083
:104C7000892FDF91CF9108956F927F928F929F92AB
:104C8000AF92BF92CF92DF92EF92FF920F931F935A
:104C9000CF93DF93EC017A018B012D81222309F45C
:104CA00080C08B899C89AD89BE8984179507A6072A
:104CB000B70708F476C085C0E114F10401051105B9
:104CC00049F41E821F82188619861A861B861C8646
:104CD0001D8665C02A853B854C855D85EB8DFC8DE9
:104CE000858590E009962150304040405040390180
:104CF0004A01082E04C096948794779467940A9486
:104D0000D2F72F5F3F4F4F4F5F4F0894E108F108F4
:104D1000010911095701680104C0D694C794B794DA
:104D2000A7948A95D2F70894E11CF11C011D111D6E
:104D3000A614B704C804D90428F02115310541058B
:104D4000510549F48F89988DA98DBA8D8E839F83E3
:104D5000A887B98716C0A618B708C808D90811C00F
:104D60004E815F81688579858B8D9C8D94010E9431
:104D700016300894A108B108C108D108882331F47D
:104D800010C086E0882E912C8C0E9D1EA114B104BB
:104D9000C104D10429F7EA86FB860C871D8781E0D0
:104DA00001C080E0DF91CF911F910F91FF90EF90B4
:104DB000DF90CF90BF90AF909F908F907F906F903B
:104DC0000895223009F078CFE6CFCF93DF93EC013E
:104DD000462F6E857F85888999890E94FA2D8823C0
:104DE00019F420E030E00AC08A89282F30E095E0ED
:104DF000220F331F9A95E1F72C5D364FC901DF91E1
:104E0000CF9108950F931F93CF93DF938C01FC01F3
:104E100085818823D9F1848187FF35C0C80161E08D
:104E20000E94E526EC01009789F1F8018581823026
:104E300040F483899489A589B6898C8F9D8FAE8F24
:104E4000BF8FF8018789908D9B8F8A8F8789908D7E
:104E5000A18DB28DCD01AA27BB279D8B8C8BE091B4
:104E60002209F0912309309751F0BE016A5E7F4F0D
:104E7000CE0148961995888D998D9B8B8A8BF80168
:104E800084818F7784830E949B2D01C080E0DF9115
:104E9000CF911F910F910895CF93DF93EC010E9462
:104EA0000227882311F01D8281E0DF91CF910895C0
:104EB0006F927F928F929F92AF92BF92CF92DF922A
:104EC000EF92FF920F931F93DF93CF9300D00F9237
:104ED000CDB7DEB77C015A016B01DC0115968C91D0
:104EE0001597813009F08FC014968C9181FF8BC08B
:104EF0009EC00097A105B10511F481E085C0F701BE
:104F00006284738484849584C701B601A5010E94DC
:104F10003C26882309F477C0D7015B968D919C913C
:104F20005C97A114B104C104D10489F457964D9142
:104F30005D916D917C915A970E948930882309F484
:104F400062C0F701178A108E118E128E3DC0D701F4
:104F500016964D915D916D917C9119979E012F5FF1
:104F60003F4F0E941630882309F44DC0D7015B964D
:104F7000ED91FC915C9749815A816B817C81878995
:104F8000803129F088EF9FEFAFEFBFE004C088EFDA
:104F90009FEFA0E0B0E0481759076A077B07A0F42D
:104FA000CF010E948930882371F1F7014681578132
:104FB00060857185838D948D0FEF1FEF2FEF3FE09C
:104FC0000E947A2F8823F9F0D7015396AD92BD92B3
:104FD000CD92DC92569714968C9114978068149613
:104FE0008C93C7010E940227882369F0B601A501AE
:104FF0006A147B048C049D0410F4B401A301C7015E
:105000000E943C2601C080E00F900F900F900F90FF
:10501000CF91DF911F910F91FF90EF90DF90CF9094
:10502000BF90AF909F908F907F906F900895F70101
:1050300083899489A589B68984179507A607B70738
:1050400008F057CFE0CF2F923F924F925F926F922E
:105050007F928F929F92AF92BF92CF92DF92EF9208
:10506000FF920F931F93CF93DF93EC012A018D8161
:10507000882309F4C6C08C8180FFC3C0D8C0250135
:105080004E185F084B0176E0272E312C2C0E3D1E6A
:105090003201B1C02A853B854C855D856FEFA62E18
:1050A00061E0B62EA222B3228D8179018A0199E0B6
:1050B00016950795F794E7949A95D1F7EB8DFC8DAB
:1050C000823049F4428D538D648D758D4E0D5F1D78
:1050D000601F711F3FC0D480DA94DE20A114B10498
:1050E000D9F4DD20C9F4211531054105510549F4F4
:1050F0008F89988DA98DBA8D8E839F83A887B98754
:105100000BC04E815F8168857985CF0191010E9436
:105110001630882309F475C0EB8DFC8D4E815F81BC
:10512000688579854250504060407040058404C0D5
:10513000440F551F661F771F0A94D2F786859785FF
:10514000A089B189480F591F6A1F7B1F4D0D511D42
:10515000611D711D80E092E08A199B09630186152B
:10516000970508F46C018C8186FD06C080E0C816A6
:1051700082E0D80609F073C08091650590916605BC
:10518000A0916705B0916805481759076A077B0722
:1051900009F465C08091240B9091250B950186013F
:1051A00074010E947B24882361F18C0C9D1C12C029
:1051B00095012C5D364FA9014C0D5D1DD401F901FF
:1051C00002C081918D93E417F507D9F7E21BF30B29
:1051D0008E0E9F1E960140E050E08A859B85AC852F
:1051E000BD85820F931FA41FB51F8A879B87AC873D
:1051F000BD876C187D086114710409F04BCFA201C2
:1052000002C04FEF5FEFCA01DF91CF911F910F9165
:10521000FF90EF90DF90CF90BF90AF909F908F90D6
:105220007F906F905F904F903F902F900895AB8844
:10523000BC88CD88DE88EA84FB840C851D859A01B4
:1052400040E050E0D601C5018E199F09A00BB10BBB
:1052500082179307A407B50708F411CF13CFCB012A
:10526000BA0140E00E94FA2D882309F0A1CFC9CFEE
:10527000CF92DF92EF92FF920F931F93DF93CF9322
:105280000F92CDB7DEB76C01FC018581823070F0E2
:10529000E284F38404851585C601BE016F5F7F4FEC
:1052A00041E050E00E942328019769F020E030E0BF
:1052B000C9010F90CF91DF911F910F91FF90EF9057
:1052C000DF90CF900895F60182859385A485B585FA
:1052D0004F96A11DB11D82879387A487B587F5E0FE
:1052E00016950795F794E794FA95D1F78E2D8F7060
:1052F000282F30E0E5E0220F331FEA95E1F72C5D1F
:10530000364FD6CF0F931F93CF93DF93EC018B01D2
:105310008D81882309F041C0FB0187898031B1F478
:1053200082E08D831F8A188E198E1A8E808D918D42
:10533000A0E0B0E045E0880F991FAA1FBB1F4A9567
:10534000D1F78B8B9C8BAD8BBE8B15C0803229F532
:1053500083E08D83FB01428D538D648D758D4F8B62
:10536000588F698F7A8F9E012D5E3F4FC8010E9432
:10537000E230882391F01C8F0B8F81E08C831E829A
:105380001F82188619861A861B861C861D861E8615
:105390001F86188A198A1A8A01C080E0DF91CF918E
:1053A0001F910F9108951F93CF93DF93EC01142F5A
:1053B000E62FF0E075E0EE0FFF1F7A95E1F7EC5D68
:1053C000F64F8385817121F0842F827409F054C0D7
:1053D0006A8B8091650590916605A0916705B091F3
:1053E00068058E879F87A88BB98B84899589A0E0F3
:1053F000B0E0BC0155274427828D938DA0E0B0E03A
:10540000482B592B6A2B7B2B4F8B588F698F7A8FA8
:10541000838590E088719070009751F4848D958D0C
:10542000A68DB78D8B8B9C8BAD8BBE8B81E00CC01A
:10543000409711F59E012D5E3F4F8B8D9C8D0E94F4
:10544000E2308823C9F084E08D83812F8F708C83B4
:105450001E821F82188619861A861B861C861D8648
:1054600016FD02C081E009C0CE0140E050E060E0DE
:1054700070E00E94582701C080E0DF91CF911F911A
:105480000895CF93DF93EC019C012A5F3F4F8B8DF2
:105490009C8D41E050E060E070E00E945131882333
:1054A000A1F08F89988DA98DBA8D0097A105B105BE
:1054B00059F48E819F81A885B9858F8B988FA98F8C
:1054C000BA8F8C8180688C8381E0DF91CF910895C1
:1054D0002F923F924F925F927F928F929F92AF92C4
:1054E000BF92CF92DF92EF92FF920F931F93DF93C1
:1054F000CF9300D000D0CDB7DEB76C01162F072FA9
:105500005E834D83DC0115968C911597813009F0EF
:1055100070C114968C9181FF6CC18EC1F6014389D4
:1055200054896589768982859385A485B585841794
:105530009507A607B70731F0C6010E943C268823CD
:1055400009F457C1812F902F9C0129012D803E80A5
:1055500017C1D6015B96ED91FC915C97DA01C90108
:1055600019E0B695A795979587951A95D1F7748008
:105570007A9478227FEF872E71E0972E82229322F1
:10558000772009F04EC08114910409F04AC0D60179
:1055900016964D915D916D917C911997411551052C
:1055A0006105710581F457968D919D910D90BC9187
:1055B000A02D0097A105B10549F1F60186839783D7
:1055C000A087B1872EC0CF019E012F5F3F4F0E9461
:1055D0001630882309F414C129813A814B815C81FA
:1055E000D6015B96ED91FC915C978789803129F01B
:1055F00088EF9FEFAFEFBFE004C088EF9FEFA0E020
:10560000B0E0281739074A075B0730F0C6010E944F
:10561000412A882331F4EDC0F60126833783408781
:10562000518780E092E0881999095101821593050C
:1056300008F45C01D6015B96ED91FC915C9716969F
:10564000ED90FD900D911C9119978EEF9FEFAFEFAC
:10565000BFEFE80EF91E0A1F1B1F058404C0EE0CE5
:10566000FF1C001F111F0A94D2F786859785A08919
:10567000B189E80EF91E0A1F1B1FE70CF11C011D62
:10568000111D90E0A91692E0B90651F580916505CB
:1056900090916605A0916705B09168058E159F05EC
:1056A000A007B10761F48FEF9FEFAFEFBFEF8093DB
:1056B000650590936605A0936705B0936805809192
:1056C000240B9091250BB801A70192010E941E2482
:1056D000882309F48EC0A0E0B2E04A0E5B1E3EC0F3
:1056E0008114910409F5F601228533854485558599
:1056F00083899489A589B689281739074A075B07E2
:1057000098F00E949B2D882309F473C0E0926505F0
:10571000F092660500936705109368058091260B4B
:1057200081608093260B08C0C801B70141E00E9448
:10573000FA2D882309F45DC094012C5D364FA90130
:105740004A0D5B1DD201F90102C08D918193E417CE
:10575000F507D9F7E21BF30B4E0E5F1E2A183B0824
:10576000950140E050E0F60182859385A485B585DA
:10577000820F931FA41FB51F82879387A487B587C5
:10578000D6011A962D913D914D915C911D97211452
:10579000310409F0DECE53968D919D910D90BC9110
:1057A000A02D82179307A407B50748F4F601238BB1
:1057B000348B458B568B84818068848311C08091A3
:1057C000220990912309892B59F08D819E81892B83
:1057D00039F0D60114968C911497806814968C93A6
:1057E000F601848183FF0EC0C6010E940227882330
:1057F00049F481E090E0D60113969C938E93129722
:105800001E821D828D819E8126960FB6F894DEBF82
:105810000FBECDBFCF91DF911F910F91FF90EF9001
:10582000DF90CF90BF90AF909F908F907F905F90D0
:105830004F903F902F90089582FD70CE83CEDF93DE
:10584000CF930F92CDB7DEB76983BE016F5F7F4FF5
:1058500041E050E00E94682A0F90CF91DF910895B7
:10586000DF92EF92FF920F931F93CF93DF93EC01A0
:105870000E94412A882309F44EC0EB8DFC8DEE80F6
:10588000FF80088519858EEF9FEFAFEFBFEFE80E21
:10589000F91E0A1F1B1F058404C0EE0CFF1C001F0D
:1058A000111F0A94D2F786859785A089B189E80EE1
:1058B000F91E0A1F1B1FD4800894E108F108010992
:1058C00011090BC0C801B7016D0D711D811D911D1E
:1058D0000E94D62D8823F9F0DA94DD2099F7EB8D1C
:1058E000FC8D20E032E040E050E0058404C0220F4F
:1058F000331F441F551F0A94D2F78B899C89AD89A9
:10590000BE89820F931FA41FB51F8B8B9C8BAD8B01
:10591000BE8B81E001C080E0DF91CF911F910F919C
:10592000FF90EF90DF9008956F927F928F929F92F9
:10593000AF92BF92CF92DF92EF92FF920F931F939D
:10594000DF93CF93CDB7DEB72B970FB6F894DEBFBA
:105950000FBECDBF5C016B01822EDC0115968C91D0
:10596000882309F0D2C0CA018E010F5F1F4FB80112
:105970000E94FB25882309F4C8C0F601838D948D0D
:10598000D5015C969C938E935B9716821782108646
:105990001186D6011A961D921D921D921C921D977A
:1059A0009924380141C0C6010E943829FC010097A2
:1059B00009F4ABC085E016950795F794E7948A95AE
:1059C000D1F71E2D1F708081882311F0853ED1F400
:1059D000992091F4D50152961C9352972091650518
:1059E0003091660540916705509168051E962D938C
:1059F0003D934D935C9351978081882399F499242A
:105A0000939421C0C301BF014BE050E00E94673670
:105A1000009751F4882D8073803309F476C0C50156
:105A2000612F6FC099249394F601E284F384048576
:105A3000158583899489A589B689E816F9060A0728
:105A40001B0708F4B0CF882D8271823109F05DC048
:105A5000992041F0C50161E00E94E5268C01009784
:105A600089F453C0D60115968C91823009F44DC04B
:105A7000C6010E94302C882309F447C0F501128A20
:105A800004E219E080E2D8011D928A95E9F7D80175
:105A9000FE0131968BE001900D928150E1F7E0918B
:105AA0002209F0912309309739F0B801625F7F4FE6
:105AB000C8014096199509C081E298E2F801918BDE
:105AC000808B80E098E097878687D80150968D91EB
:105AD0009C91519753969C938E93529759969C9371
