:100000000C94FE030C9473100C94A4100C94D51053
:100010000C9406110C9437110C9468110C949911DE
:100020000C94CA110C942A040C942A040C942A04EB
:100030000C942A040C942A040C942A040C942A0488
:100040000C942A040C942A040C942A040C942A0478
:100050000C942A040C942A040C942A040C942F1255
:100060000C942A040C9457140C9483150C942A04B1
:100070000C942A040C942A040C942A040C942A0448
:100080000C942A040C942A040C942A040C942A0438
:100090000C9490140C94C2150C942A040C942A0409
:1000A0000C942A040C942A040C942A040C942A0418
:1000B0000C942A040C942A040C942A040C942A0408
:1000C0000C942A040C942A040C942A040C94C91449
:1000D0000C9401160C942A040C9402150C944016EE
:1000E0000C942A0400002100240027002A002D007F
:1000F0003000330001010000040107010A01000083
:100100002200250028002B002E00310034000201BF
:100110000000050108010B0100002000230026005B
:1001200029002C002F00320000010000030106010D
:10013000090105050505070508080808020202026D
:100140000A0A080804040404010101010101010173
:100150000303030303030303040707070C0C0C0C3E
:100160000C0C0C0C02020202060606060606060627
:100170000B0B0B0B0B0B0B0B0102102020080810B4
:100180002040102040800201020108040201010207
:1001900004081020408080402010080402018004E0
:1001A000020180402010080402010804020101023B
:1001B0000408102040800102040810204080000044
:1001C000090A02080B0C0D070603040100000000D9
:1001D000000000000000000000000000000000001F
:1001E0000000000000000000000011100F000000DF
:1001F00000000000000000000000000000000000FF
:100200000000000000000000003E5B4F5B3E3E6BC4
:100210004F6B3E1C3E7C3E1C183C7E3C181C577DA0
:10022000571C1C5E7F5E1C00183C1800FFE7C3E7EC
:10023000FF0018241800FFE7DBE7FF30483A060EFE
:100240002629792926407F050507407F05253F5A45
:100250003CE73C5A7F3E1C1C08081C1C3E7F1422B5
:100260007F22145F5F005F5F06097F017F00668960
:10027000956A606060606094A2FFA29408047E04A6
:100280000810207E201008082A1C08081C2A0808CC
:100290001E101010100C1E0C1E0C30383E3830068C
:1002A0000E3E0E06000000000000005F0000000788
:1002B000000700147F147F14242A7F2A12231308B6
:1002C000646236495620500008070300001C224192
:1002D000000041221C002A1C7F1C2A08083E080836
:1002E00000807030000808080808000060600020E6
:1002F000100804023E5149453E00427F40007249C9
:100300004949462141494D331814127F102745456C
:1003100045393C4A49493141211109073649494982
:1003200036464949291E00001400000040340000F0
:100330000008142241141414141400412214080259
:10034000015909063E415D594E7C1211127C7F49CC
:100350004949363E414141227F4141413E7F494921
:1003600049417F090909013E414151737F0808084D
:100370007F00417F41002040413F017F081422411E
:100380007F404040407F021C027F7F0408107F3E78
:100390004141413E7F090909063E4151215E7F09E5
:1003A000192946264949493203017F01033F40404C
:1003B000403F1F2040201F3F4038403F6314081437
:1003C0006303047804036159494D43007F4141416F
:1003D0000204081020004141417F04020102044050
:1003E00040404040000307080020545478407F28D4
:1003F0004444383844444428384444287F385454CA
:10040000541800087E090218A4A49C787F080404EC
:100410007800447D40002040403D007F102844008B
:1004200000417F40007C047804787C08040478381C
:1004300044444438FC1824241818242418FC7C084C
:10044000040408485454542404043F44243C4040C9
:10045000207C1C2040201C3C4030403C442810287C
:10046000444C9090907C4464544C440008364100C5
:100470000000770000004136080002010204023C3F
:100480002623263C1EA1A161123A4040207A38540E
:100490005455592155557941215454784121555489
:1004A000784020545579400C1E52721239555555DA
:1004B00059395454545939555454580000457C41C5
:1004C0000002457D420001457C40F0292429F0F0DE
:1004D000282528F07C545545002054547C547C0A2F
:1004E000097F4932494949323248484832324A48FC
:1004F00048303A4141217A3A42402078009DA0A0FC
:100500007D39444444393D4040403D3C24FF24244F
:10051000487E4943662B2FFC2F2BFF0929F620C06C
:10052000887E090320545479410000447D413048BD
:10053000484A32384040227A007A0A0A727D0D1900
:10054000317D2629292F28262929292630484D4062
:1005500020380808080808080808382F10C8ACBA5E
:100560002F102834FA00007B000008142A142222DD
:10057000142A1408AA005500AAAA55AA55AA0000D0
:1005800000FF00101010FF00141414FF001010FFE3
:1005900000FF1010F010F0141414FC001414F700F5
:1005A000FF0000FF00FF1414F404FC141417101FC4
:1005B00010101F101F1414141F00101010F0000052
:1005C00000001F101010101F10101010F01000006D
:1005D00000FF101010101010101010FF100000007D
:1005E000FF140000FF00FF00001F10170000FC04B4
:1005F000F414141710171414F404F40000FF00F797
:1006000014141414141414F700F7141414171410F9
:10061000101F101F141414F4141010F010F0000028
:100620001F101F0000001F14000000FC140000F049
:1006300010F01010FF10FF141414FF141010101FEE
:1006400000000000F010FFFFFFFFFFF0F0F0F0F0FF
:10065000FFFFFF0000000000FFFF0F0F0F0F0F381C
:10066000444438447C2A2A3E147E02020606027E56
:10067000027E0263554941633844443C04407E2075
:100680001E2006027E020299A5E7A5991C2A492A86
:100690001C4C7201724C304A4D4D30304878483015
:1006A000BC625A463D3E494949007E0101017E2A0D
:1006B0002A2A2A2A44445F444440514A4440404440
:1006C0004A51400000FF0103E080FF000008086B72
:1006D0006B083612362436060F090F06000018186C
:1006E0000000001010003040FF0101001F01011E3A
:1006F00000191D1712003C3C3C3C00000000000F9C
:100700000180961180FFB103012C2DB203012C2D25
:10071000B306012C2D012C2DB40107C003A20284C5
:10072000C101C5C2020A00C3028A2AC4028AEEC5F8
:10073000010E20003601C83A0105022A0400020019
:10074000812B04000100A0022A040000007F2B047A
:100750000000009F04E010021C07123732292D29E7
:10076000252B3900010310E110031D07062E2C294B
:100770002D2E2E373F0000021013800A29806412AC
:100780000180321180FF3A81050AB1830006030A15
:10079000360108B6021502B40100C08202700AC117
:1007A0000105C2020102C5823C380AFC021115E0B3
:1007B0001009160920211B131917151E2B040502F9
:1007C0000EE1900B14081E221D181E1B1A242B0666
:1007D00006020F0A2A04000200812B040002008195
:1007E00013800A2980FF7C3C3E5E2B3D3F2F5B5DE2
:1007F0003B2C2A225C002C04AA17F92211241FBECC
:10080000CFEFD1E2DEBFCDBF00E00CBF15E0A0E02E
:10081000B2E0E4EAFBE700E00BBF02C007900D92F4
:10082000A23DB107D9F71BE0A2EDB5E001C01D92D2
:10083000AD33B107E1F717E0CCEFD7E004C0229762
:10084000FE010E94CC3DC63FD107C9F70E94C818DF
:100850000C94353A0C94000083ED95E066E047E097
:1008600028E00E94D82210920806109209061092E1
:100870000A0610920B0610920C0610920D061092AA
:100880000E0610920F06109210061092110610928A
:10089000120610921306109214061092150610926A
:1008A0001606109217060E94771260931B0670932B
:1008B0001C0680931D0690931E0608959091D20504
:1008C00080917005981711F40E943D0A0895909147
:1008D000D20580917005981711F40E94310A08958D
:1008E000EF92FF920F931F93CF93DF93EC017B0165
:1008F00080E00E94FB112091CB043091CC048C014C
:10090000021B130B81E00E94FB112091CD0430915A
:10091000CE04821B930B9C01C8010496099710F426
:1009200000E010E0C9010496099710F420E030E0DF
:10093000C80160E870E00E947A3D79836883C9014C
:1009400060E870E00E947A3DF701718360830E9445
:1009500077127B018C0180911B0690911C06A0915F
:100960001D06B0911E06E816F9060A071B0740F49B
:10097000E0921B06F0921C0600931D0610931E06C3
:100980008091CF049091D004A091D104B091D20471
:1009900020911B0630911C0640911D0650911E06A9
:1009A000820F931FA41FB51F8E159F05A007B107C7
:1009B00010F080E019C0E0921B06F0921C06009334
:1009C0001D0610931E0684E00E94261420E0892B49
:1009D00009F421E080911A06882321F080E0222387
:1009E00009F481E020931A06DF91CF911F910F91B6
:1009F000FF90EF90089584E060E00E94401384E04F
:100A000061E00E94F31381E00E94FB119093CC04FB
:100A10008093CB0480E00E94FB119093CE048093DE
:100A2000CD04089585EE98E065E00E945D25882359
:100A300029F50F920F9280E092E0EDB7FEB7928316
:100A400081830E94BA0988E192E0EDB7FEB79283F4
:100A500081830E94BA098CE292E0EDB7FEB79283DF
:100A600081830E94BA0984E492E0EDB7FEB79283D5
:100A700081830E94BA090F900F90FFCF0F920F92BF
:100A80008DE792E0EDB7FEB7928381830E94BA09A9
:100A90000F900F9008950F931F9303ED15E0C80179
:100AA00061E00E94AA22C80160E00E944B21C801B7
:100AB00060E070E040E050E00E94BE1EC80160E0CF
:100AC00070E00E94CA1EC80161E00E94C41EC801F5
:100AD0006FE170E00E94B8201F910F910895EF928E
:100AE000FF920F931F93CF93DF93EC018091180631
:100AF000909119068C179D0789F1D0931906C09320
:100B0000180683ED95E060E070E044E950E020E8ED
:100B100030E00CE010E0E0EEEE2EE7E0FE2E0E946A
:100B2000D32083ED95E061E00E94C41E83ED95E043
:100B30006FE178EF0E94CA1E83ED95E060E070E0FF
:100B400046E950E00E94BE1E83ED95E061E00E9400
:100B5000C41E83ED95E0BE010E94141ADF91CF916F
:100B60001F910F91FF90EF9008958CE892E00E9402
:100B70006F0508958F929F92AF92BF92CF92DF92AE
:100B8000EF92FF920F931F93DF93CF93CDB7DEB712
:100B900028970FB6F894DEBF0FBECDBF8DB79EB7B6
:100BA0004091390B50913A0B4115510511F09A01C2
:100BB00004C02091C5043091C6046091C9047091AD
:100BC000CA04821B930B8617970730F52DB73EB7E3
:100BD0004115510521F44091C5045091C60400D03F
:100BE00000D0EDB7FEB731968DE892E0ADB7BEB755
:100BF00012969C938E931197241B350B338322837B
:100C0000758364830E94BA09EDB7FEB736960FB6B6
:100C1000F894FEBF0FBEEDBF8091FF05882311F44D
:100C2000992404C01092FF05992493941A82198282
:100C30001C821B82F894909170058091D2058824C3
:100C4000981711F0882483947894882009F441C07F
:100C500030911F06809170053817E9F020917005DA
:100C600000D000D0EDB7FEB731968EE992E0ADB777
:100C7000BEB712969C938E9311973283138224836E
:100C800015820E94BA09EDB7FEB736960FB6F894F2
:100C9000FEBF0FBEEDBF0E94120C40917605509131
:100CA00077055695479580912406909125062091C9
:100CB00078053091790536952795609126067091D3
:100CC0002706621B730B841B950B0E94650A9924EF
:100CD0009394CE010196BE016D5F7F4F0E94700418
:100CE000D82E89819A81892B29F48B819C81892B2B
:100CF00009F457C0E0902006F090210600912206EA
:100D000010912306CE010596BE01695F7F4F0E94B8
:100D1000490A882309F445C08D819E818A30910556
:100D200048F4E0902006F090210680EE9FEFE80E58
:100D3000F91E0DC08637910510F420E009C0E0903F
:100D40002006F0902106A0E2B0E0EA0EFB1E21E0B2
:100D50008F8198858A30910538F400912206109190
:100D60002306005210400CC08637910538F00091E0
:100D7000220610912306005E1F4F02C0222339F085
:100D8000C701B8010E94650A992493940AC00E9481
:100D9000980A6B817C8189819A810E941A0D0E9438
:100DA000040BDD2009F478C1EDB7FEB73A970FB612
:100DB000F894FEBF0FBEEDBF319685EB92E0ADB764
:100DC000BEB712969C938E93119780912C069091AA
:100DD0002D06A0912E06B0912F0682839383A483C3
:100DE000B5838091280690912906A0912A06B0919A
:100DF0002B0686839783A087B1870E94BA09A090AB
:100E00002806B0902906C0902A06D0902B06E090C4
:100E10002C06F0902D0600912E0610912F06EDB7AE
:100E2000FEB73A960FB6F894FEBF0FBEEDBF8091A5
:100E3000060690910706892BE1F58DB79EB70A97B4
:100E40000FB6F8949EBF0FBE8DBFEDB7FEB73196BB
:100E500084ED92E0ADB7BEB712969C938E93119736
:100E6000A282B382C482D582E682F782008711878C
:100E70000E94BA09E0920C06F0920D0600930E064D
:100E800010930F06A0920806B0920906C0920A06B7
:100E9000D0920B0681E090E09093070680930606BF
:100EA000EDB7FEB73A960FB6F894FEBF0FBEEDBF92
:100EB000F3C08DB79EB70A970FB6F8949EBF0FBECA
:100EC0008DBFEDB7FEB7319680EF92E0ADB7BEB7FC
:100ED00012969C938E931197A282B382C482D5827C
:100EE000E682F782008711870E94BA09E092140611
:100EF000F09215060093160610931706A09210069E
:100F0000B0921106C0921206D092130610920706F4
:100F100010920606EDB7FEB738960FB6F894FEBFEE
:100F20000FBEEDBF8AE093E0928381830E94BA09ED
:100F30000F900F90209108063091090640910A0603
:100F400050910B0660910C0670910D0680910E0673
:100F500090910F06A0901006B0901106C090120656
:100F6000D0901306E0901406F09015060091160636
:100F7000109117060E94EA0E8C0100D00F928BE1AF
:100F800093E0ADB7BEB712969C938E9311971496CB
:100F90001C930E9313970E94BA090F900F900F9015
:100FA0000F90101611060CF077C0809100069091FA
:100FB00001068017910728F4909303068093020698
:100FC00004C010930306009302064091000650915E
:100FD00001068091040690910506B8010E94EE0D6D
:100FE00097FD5CC00F920F928FE293E0EDB7FEB7D2
:100FF000928381830E94BA0900E010E0EE24FF246E
:101000000F900F90F5E4CF2EF3E0DF2E3CC020913F
:101010000406309105062E0D3F1D8DB79EB70C9727
:101020000FB6F8949EBF0FBE8DBFEDB7FEB73196D9
:10103000ADB7BEB71296DC92CE921197138302839E
:10104000D90114964D915D916D917C9117974483D0
:101050005583668377832D913D914D915C912087D7
:101060003187428753870E94BA090F5F1F4FE8E01C
:10107000F0E0EE0EFF1E8DB79EB70C960FB6F894FB
:101080009EBF0FBE8DBF8091020690910306081788
:10109000190708F4BCCF02C09920F1F00E94D50ACC
:1010A0000E94040B0E94B5058820B1F0F89480914D
:1010B0001F06809370058093D20578940F920F924B
:1010C00081E593E0ADB7BEB712969C938E931197CE
:1010D0000E94BA090F900F90809106069091070622
:1010E000892B19F481E693E002C087E693E00E9421
:1010F0006F0528960FB6F894DEBF0FBECDBFCF9117
:10110000DF911F910F91FF90EF90DF90CF90BF90F4
:10111000AF909F908F900895CF92DF92EF92FF92C1
:101120000F931F93CF93DF9389E698E040E855E251
:1011300060E070E00E947F1689E698E06BE673E05D
:101140000E94141A89E698E00E945F170E944B05DE
:101150000E9412050E94FB040E940C0AC0901F0608
:10116000CC2DD0E074E0CC0FDD1F7A95E1F760E183
:10117000C62E65E0D62ECC0EDD1EFE01EC5EFA4FCB
:10118000D6011C966D917D918D919C911F97208128
:10119000318142815381620F731F841F951F22E0AA
:1011A00030E040E050E00E94AF3D79018A01C85E26
:1011B000DA4F688179818A819B81F60120813181B2
:1011C00042815381620F731F841F951F22E030E01C
:1011D00040E050E00E94AF3DC801B7010E94B70B4C
:1011E0008091760590917705969587954091200698
:1011F00050912106609178057091790576956795F3
:101200002091220630912306620F731F840F951FD1
:101210000E94CA0C81E08093FF0582E060E00E949A
:10122000401382E061E00E94F31383E060E00E94DB
:10123000401383E061E00E94F31381E067E674E00D
:1012400042E050E00E94F70F80E06EE574E042E07B
:1012500050E00E94F70F68EE73E080E090E00E949B
:10126000851284E690E090930106809300068DB786
:101270009EB72091390B30913A0B2115310511F0B1
:10128000A90104C04091C5045091C6046091C904ED
:101290007091CA04841B950B861B970B8052934058
:1012A000B0F48DB79EB72115310521F42091C50406
:1012B0003091C604821B930B861B970B03E0969517
:1012C00087950A95E1F79093010680930006809137
:1012D00000069091010613E0880F991F1A95E1F717
:1012E0000E94D137809304069093050600D00F9298
:1012F00087E793E0ADB7BEB712969C938E93119794
:10130000809100069091010614969C938E931397FA
:101310000E94BA0910920306109202064DB75EB7FA
:101320002091390B30913A0B0F900F900F900F9046
:101330002115310521F42091C5043091C60400D057
:101340000F9288E893E0EDB7FEB792838183421B4A
:10135000530B548343830E94BA090F900F900F9050
:101360000F90DF91CF911F910F91FF90EF90DF9041
:10137000CF900895CF92DF92EF92FF920F931F9339
:10138000DF93CF93CDB7DEB7EDB6FEB6CEB6809184
:10139000D304882359F18DB79EB7805091400FB682
:1013A000F8949EBF0FBE8DBF0DB71EB70F5F1F4FC6
:1013B000FE013E96C80160E071E04C855D859F01AD
:1013C0000E94673A89E698E064E973E00E94111A86
:1013D00089E698E0B8010E94141A2E2D3C2DC9010F
:1013E0000FB6F8949EBF0FBE8DBF08C08DB79EB7D5
:1013F0009C010FB6F8943EBF0FBE2DBF0FB6F894F8
:10140000FEBE0FBEEDBECF91DF911F910F91FF90F9
:10141000EF90DF90CF900895109228061092290641
:1014200010922A0610922B0610922C0610922D066E
:1014300010922E0610922F06109225061092240666
:10144000109227061092260610922106109220066E
:1014500010922306109222068091700580931F0639
:10146000089580917005853028F4809170058F5F14
:101470008093700580917005089580917005882390
:1014800029F08091700581508093700580917005DE
:101490000895FC01DB01809124069091250620919E
:1014A000200630912106821B930B918380838091CB
:1014B0002606909127062091220630912306821B52
:1014C000930B8D939C9381E0089597FF03C0E0E018
:1014D000F0E010C0E0911F06F0E0EE0FFF1FEC52AD
:1014E000FB4F0190F081E02DE058F0408E179F07F0
:1014F00008F4FC01F0932106E093200677FF03C077
:1015000060E070E010C0E0911F06F0E0EE0FFF1FFA
:10151000E052FB4F0190F081E02DE05AF040E617D9
:10152000F70708F4BF01709323066093220608951D
:10153000AF92BF92CF92DF92EF92FF920F931F93E1
:101540004091240650912506425050402091260695
:10155000309127062250304080911F0666E0869F1A
:10156000C001112460912006709121068A01061B9A
:10157000170B60912206709123067901E61AF70A8B
:1015800084519B4F63ED75E0F5E0CF2ED12CE5E063
:10159000AE2EB12C0E9440351F910F91FF90EF901D
:1015A000DF90CF90BF90AF900895AF92BF92CF924F
:1015B000DF92EF92FF920F931F9380911F0626E018
:1015C000829FC00111244091200650912106209154
:1015D00022063091230684519B4F63ED75E000E0B5
:1015E00010E0EE24FF24B0E8CB2ED12CA0EAAA2EE6
:1015F000B12C0E9440351F910F91FF90EF90DF902A
:10160000CF90BF90AF9008950F931F9360912406E1
:10161000709125068091200690912106681B790B18
:10162000409126065091270680912206909123062C
:10163000481B590B83ED95E022E030E000E018EF05
:101640000E94BB1B1F910F910895AF92BF92CF9242
:10165000DF92EF92FF920F931F935A016B01A82F15
:10166000BB27A7FDB09500D00F9260E175E0FD01AA
:1016700084E0EE0FFF1F8A95E1F7E60FF71F208148
:10168000318142815381AA0FBB1FCD01019613E026
:10169000880F991F1A95E1F7680F791FFB01E08009
:1016A000F18002811381A052BB4F8D919C91A0E0EB
:1016B000B0E0EDB7FEB781839283A383B483C60104
:1016C000B501AA24BB2465010E94271A0F900F9030
:1016D0000F900F901F910F91FF90EF90DF90CF90A0
:1016E000BF90AF900895AF92BF92CF92DF92EF92EA
:1016F000FF920F931F935A016B01A82FBB27A7FDE1
:10170000B09500D00F92FD0104E0EE0FFF1F0A9587
:10171000E1F780E195E0E80FF91F248135814681EA
:101720005781E484F58406851785AA0FBB1FAC5248
:10173000BB4F8D919C91A0E0B0E0EDB7FEB78183E7
:101740009283A383B483C601B501AA24BB24650197
:101750000E94271A0F900F900F900F901F910F91DA
:10176000FF90EF90DF90CF90BF90AF900895AF9231
:10177000BF92CF92DF92EF92FF920F931F937B0164
:101780008C0159016A0180911F06B801A7010E94CE
:10179000730B709321066093200680911F06B6019B
:1017A000A5010E94250B209120063091210637FFCC
:1017B00003C0E0E0F0E010C0E0911F06F0E0EE0FA3
:1017C000FF1FEC52FB4F0190F081E02DE058F040FC
:1017D0002E173F0708F4F901F0932106E093200645
:1017E00077FF03C060E070E010C0E0911F06F0E0FA
:1017F000EE0FFF1FE052FB4F0190F081E02DE05A09
:10180000F040E617F70708F4BF01709323066093D2
:1018100022061F910F91FF90EF90DF90CF90BF9025
:10182000AF9008958091700580931F06409128061F
:101830005091290660912A0670912B060E94730B25
:10184000709325066093240640912C0650912D0636
:1018500060912E0670912F0680911F060E94250B25
:10186000709327066093260680911F060895AF9215
:10187000BF92CF92DF92EF92FF920F931F93A82F08
:10188000BB27A7FDB09500D00F92CD01880F991FFF
:10189000FC01E052FB4FE080F18000E010E0E0E16D
:1018A000F5E034E0AA0FBB1F3A95E1F7AE0FBF1F7A
:1018B000AD90BD90CD90DC90019623E0880F991FEC
:1018C0002A95E1F7E80FF91F80819181A281B38108
:1018D000EDB7FEB781839283A383B483CB01BA01B2
:1018E00020E030E040E050E00E94271A0F900F9077
:1018F0000F900F901F910F91FF90EF90DF90CF907E
:10190000BF90AF900895AF92BF92CF92DF92EF92C7
:10191000FF920F931F93992787FD909500D00F9208
:10192000FC01EE0FFF1FEC52FB4FE080F18000E066
:1019300010E0B4E0880F991FBA95E1F7E0E1F5E017
:10194000DF01A80FB91F1496AD90BD90CD90DC902B
:101950001797E80FF91F84859585A685B785EDB79C
:10196000FEB781839283A383B483CB01BA0120E0C5
:1019700030E040E050E00E94271A0F900F900F9047
:101980000F901F910F91FF90EF90DF90CF90BF903D
:10199000AF90089597FF03C080E090E00EC0E09103
:1019A0001F06F0E0EE0FFF1FEC52FB4F0190F0819D
:1019B000E02DE817F90708F4CF01909325068093EE
:1019C000240677FF03C060E070E00EC0E0911F06C0
:1019D000F0E0EE0FFF1FE052FB4F0190F081E02D91
:1019E000E617F70708F4BF017093270660932606F1
:1019F000AC0160E070E080911F060E94830C609350
:101A000028067093290680932A0690932B0640910E
:101A100026065091270660E070E080911F060E9424
:101A2000370C60932C0670932D0680932E069093AE
:101A30002F060895409124065091250620912606F0
:101A400030912706260F371F840F951FB9010E947A
:101A5000CA0C0895EF92FF920F931F93CF93DF93D9
:101A6000EC0160E070E04AE050E00E9406397B0142
:101A70008C01611571058105910551F52091370B98
:101A80003091380B2232310519F500D000D0EDB776
:101A9000FEB7319683ED93E0ADB7BEB712969C9337
:101AA0008E93119733832283D583C4830E94BA090E
:101AB0008DB79EB706960FB6F8949EBF0FBE8DBF2A
:101AC0006091370B7091380B80E090E00E948A1A89
:101AD000B701C801DF91CF911F910F91FF90EF9057
:101AE00008954F925F926F927F928F929F92BF92D2
:101AF000CF92DF92EF92FF920F931F93CF93DF93DA
:101B00004B016A01290138017C01E60EF71E00E055
:101B100010E0E801C80DD91DF701B080BB2099F095
:101B2000C201801B910B0297A0F06B2D772767FDF8
:101B30007095C3010E944D3A0F5F1F4F0894E11C3E
:101B4000F11C009711F0219604C0F601B1926F01CB
:101B5000E0CFF6011082CE01DF91CF911F910F915E
:101B6000FF90EF90DF90CF90BF909F908F907F90ED
:101B70006F905F904F900895EF92FF920F931F9395
:101B8000CF93DF938C017B01C0E0D0E00894E108A3
:101B9000F10815C089E698E00E940517892BD1F35A
:101BA00089E698E00E943617F801EC0FFD1F80834C
:101BB0008D3041F08A3031F0882321F02196CE1506
:101BC000DF0540F30C0F1D1FF8011082CE01DF91DD
:101BD000CF911F910F91FF90EF9008952F923F9218
:101BE0004F925F926F927F928F929F92AF92BF922D
:101BF000CF92DF92EF92FF920F931F93DF93CF93D9
:101C0000CDB7DEB76A970FB6F894DEBF0FBECDBF73
:101C1000F82EE92E3B018A012DB73EB73A8F298F66
:101C20008DB79EB7845690400FB6F8949EBF0FBEF6
:101C30008DBF8DB69EB60894811C911C00D000D03B
:101C4000EDB7FEB7319681E094E0ADB7BEB712961E
:101C50009C938E93119773836283558344830E9470
:101C6000BA09EDB7FEB736960FB6F894FEBF0FBEB1
:101C7000EDBF1614170414F417FF1EC000D000D0D7
:101C8000EDB7FEB731968CE294E0ADB7BEB71296D1
:101C90009C938E93119773826282158304830E94B2
:101CA000BA092FEF3FEFEDB7FEB736960FB6F894AF
:101CB000FEBF0FBEEDBF6DC024018F2D9E2D9C0178
:101CC0006901AA24BB248DE0282E312C2C0E3D1E48
:101CD00089E698E064E474E00E94111A89E698E0CD
:101CE00066E474E00E94141A89E698E00E940517E1
:101CF000892BD1F3C20164E670E00E94BC0D7C0127
:101D0000D4018C91873551F511968C918032A1F5D3
:101D1000C20162E070E0AE014F5F5F4F97010FEFCD
:101D200013E00E94710DBC01C201A10197010E9444
:101D3000710DC1010E942A0D7B018C01CE0101961B
:101D40000E942A0DF6016483758386839783D601EA
:101D5000ED92FD920D931C9313970EC0853461F4A0
:101D60000F920F9227E434E0EDB7FEB73283218360
:101D70000E94BA090F900F900894A11CB11C88E032
:101D800090E0C80ED91EA614B7040CF4A1CF20E031
:101D900030E0C901A98DBA8D0FB6F894BEBF0FBE51
:101DA000ADBF6A960FB6F894DEBF0FBECDBFCF9120
:101DB000DF911F910F91FF90EF90DF90CF90BF9038
:101DC000AF909F908F907F906F905F904F903F90DB
:101DD0002F9008952F923F924F925F926F927F9231
:101DE0008F929F92AF92BF92CF92DF92EF92FF922B
:101DF0000F931F93DF93CF93CDB7DEB764970FB6E2
:101E0000F894DEBF0FBECDBF29833A834B835C833A
:101E10006D837E838F839887A986BA86CB86DC867E
:101E2000ED86FE860F87188B2DB73EB73C8B2B8B2C
:101E3000ED80FE800F811885A980BA80CB80DC8080
:101E40006D847E848F84988829843A844B845C8452
:101E50008DB79EB7845690400FB6F8949EBF0FBEC4
:101E60008DBFADB7BEB71196BA8BA98BEDB7FEB7D4
:101E700072970FB6F894FEBF0FBEEDBF319688E59E
:101E800094E0ADB7BEB712969C938E931197E28201
:101E9000F38204831583A682B782C086D1866286C8
:101EA00073868486958626863786408A518A0E9464
:101EB000BA09EDB7FEB772960FB6F894FEBF0FBE23
:101EC000EDBF89E698E066E874E00E94111A89E6A1
:101ED00098E0B801A7012AE030E00E94B21989E633
:101EE00098E06FEF73E00E94111A89E698E0B6015E
:101EF000A5012AE030E00E94B21989E698E06FEF70
:101F000073E00E94111A89E698E0B401A3012AE067
:101F100030E00E94B21989E698E06FEF73E00E940A
:101F2000111A89E698E0B201A1012AE030E00E948E
:101F3000B21989E698E066E474E00E94141A89E612
:101F400098E00E940517892BD1F389899A8964E664
:101F500070E00E94BC0DAC01425050402DB73EB71E
:101F6000241B350B0FB6F8943EBF0FBE2DBF6DB7C7
:101F70007EB76F5F7F4FA989BA898C918E34B1F497
:101F800011968C911197803289F420E030E01296FE
:101F9000FB01E20FF31F04C08D9181932F5F3F4F30
:101FA00024173507C8F3CB010E942A0DCB01EB891A
:101FB000FC890FB6F894FEBF0FBEEDBF64960FB656
:101FC000F894DEBF0FBECDBFCF91DF911F910F916F
:101FD000FF90EF90DF90CF90BF90AF909F908F9049
:101FE0007F906F905F904F903F902F900895883032
:101FF00008F078C0E82FF0E0EE0FFF1FE05DF94F2A
:10200000718360838330D9F0843030F4813009F4F7
:1020100044C0823060F439C0853051F18530D8F049
:10202000863009F446C0873009F05CC04FC080910B
:1020300069008C7F842B80936900E89A08958091D1
:102040006900440F551F440F551F837F842B8093D5
:102050006900E99A08958091690074E0440F551F62
:102060007A95E1F78F7C842B80936900EA9A089532
:102070008091690066E0440F551F6A95E1F78F7300
:10208000842B80936900EB9A089580916A008C7F7D
:10209000842B80936A00EC9A089580916A00440F23
:1020A000551F440F551F837F842B80936A00ED9A40
:1020B000089580916A0024E0440F551F2A95E1F7A6
:1020C0008F7C842B80936A00EE9A089580916A0039
:1020D00096E0440F551F9A95E1F78F73842B8093F8
:1020E0006A00EF9A08951F920F920FB60F920BB6E7
:1020F0000F9211242F933F934F935F936F937F938E
:102100008F939F93AF93BF93EF93FF938091340688
:1021100090913506892B29F0E0913406F09135062F
:102120001995FF91EF91BF91AF919F918F917F9101
:102130006F915F914F913F912F910F900BBE0F9038
:102140000FBE0F901F9018951F920F920FB60F920F
:102150000BB60F9211242F933F934F935F936F937E
:102160007F938F939F93AF93BF93EF93FF93809150
:10217000360690913706892B29F0E0913606F091CA
:1021800037061995FF91EF91BF91AF919F918F9174
:102190007F916F915F914F913F912F910F900BBE67
:1021A0000F900FBE0F901F9018951F920F920FB6B1
:1021B0000F920BB60F9211242F933F934F935F937F
:1021C0006F937F938F939F93AF93BF93EF93FF93FF
:1021D0008091380690913906892B29F0E0913806D4
:1021E000F09139061995FF91EF91BF91AF919F91B1
:1021F0008F917F916F915F914F913F912F910F90B0
:102200000BBE0F900FBE0F901F9018951F920F924C
:102210000FB60F920BB60F9211242F933F934F934B
:102220005F936F937F938F939F93AF93BF93EF933E
:10223000FF9380913A0690913B06892B29F0E0911B
:102240003A06F0913B061995FF91EF91BF91AF913E
:102250009F918F917F916F915F914F913F912F91BE
:102260000F900BBE0F900FBE0F901F9018951F92EE
:102270000F920FB60F920BB60F9211242F933F932C
:102280004F935F936F937F938F939F93AF93BF937E
:10229000EF93FF938091300690913106892B29F0BE
:1022A000E0913006F09131061995FF91EF91BF91C1
:1022B000AF919F918F917F916F915F914F913F91DE
:1022C0002F910F900BBE0F900FBE0F901F9018957F
:1022D0001F920F920FB60F920BB60F9211242F93ED
:1022E0003F934F935F936F937F938F939F93AF939E
:1022F000BF93EF93FF938091320690913306892B21
:1023000029F0E0913206F09133061995FF91EF9193
:10231000BF91AF919F918F917F916F915F914F91FD
:102320003F912F910F900BBE0F900FBE0F901F90FB
:1023300018951F920F920FB60F920BB60F921124A1
:102340002F933F934F935F936F937F938F939F93BD
:10235000AF93BF93EF93FF9380913C0690913D061E
:10236000892B29F0E0913C06F0913D061995FF91EB
:10237000EF91BF91AF919F918F917F916F915F91FD
:102380004F913F912F910F900BBE0F900FBE0F906A
:102390001F9018951F920F920FB60F920BB60F92C7
:1023A00011242F933F934F935F936F937F938F935A
:1023B0009F93AF93BF93EF93FF9380913E069091CD
:1023C0003F06892B29F0E0913E06F0913F061995D2
:1023D000FF91EF91BF91AF919F918F917F916F91FD
:1023E0005F914F913F912F910F900BBE0F900FBEB9
:1023F0000F901F901895382F863308F03653209190
:102400007B00832F86958695869590E081709070ED
:1024100043E0880F991F4A95E1F7277F282B2093E7
:102420007B003770809171058295880F880F807CC2
:10243000832B80937C0080917A00806480937A0063
:1024400080917A0086FDFCCF209178004091790040
:10245000942F80E030E0282B392BC90108951F927A
:102460000F920FB60F9211242F933F938F939F9348
:10247000AF93BF938091440690914506A091460684
:10248000B0914706309148060196A11DB11D232F3A
:102490002D5F2D3720F02D570196A11DB11D2093E2
:1024A00048068093440690934506A0934606B09351
:1024B00047068091400690914106A0914206B09156
:1024C00043060196A11DB11D8093400690934106DD
:1024D000A0934206B0934306BF91AF919F918F9115
:1024E0003F912F910F900FBE0F901F9018958FB7AF
:1024F000F89420914406309145064091460650914B
:1025000047068FBFB901CA0108959B01AC017FB78F
:10251000F8948091400690914106A0914206B091B6
:10252000430666B5A89B05C06F3F19F00196A11D33
:10253000B11D7FBFBA2FA92F982F8827860F911D15
:10254000A11DB11D62E0880F991FAA1FBB1F6A95CC
:10255000D1F7BC012DC0FFB7F8948091400690914F
:102560004106A0914206B0914306E6B5A89B05C07E
:10257000EF3F19F00196A11DB11DFFBFBA2FA92F82
:10258000982F88278E0F911DA11DB11DE2E0880FA5
:10259000991FAA1FBB1FEA95D1F7861B970B885E70
:1025A0009340C8F2215030404040504068517C4F29
:1025B000211531054105510571F60895789484B5CA
:1025C000826084BD84B5816084BD85B5826085BD2F
:1025D00085B5816085BDEEE6F0E080818160808315
:1025E000E1E8F0E0108280818260808380818160F8
:1025F0008083E0E8F0E0808181608083E1EBF0E0BF
:10260000808184608083E0EBF0E080818160808362
:10261000E1E9F0E080818260808380818160808355
:10262000E0E9F0E0808181608083E1EAF0E0808190
:1026300082608083808181608083E0EAF0E0808135
:1026400081608083E1E2F1E080818260808380812B
:1026500081608083E0E2F1E0808181608083EAE74D
:10266000F0E08081846080838081826080838081CB
:10267000816080838081806880831092C10008958A
:10268000CF93DF93482F50E0CA0188589E4FFC013A
:1026900034914E5C5E4FFA018491882369F190E099
:1026A000880F991FFC01EC51FF4FA591B491FC01DB
:1026B000E250FF4FC591D491662351F42FB7F8949F
:1026C0008C91932F909589238C93888189230BC0BB
:1026D000623061F42FB7F8948C91932F90958923F1
:1026E0008C938881832B88832FBF06C09FB7F89473
:1026F0008C91832B8C939FBFDF91CF91089589306C
:1027000009F449C08A30A0F4843051F1853040F496
:10271000823079F1833000F5813009F063C026C042
:10272000873079F1883098F5863009F05BC025C094
:102730008D3009F442C08E3028F48B30B1F18C30EA
:10274000C0F52DC0803109F442C0813109F445C083
:102750008F3009F047C037C0809180008F7703C069
:10276000809180008F7D80938000089584B58F775D
:1027700002C084B58F7D84BD08958091B0008F77AD
:1027800003C08091B0008F7D8093B0000895809148
:1027900090008F7707C0809190008F7D03C080915B
:1027A0009000877F8093900008958091A0008F779C
:1027B00007C08091A0008F7D03C08091A000877F1B
:1027C0008093A0000895809120018F7703C08091AD
:1027D00020018F7D80932001089580912001877FC3
:1027E000809320010895FF920F931F93F62E482F98
:1027F00050E0CA0182549E4FFC012491CA018858BE
:102800009E4FFC0114914E5C5E4FFA01049100232F
:10281000C9F0222319F0822F0E947F13E02FF0E0ED
:10282000EE0FFF1FE250FF4FA591B4919FB7F894B0
:10283000FF2021F48C911095812302C08C91812B73
:102840008C939FBF1F910F91FF9008950F931F933B
:10285000482F50E0CA0182549E4FFC012491CA01C6
:1028600088589E4FFC0104914E5C5E4FFA01149112
:10287000112319F420E030E015C0222319F0822F33
:102880000E947F13812F90E0880F991F885E9E4FD2
:10289000FC01A591B4918C9120E030E0802311F0EF
:1028A00021E030E0C9011F910F91089508951F9212
:1028B0000F920FB60F920BB60F9211242F933F93E6
:1028C0004F938F939F93EF93FF934091C600209176
:1028D000890630918A062F5F3F4F2F7330708091A9
:1028E0008B0690918C062817390759F0E0918906DC
:1028F000F0918A06E75BF94F408330938A06209374
:102900008906FF91EF919F918F914F913F912F9168
:102910000F900BBE0F900FBE0F901F90189508954B
:102920001F920F920FB60F920BB60F9211242F9396
:102930003F934F938F939F93EF93FF934091CE00DC
:1029400020911107309112072F5F3F4F2F73307086
:1029500080911307909114072817390759F0E091D7
:102960001107F0911207EF52F94F4083309312078D
:1029700020931107FF91EF919F918F914F913F917C
:102980002F910F900BBE0F900FBE0F901F901895B8
:1029900008951F920F920FB60F920BB60F9211244B
:1029A0002F933F934F938F939F93EF93FF93409178
:1029B000D6002091990730919A072F5F3F4F2F73D0
:1029C000307080919B0790919C072817390759F028
:1029D000E0919907F0919A07E75AF84F40833093B6
:1029E0009A0720939907FF91EF919F918F914F91B3
:1029F0003F912F910F900BBE0F900FBE0F901F9025
:102A0000189508951F920F920FB60F920BB60F9262
:102A100011242F933F934F938F939F93EF93FF93A3
:102A20004091360120912108309122082F5F3F4FBD
:102A30002F7330708091230890912408281739074C
:102A400059F0E0912108F0912208EF51F84F4083AE
:102A50003093220820932108FF91EF919F918F914D
:102A60004F913F912F910F900BBE0F900FBE0F9083
:102A70001F901895E0917508F0917608E05CFF4F83
:102A80008191919120813181821B930B8F73907082
:102A9000892B11F00E945614E0919408F09195084A
:102AA000E05CFF4F8191919120813181821B930BDA
:102AB0008F739070892B11F00E948F14E091B308EE
:102AC000F091B408E05CFF4F8191919120813181B8
:102AD000821B930B8F739070892B11F00E94C81486
:102AE000E091D208F091D308E05CFF4F8191919181
:102AF00020813181821B930B8F739070892B11F091
:102B00000E94011508951F920F920FB60F920BB6F7
:102B10000F9211242F933F938F939F93EF93FF93E3
:102B20002091CD063091CE068091CF069091D006AF
:102B30002817390731F48091C1008F7D8093C1003F
:102B400014C0E091CF06F091D006E357F94F2081F1
:102B50008091CF069091D00601968F7390709093DC
:102B6000D0068093CF062093C600FF91EF919F91EE
:102B70008F913F912F910F900BBE0F900FBE0F9032
:102B80001F9018951F920F920FB60F920BB60F92CF
:102B900011242F933F938F939F93EF93FF93209153
:102BA000550730915607809157079091580728177D
:102BB000390731F48091C9008F7D8093C90014C01A
:102BC000E0915707F0915807EB5EF84F2081809114
:102BD00057079091580701968F73907090935807FC
:102BE000809357072093CE00FF91EF919F918F9193
:102BF0003F912F910F900BBE0F900FBE0F901F9023
:102C000018951F920F920FB60F920BB60F921124C8
:102C10002F933F938F939F93EF93FF932091DD0723
:102C20003091DE078091DF079091E0072817390780
:102C300031F48091D1008F7D8093D10014C0E09158
:102C4000DF07F091E007E356F84F20818091DF071E
:102C50009091E00701968F7390709093E0078093B6
:102C6000DF072093D600FF91EF919F918F913F91C5
:102C70002F910F900BBE0F900FBE0F901F901895C5
:102C80001F920F920FB60F920BB60F9211242F9333
:102C90003F938F939F93EF93FF932091650830911B
:102CA000660880916708909168082817390731F401
:102CB000809131018F7D8093310114C0E0916708CC
:102CC000F0916808EB5DF74F208180916708909143
:102CD000680801968F7390709093680880936708D6
:102CE00020933601FF91EF919F918F913F912F910A
:102CF0000F900BBE0F900FBE0F901F901895AF92C4
:102D0000BF92DF92EF92FF920F931F93CF93DF93C7
:102D1000EC017A018B01DD24403081EE580780E020
:102D2000680780E0780711F0DD24D39491E0A92EA4
:102D3000B12CEC89FD89DD2069F0C5010E8C02C043
:102D4000880F991F0A94E2F7808360E079E08DE3B1
:102D500090E005C0108260E874E88EE190E0A80180
:102D600097010E948D3D2150304040405040569583
:102D700047953795279580E12030380720F0DD20F2
:102D800011F0DD24D6CFE889F9893083EA89FB89FF
:102D90002083EE89FF89408121E030E0C9010A8C5F
:102DA00002C0880F991F0A94E2F7482B4083EE89EE
:102DB000FF894081C9010B8C02C0880F991F0A94BA
:102DC000E2F7482B4083EE89FF894081C9010C8CD2
:102DD00002C0880F991F0A94E2F7482B4083EE89BE
:102DE000FF8980810D8C02C0220F331F0A94E2F705
:102DF000209528232083DF91CF911F910F91FF9081
:102E0000EF90DF90BF90AF900895DC011C96ED919C
:102E1000FC911D97E05CFF4F219131918081918160
:102E2000281B390B2F733070C9010895DC011C96E3
:102E3000ED91FC911D97E05CFF4F20813181E054C2
:102E4000F040DF01AE5BBF4F8D919C911197281729
:102E5000390719F42FEF3FEF07C08D919C91E80FD0
:102E6000F91F8081282F30E0C9010895DC011C96EC
:102E7000ED91FC911D97E05CFF4F20813181E05482
:102E8000F040DF01AE5BBF4F8D919C9111972817E9
:102E9000390719F42FEF3FEF10C08D919C911197D6
:102EA000E80FF91F20818D919C91119701968F73E6
:102EB000907011969C938E9330E0C9010895FC01A7
:102EC00086859785DC01A05CBF4FFC01EE5BFF4F60
:102ED0002D913C9111978081918128173907C1F775
:102EE0000895CF93DF93EC01EE85FF85E05CFF4F03
:102EF00020813181E054F0402F5F3F4F2F733070BD
:102F0000DF01AE5BBF4F8D919C9111972817390758
:102F1000D1F3E05CFF4F80819181E054F040E80FF5
:102F2000F91F6083EE85FF85E05CFF4F31832083CE
:102F3000EE89FF89208181E090E00D8C02C0880F2E
:102F4000991F0A94E2F7282B208381E090E0DF911B
:102F5000CF9108951F9310926C0810926B0828EE81
:102F600033E040E050E020936D0830936E084093CA
:102F70006F08509370086EE775E070936A0860936D
:102F8000690889E496E090937608809375088DE847
:102F900096E0909378088093770885EC90E0909382
:102FA0007A088093790884EC90E090937C08809371
:102FB0007B0880EC90E090937E0880937D0881EC04
:102FC00090E09093800880937F0886EC90E0909347
:102FD00082088093810814E010938308B3E0B093D3
:102FE0008408A7E0A0938508F5E0F0938608E1E067
:102FF000E093870810928B0810928A0820938C081F
:1030000030938D0840938E0850938F0870938908F1
:103010006093880881ED96E09093950880939408DA
:1030200085E197E090939708809396088DEC90E067
:1030300090939908809398088CEC90E090939B086B
:1030400080939A0888EC90E090939D0880939C0868
:1030500089EC90E090939F0880939E088EEC90E01E
:103060009093A1088093A0081093A208B093A3089E
:10307000A093A408F093A508E093A6081092AA08CC
:103080001092A9082093AB083093AC084093AD0888
:103090005093AE087093A8086093A70889E597E05D
:1030A0009093B4088093B3088DE997E09093B608A5
:1030B0008093B50885ED90E09093B8088093B708A9
:1030C00084ED90E09093BA088093B90880ED90E089
:1030D0009093BC088093BB0881ED90E09093BE086C
:1030E0008093BD0886ED90E09093C0088093BF0860
:1030F0001093C108B093C208A093C308F093C4080A
:10310000E093C5081092C9081092C8082093CA0815
:103110003093CB084093CC085093CD087093C708E8
:103120006093C60881EE97E09093D3088093D2080D
:1031300085E298E09093D5088093D40885E391E0E8
:103140009093D7088093D60884E391E09093D908B0
:103150008093D80880E391E09093DB088093DA08AD
:1031600081E391E09093DD088093DC0886E391E0B1
:103170009093DF088093DE081093E008B093E10895
:10318000A093E208F093E308E093E4081F91089508
:10319000CF93DF930E94DE120E948C08CAE3D5E130
:1031A0000E94BA052097E1F30E943A15F9CF0895DD
:1031B000CF92DF92EF92FF920F931F93CF93DF9303
:1031C0007C016B018A01C0E0D0E00FC0D6016D9197
:1031D0006D01D701ED91FC910190F081E02DC701C7
:1031E0001995C80FD91F015010400115110571F72D
:1031F000CE01DF91CF911F910F91FF90EF90DF9063
:10320000CF900895EF92FF920F931F938C01DC01F2
:10321000ED91FC910190F081E02D6DE019957C011C
:10322000D801ED91FC910190F081E02DC8016AE098
:1032300019959C012E0D3F1DC9011F910F91FF9003
:10324000EF900895EF92FF920F931F937C01DC01A2
:10325000ED91FC910190F081E02D19958C01C70151
:103260000E940219080F191FC8011F910F91FF90AA
:10327000EF900895CF93DF93DB010D900020E9F7E5
:103280001197A61BB70BEC01E881F9810280F3814D
:10329000E02DAD011995DF91CF9108954F925F9286
:1032A0007F928F929F92AF92BF92CF92DF92EF92D6
:1032B000FF920F931F93DF93CF93CDB7DEB7A19704
:1032C0000FB6F894DEBF0FBECDBF2C01742ECB011C
:1032D000223008F42AE019A231E2C32ED12CCC0E00
:1032E000DD1E822E9924AA24BB24672D752FA501EB
:1032F00094010E948D3D79018A01C801B701A501A1
:1033000094010E94473D472D461B0894C108D108EF
:103310004A3014F4405D01C0495CF6014083E11479
:10332000F1040105110521F07E2C5F2DC801DDCFD0
:10333000C201B6010E943A19A1960FB6F894DEBFF9
:103340000FBECDBFCF91DF911F910F91FF90EF90F6
:10335000DF90CF90BF90AF909F908F907F905F90C5
:103360004F900895CF92DF92EF92FF920F931F93A9
:10337000CF93DF93EC016A017B012115310541F404
:10338000E881F9810190F081E02D642F19951FC02B
:103390002A303105D1F477FF17C0E881F981019017
:1033A000F081E02D6DE219958C0144275527BA0173
:1033B0004C195D096E097F09CE012AE00E944E1961
:1033C0009801280F391F04C02AE00E944E199C0161
:1033D000C901DF91CF911F910F91FF90EF90DF9086
:1033E000CF900895CF92DF92EF92FF920F931F93A9
:1033F0006C017B019A010027F7FC0095102FB801A2
:10340000A7010E94B2198C01C6010E940219080F7F
:10341000191FC8011F910F91FF90EF90DF90CF907F
:1034200008950E943A190895EF92FF920F931F9307
:103430007C010E943A198C01C7010E940219080FF1
:10344000191FC8011F910F91FF90EF9008952F92BF
:103450003F924F925F926F927F928F929F92AF9224
:10346000BF92CF92DF92EF92FF920F931F93DF9361
:10347000CF93CDB7DEB73B014C0119012A016E890C
:103480007F89888D998D6A197B098C099D09621A3B
:10349000730A840A950AA40193010E94473DE21829
:1034A000F30804091509A80197010E94AF3D2A0DF0
:1034B0003B1D4C1D5D1DB901CA01CF91DF911F91CC
:1034C0000F91FF90EF90DF90CF90BF90AF909F90C3
:1034D0008F907F906F905F904F903F902F900895C6
:1034E000CF93DF93C0E0D0E006C0C60FD71F615076
:1034F0007040804090406115710581059105A9F7E4
:1035000089E698E069E874E00E94111ACE01DF9123
:10351000CF910895CF93DF93EB01892B39F589E69D
:1035200098E06AE874E00E94141AF8948DE061E073
:103530000E94401389E698E0BE014AE050E00E94F4
:10354000F2198DE060E00E94F31360E472E48FE012
:1035500090E00E94701A8DE061E00E94F31360E435
:1035600072E48FE090E00E94701AE4CFDF91CF9177
:103570000895FC01138212828EE895E09183808386
:103580007583648357834683718760875387428737
:10359000158A158614861786168621E0248B8FEFF0
:1035A0009FEF938B828B918B808B268B08952F922C
:1035B0003F924F925F926F927F928F929F92AF92C3
:1035C000BF92CF92DF92EF92FF920F931F93DF9300
:1035D000CF93CDB7DEB72E970FB6F894DEBF0FBEF0
:1035E000CDBF9E878D871B015E834D83A70126017A
:1035F00071E0C72ED12CC21AD30AC901880F991FB6
:1036000066277727681B790B7A8369836D807E80B4
:1036100008946108710883E0882E912C8E0C9F1C01
:10362000790181E090E09C838B83AA24BB2410E085
:10363000D801A170B070B887AF83FA013196FA87CC
:10364000E987B801627070707C876B8777C0D7FCA0
:103650000AC00894E108F10889819A8102969A8348
:103660008983C80ED91E0894A11CB11CAB81BC81F2
:103670001296BC83AB83EF81F885EF2B41F1AD85CA
:10368000BE85ED91FC911197B501620D731D4D81C1
:103690005E814E195F099701220F331F89859A8534
:1036A000280F391F0084F185E02DCD018201199585
:1036B000AD85BE85ED91FC911197B701620D731D2B
:1036C0000084F185E02DCD01A30194011995EB85CE
:1036D000FC85EF2B41F1AD85BE85ED91FC911197F5
:1036E000B1016A197B094D815E814E195F0997010D
:1036F000220F331F89859A85280F391F0084F18591
:10370000E02DCD0182011995AD85BE85ED91FC912D
:103710001197B1016E197F090084F185E02DCD016B
:10372000A30194011995EB81FC81CE0EDF1E089454
:103730006108710862E070E0860E971EAE14BF0447
:103740000CF485CF2E960FB6F894DEBF0FBECDBF1A
:10375000CF91DF911F910F91FF90EF90DF90CF906D
:10376000BF90AF909F908F907F906F905F904F90A1
:103770003F902F9008956F927F928F929F92AF9279
:10378000BF92CF92DF92EF92FF920F931F937C0133
:103790004B013A0159016801DC01ED91FC91421B9A
:1037A000530B220F331F2F5F3F4F0084F185E02D15
:1037B0001995C701B401A301950103E0EE24FF248C
:1037C0000E94D71A1F910F91FF90EF90DF90CF903A
:1037D000BF90AF909F908F907F906F9008952F92A1
:1037E0003F924F925F926F927F928F929F92AF9291
:1037F000BF92CF92DF92EF92FF920F931F93DF93CE
:10380000CF9300D00F92CDB7DEB73C017C836B83A2
:103810006A015901FA82E982222433249801241B87
:10382000350B37FF03C0309521953F4FC5014B81C4
:103830005C81841B950B97FF03C0909581959F4FEA
:10384000821793075CF481E0282E312CC601CB80CF
:10385000DC809C838B83C80185015C018B819C810A
:10386000A816B90644F4C501AB80BC809C838B8349
:10387000C80186016C012501AB81BC814A1A5B0A33
:103880007801EC18FD08F7FE04C0F094E194F1080B
:10389000F394C016D10624F088248A94982C03C08F
:1038A000B1E08B2E912CC20162E070E00E947A3D63
:1038B0008B0125C0D301ED91FC912114310441F01D
:1038C0000480F581E02DC301B6014B815C8107C006
:1038D0000480F581E02DC3016B817C81A6012981E3
:1038E0003A8119950E191F0917FF04C0C80CD91C7D
:1038F000040D151DEB81FC813196FC83EB834B811C
:103900005C81A416B506B4F60F900F900F900F903F
:10391000CF91DF911F910F91FF90EF90DF90CF90AB
:10392000BF90AF909F908F907F906F905F904F90DF
:103930003F902F9008954F925F926F927F928F9257
:103940009F92AF92BF92CF92DF92EF92FF920F932E
:103950001F936C015B014A0139012801DC01ED91E3
:10396000FC910284F385E02D87011995D601ED9134
:10397000FC91A40141505040440D551D0284F38533
:10398000E02DC601B50193011995D601ED91FC9189
:103990000084F185E02DC601B501A40192011995BD
:1039A000D601ED91FC910894A108B108A60CB71CB2
:1039B0000084F185E02DC601B501A401920119959D
:1039C0001F910F91FF90EF90DF90CF90BF90AF903D
:1039D0009F908F907F906F905F904F900895CF92BF
:1039E000DF92EF92FF920F931F93DC016B0178013E
:1039F000ED91FC918A0101501040020F131F0680C7
:103A0000F781E02D960119951F910F91FF90EF908E
:103A1000DF90CF900895CF92DF92EF92FF920F93B5
:103A20001F93DC016A01C9017801ED91FC911197A6
:103A30009B0121503040280F391F0680F781E02D6F
:103A4000CD01860119951F910F91FF90EF90DF90A6
:103A5000CF9008956F927F928F929F92AF92BF9274
:103A6000CF92DF92EF92FF920F931F93CF93DF934A
:103A70005C013A0169014801EB01C60ED71E0DC079
:103A8000D501ED91FC910084F185E02DC501BE01C9
:103A9000A3019401870119952196CC15DD0584F3C6
:103AA000DF91CF911F910F91FF90EF90DF90CF901A
:103AB000BF90AF909F908F907F906F900895EF92FE
:103AC000FF920F931F93FC017B01A081B1812085A0
:103AD0003185028513851E960D90BC91A02D60E066
:103AE00070E040E050E0FD0119951F910F91FF90AB
:103AF000EF9008952F923F924F925F926F927F9234
:103B00008F929F92AF92BF92CF92DF92EF92FF92ED
:103B10000F931F93DF93CF93CDB7DEB72F970FB6D9
:103B2000F894DEBF0FBECDBF5C015E834D83188766
:103B30000F83FA86E986CB86DC0118968D919C91DD
:103B40001997681779070CF0A4C01A968D919C916B
:103B50001B97481759070CF09CC0EC2DF0E0FF872D
:103B6000EE87CF01880F991F8E0F9F1F880F991F17
:103B7000860F971F181619060CF08BC0CF01F3E0C3
:103B8000880F991FFA95E1F7840F951F18161906EB
:103B90000CF07FC085E0289FA00111245A8349833F
:103BA0002B011B011C825C81553011F480E005C0A3
:103BB000E981FA81EC5FFD4F84912C863D866D8012
:103BC0007E8043011B82C82EDD2480FF1CC0D501EE
:103BD000ED91FC91BB85B13049F40480F581E02D75
:103BE000C501B201A3012F81388522C00684F78563
:103BF000E02DC5016C857D85A4012E853F85890159
:103C0000EF80F88423C0E985FA852F813885E21793
:103C1000F307E9F0D501ED91FC91BB85B13051F48A
:103C20000480F581E02DC501B201A30129853A8503
:103C300019950DC00684F785E02DC5016C857D853D
:103C4000A4012E853F858901E984FA841995EB81C9
:103C5000EF5FEB832E853F85820E931E0894611CD7
:103C6000711CE83021F0D594C7948C2DACCF3C81E9
:103C70003F5F3C834E855F85240E351E0894411CB2
:103C8000511C89819A8101969A838983363009F083
:103C90008ACF2F960FB6F894DEBF0FBECDBFCF915F
:103CA000DF911F910F91FF90EF90DF90CF90BF9029
:103CB000AF909F908F907F906F905F904F903F90CC
:103CC0002F900895CF92EF92FF920F931F93CF936F
:103CD000DF93EC01262F6A3061F42C8930E003E099
:103CE000220F331F0A95E1F78E859F85820F931F60
:103CF00037C06D30C9F16C857D854E855F8508893B
:103D00001989EA88FB88CC880E947A1D2C8986E074
:103D1000289FB00111248C859D85680F791F7D87B0
:103D20006C878E89882301F1422F50E08AEF9FEF44
:103D30009C01429FC001439F900D529F900D112402
:103D400028853985820F931F861797076CF413E037
:103D5000440F551F1A95E1F78E859F85840F951F97
:103D60009F878E871D861C8681E090E0DF91CF9132
:103D70001F910F91FF90EF90CF900895FC017587F0
:103D80006487578746870895FC01662309F461E03C
:103D9000648B0895FC01738B628B718B608B08952B
:103DA0000895DC0158968C915897882329F06EBDB0
:103DB0000DB407FEFDCF089530E840E050E070E01C
:103DC000832F90E0862397235996ED91FC915A9783
:103DD00096962C919697892B21F08081822B808357
:103DE00004C080812095282320835B96ED91FC916F
:103DF0005C97808197969C919797892B80835B969F
:103E0000ED91FC915C97908197968C919797809516
:103E10008923808336954F5F5F4F4830510581F687
:103E200008950F931F938C01DC015F96ED91FC9137
:103E30009097908199968C9199978095892380830A
:103E40005D96ED91FC915E97908198968C9180950E
:103E500089238083C8010E94D11ED8015D96ED910F
:103E6000FC915E97808198969C91892B80831F910D
:103E70000F9108950F931F938C01DC015F96ED91D4
:103E8000FC919097808199969C919997892B80833A
:103E90005D96ED91FC915E97908198968C918095BE
:103EA00089238083C8010E94D11ED8015D96ED91BF
:103EB000FC915E97808198969C91892B80831F91BD
:103EC0000F910895CF92DF92EF92FF920F931F937D
:103ED0007C01162FC42ED22E6AE20E94111FC70148
:103EE00060E00E943A1FF70162A5610FC7010E94BE
:103EF0003A1FC70160E00E943A1FF70162A56D0DED
:103F0000C7010E943A1FC7016BE20E94111FC7013F
:103F100060E00E943A1FF70163A56C0DC7010E9483
:103F20003A1FC70160E00E943A1FF70163A5600FC6
:103F3000C7010E943A1FC7016CE20E94111F1F9126
:103F40000F91FF90EF90DF90CF900895FF920F9325
:103F50001F938C01F62E672FDC015F96ED91FC918B
:103F60009097808199969C919997892B80835D96F3
:103F7000ED91FC915E97908198968C918095892324
:103F80008083C8010E94D11EC8016F2D0E94D11EDE
:103F9000D8015D96ED91FC915E97808198969C91F9
:103FA000892B80831F910F91FF900895FF920F93AB
:103FB0001F93CF93DF93EC01F22E132F77FD2EC0CA
:103FC00088859985681779074CF557FD27C08A853C
:103FD0009B854817590714F5262F2F5F042F0F5F75
:103FE000CE010E94621FEF8DF8A1808199A5892BD7
:103FF0008083ED8DFE8D908188A5809589238083B7
:10400000CE01612F0E94D11ECE016F2D0E94D11EC4
:10401000ED8DFE8D808198A5892B8083DF91CF91D6
:104020001F910F91FF900895DF92EF92FF920F93EF
:104030001F93CF93DF93EC01FB017901D02E88858C
:10404000998568177907D4F52A853B854217530768
:10405000ACF5C701840F951F281739071CF47901A7
:10406000E41AF50A042F01500E0DCE016E2F2E2FEB
:104070000E94621FEF8DF8A1808199A5892B808312
:10408000ED8DFE8D908188A580958923808308C061
:10409000CE01612F0E94D11ECE016D2D0E94D11E36
:1040A0000894E108F1088FEFE8168FEFF80681F722
:1040B000ED8DFE8D808198A5892B8083DF91CF9136
:1040C0001F910F91FF90EF90DF900895DF92EF9294
:1040D000FF920F931F93CF93DF93EC01FA017901C5
:1040E000D02E2885398562177307D4F58A859B857C
:1040F00048175907ACF5C701860F971F28173907CE
:104100001CF47901E61AF70A262F21502E0DCE0154
:104110004E2F0E2F0E94621FEF8DF8A1808199A56E
:10412000892B8083ED8DFE8D908188A580958923D4
:10413000808308C0CE01612F0E94D11ECE016D2D5B
:104140000E94D11E0894E108F1088FEFE8168FEF66
:10415000F80681F7ED8DFE8D808198A5892B8083EF
:10416000DF91CF911F910F91FF90EF90DF90089515
:10417000EF92FF920F931F93FC017B01A081B1810D
:1041800020853185028513851E960D90BC91A02D4A
:1041900060E070E040E050E0FD0119951F910F9143
:1041A000FF90EF900895AF92BF92CF92DF92EF927F
:1041B000FF920F931F93CF93DF936C015901E80196
:1041C000DC0118962D913C911997621773070CF03A
:1041D00057C01A96ED91FC911B974E175F070CF094
:1041E0004FC0C501860F971F281739071CF45901C6
:1041F000A61AB70ACE01840F951FE817F9071CF419
:10420000EF01C41BD50B262F21502A0D042F01507E
:104210000C0FC6010E94621FD6015F96ED91FC91C2
:104220009097808199969C919997892B80835D9630
:10423000ED91FC915E97908198968C918095892361
:1042400080838E010EC0C6016F2D0E94D11EC60153
:104250006E2D0E94D11E21971C161D06A4F301503D
:1042600010401016110614F4E501F6CFD6015D9644
:10427000ED91FC915E97808198969C91892B80832B
:10428000DF91CF911F910F91FF90EF90DF90CF9032
:10429000BF90AF9008951F93CF93DF93EC01162F3B
:1042A00066E30E94111F13701D8B113081F01130D5
:1042B00028F01230A9F01330B1F523C08F89823075
:1042C00019F4CE0160EC14C0CE0168EC11C08F89E6
:1042D000823019F4CE0160EA1CC0CE0168EA19C030
:1042E0008F89823019F4CE0160E002C0CE0168E00F
:1042F0000E943A1F80E890E09987888780EA90E0E2
:1043000010C08F89823019F4CE0160E602C0CE0160
:1043100068E60E943A1F80EA90E09987888780E8E3
:1043200090E09B878A87DF91CF911F910895662344
:1043300011F460E201C061E20E94111F0895AF9282
:10434000BF92CF92DF92EF92FF920F931F93CF9382
:10435000DF935C01FB01EB012196D49031C08E010B
:104360000F5F1F4FFE016491C5010E94111F78016C
:104370000894E11CF11CF801C4900C2D0F77E701A3
:10438000102F08C0FE012196E491C5016E2F0E94F6
:104390003A1F11501123B1F7E701C00FD11DC7FE1D
:1043A0000EC0FE018491682F70E06F3F710511F41B
:1043B00064EF71E0219680E090E00E948512DA942B
:1043C000DD2069F6DF91CF911F910F91FF90EF9063
:1043D000DF90CF90BF90AF9008950F931F93CF932E
:1043E000DF93EC018B011BA61AA68AA161E00E9453
:1043F000401389A161E00E944013E9A14E2F50E0D3
:10440000FA01EE5CFE4FE491F0E0EE0FFF1FE25088
:10441000FF4F859194919E8F8D8FEAA12E2F30E0D2
:10442000F901EE5CFE4FE491F0E0EE0FFF1FE25069
:10443000FF4F8591949198A38F8F48585E4FFA0152
:10444000849188A728583E4FF901849189A7888DC7
:10445000882361F00E94213580E00E94103581E0C0
:104460000E94023580E00E940B353DC08DA161E0C5
:104470000E9440138CA161E00E944013EDA14E2FD9
:1044800050E0FA01EE5CFE4FE491F0E0EE0FFF1F0A
:10449000E250FF4FA591B491BC8FAB8FECA12E2FB2
:1044A00030E0F901EE5CFE4FE491F0E0EE0FFF1F0B
:1044B000E250FF4F859194919A8F898F48585E4FB3
:1044C000FA0194919FA328583E4FF90184918EA33D
:1044D0008C91909598239C93E98DFA8D90818EA173
:1044E000809589238083ED8DFE8D908188A58095B0
:1044F000892380838BA1882309F161E00E94401306
:104500008BA161E00E94F31364EF71E080E090E022
:104510000E9485128BA160E00E94F31364EF71E0AA
:1045200080E090E00E9485128BA161E00E94F3136D
:1045300064EF71E080E090E00E94851201151105A2
:1045400021F0CE01B8010E949F21DF91CF911F91F0
:104550000F9108951F93CF93DF93EC01162F6FEF08
:1045600076E00E94ED21112351F4CE016AE377E059
:104570000E949F2182E08AA781E08BA705C0CE011F
:1045800067E477E00E949F21CE0164E577E00E9416
:104590009F21123041F4CE0166E30E94111FCE012B
:1045A00060EC0E943A1F1F8BDF91CF911F910895FD
:1045B000DF92EF92FF920F931F938C01F62EE42E61
:1045C000D22E60E870E040EA50E00E94B91A86EA14
:1045D00095E0F80191838083F1A2E2A2D3A281E069
:1045E000808F15A214A21F910F91FF90EF90DF9082
:1045F000089582E090E0A0E0B0E08093E508909319
:10460000E608A093E708B093E8081092FC0810921F
:104610000609109205098EEB95E0909304098093AA
:104620000309109208091092250910922609109288
:10463000290910922B0908952F923F924F925F9271
:104640006F927F928F929F92AF92BF92CF92DF92A2
:10465000EF92FF920F931F93DF93CF93CDB7DEB707
:10466000C754D0400FB6F894DEBF0FBECDBF582E52
:10467000492EFB013A01190180A191A1998B888BE8
:104680002EEB35E03F872E8782A18A8B83A18B8B0F
:1046900084A195A1A6A1B7A18C8B9D8BAE8BBF8B5E
:1046A00080A591A5A2A5B3A5888F998FAA8FBB8F4E
:1046B00084A595A5A6A5B7A58C8F9D8FAE8FBF8F1E
:1046C00080A988A381A992A9A3A9B4A989A39AA31F
:1046D000ABA3BCA385A996A9A7A9B0AD8DA39EA3A2
:1046E000AFA3B8A781AD92AD9AA789A71EA61DA6B4
:1046F0003CA72BA718AA7A018E01025F1F4F3BE24D
:10470000A32EB12CAC0EBD1E4E010894811C911C31
:1047100035C0D7018C918F3221F40894E11CF11C33
:104720002DC0422F4E194D3008F04CE0C42EDD2430
:10473000C401B701A6010E94583AF401EC0DFD1D19
:104740001082C5010E94EE29C501B801A40121E033
:104750000E94362F882351F4E52DF42D1382128206
:104760008EEB95E091838083158266C0EC0CFD1C76
:10477000C8010E94EE29C50158018C01C7016FE2F2
:1047800070E00E944D3A9C01009719F6E618F70870
:10479000F101F182E082E52DF42DD80112968D9180
:1047A0009C911397938382838EEB95E09183808312
:1047B00014968C911497848315968C911597858304
:1047C00016962D913D914D915C91199726833783D3
:1047D000408751871A962D913D914D915C911D977F
:1047E00022873387448755871E962D913D914D91A1
:1047F0005C91519726873787408B518B52968C91CD
:104800005297828B53962D913D914D915C91569785
:10481000238B348B458B568B57962D913D914D9123
:104820005C915A97278B308F418F528F5B968D9179
:104830009C915C97948F838F852D942DC95BDF4F5E
:104840000FB6F894DEBF0FBECDBFCF91DF911F91A1
:104850000F91FF90EF90DF90CF90BF90AF909F901F
:104860008F907F906F905F904F903F902F90089522
:104870009F92AF92BF92CF92DF92EF92FF920F93EF
:104880001F93DF93CF93CDB7DEB7C657D0400FB697
:10489000F894DEBF0FBECDBFC82E992E8A01D22E4E
:1048A00043E0A42EB12CAC0EBD1EC501A8019E0193
:1048B0002F5F3F4F0E941C23E980FA80E00EF11E1B
:1048C000F70180814EEB55E02885882309F03FC031
:1048D0008D819E819BA38AA359A348A38F818CA31A
:1048E0002DA389859A85AB85BC858EA39FA3A8A798
:1048F000B9A78D859E85AF85B8898AA79BA7ACA7E8
:10490000BDA789899A89AB89BC898EA79FA7A8ABC7
:10491000B9AB8D898AAB8E899F89A88DB98D8BABF8
:104920009CABADABBEAB8A8D9B8DAC8DBD8D8FAB83
:1049300098AFA9AFBAAF8E8D9F8D9CAF8BAF8C2DEA
:10494000992DBE01605E7F4F4CE954E09FC0FE018F
:10495000FF96118210825EAF4DAFFE01EE5BFF4FFE
:1049600010822223A9F02250CE01CD96223048F4A5
:1049700063E079E0A7012D2D0E94362F882381F472
:1049800007C0B501A7012D2D0E94362F882329F4D9
:104990008C2D992D0E948E367BC0C5010E94EE2978
:1049A000F6E0DF2259F0FE01E05BFF4F40815181CC
:1049B00062817381CE01CD960E94DE289E01265A27
:1049C0003F4FFE01FF9680819181F901938382839D
:1049D0008EEB95E091838083FE01EF5BFF4F80813A
:1049E000F9018483FE01EE5BFF4F8081F90185832D
:1049F000FE01ED5BFF4F80819181A281B381F901BE
:104A000086839783A087B187FE01E95BFF4F808192
:104A10009181A281B381F90182879387A487B587A9
:104A2000FE01E55BFF4F80819181A281B381F90195
:104A300086879787A08BB18BFE01E15BFF4F80815A
:104A4000F901828BFE01E05BFF4F80819181A281A1
:104A5000B381F901838B948BA58BB68BFE01EC5A45
:104A6000FF4F80819181A281B381F901878B908F63
:104A7000A18FB28FFE01E85AFF4F80819181F90129
:104A8000948F838F8C2D992DB901A7010E9498379F
:104A90008C2D992DCA58DF4F0FB6F894DEBF0FBE8C
:104AA000CDBFCF91DF911F910F91FF90EF90DF90DD
:104AB000CF90BF90AF909F900895EF92FF920F9389
:104AC0001F93CF93DF93EC01462F8C01055C1F4FA2
:104AD000C80161E00E94CA278823D1F0FC2EED2E88
:104AE000CE01B80141E00E94D730882339F4CE01CD
:104AF000B80140E00E94D730882351F0CE014E9695
:104B00006F2D7E2D0E94242C882319F081E001C096
:104B100080E0DF91CF911F910F91FF90EF9008956A
:104B2000FC01673020F086E1858380E00895262F20
:104B300030E060FD02C0663019F48DB58E7F02C092
:104B40008DB581608DBD8CB58C7F8CBD4CB522FD43
:104B500002C090E001C092E036952795822F8170C7
:104B6000842B892B8CBD81E00895FF920F931F93B6
:104B7000CF93DF938B010E947712EB01FF24FA940D
:104B8000FEBC0DB407FEFDCF8EB58F3F11F481E062
:104B900008C00E9477126C1B7D0B6017710780F3B1
:104BA00080E0DF91CF911F910F91FF900895FC015C
:104BB000848160E00E94F3130895FC01848161E028
:104BC0000E94F3130895DC016EBDFA0120E030E08D
:104BD0000DB407FEFDCF80818EBD0DB407FEFDCF65
:104BE00081818EBD2E5F3F4F329682E020303807A4
:104BF00079F70DB407FEFDCF8FEF8EBD0DB407FE24
:104C0000FDCF8FEF8EBD0DB407FEFDCF8FEF8EBDB4
:104C10000DB407FEFDCF8EB51A968C931A978F713F
:104C2000853011F481E0089581E115968C931597F4
:104C3000CD010E94DD2580E00895FF920F931F9320
:104C4000CF93DF93EC010E9477128B01FF24FA943B
:104C500009C00E947712601B710B6D52714010F0F9
:104C60008FE00DC0FEBC0DB407FEFDCF8EB58A8768
:104C70008F3F79F38E3F11F481E006C08DE08D8384
:104C8000CE010E94DD2580E0DF91CF911F910F9131
:104C9000FF900895CF93DF93EC018E818823D1F0AC
:104CA0008FEF8EBD2F8138854FEF04C00DB407FE06
:104CB000FDCF4EBD2F5F3F4FC901019781509240FC
:104CC000A8F338872F830DB407FEFDCFCE010E94D5
:104CD000DD251E82DF91CF910895DF92EF92FF9242
:104CE0000F931F93CF93DF93EC01D62E79018A01A6
:104CF0000E944A26CE010E94D725CE016CE271E0C7
:104D00000E94B5258D2D80648EBD0DB407FEFDCFAC
:104D100028E130E0D801C701022E04C0B695A7955E
:104D2000979587950A94D2F78EBD0DB407FEFDCFF7
:104D3000285030408FEF283F380761F7DD2011F40D
:104D400085E906C088E0D81611F487E801C08FEF26
:104D50008EBD0DB407FEFDCF90E02FEF2EBD0DB43C
:104D600007FEFDCF8EB587FF02C09150B9F78A8745
:104D7000DF91CF911F910F91FF90EF90DF900895F9
:104D8000CF92DF92EF92FF920F931F93CF93DF9317
:104D9000EC017A018B01690141155105610571052D
:104DA00011F482E137C08B85833039F029E0EE0CB5
:104DB000FF1C001F111F2A95D1F7CE0168E1A80141
:104DC00097010E946D26882311F084E023C0CE0154
:104DD0006EEFA6010E94E3258823E9F0CE0168E585
:104DE00072E00E94B525882311F485E113C0CE013D
:104DF0006DE020E030E040E050E00E946D26882326
:104E000041F48FEF8EBD0DB407FEFDCF8EB5882324
:104E100079F084E18D83CE010E94DD2580E0DF9171
:104E2000CF911F910F91FF90EF90DF90CF90089559
:104E3000CE010E94DD2581E0F2CF8F929F92AF924A
:104E4000BF92CF92DF92EF92FF920F931F93CF9377
:104E5000DF93EC015A016B0149010115110509F4B9
:104E60007BC0C801820F931F8150924008F06FC031
:104E70008E81882371F088819981AA81BB8148172E
:104E800059076A077B0729F48F8198858816990648
:104E900018F5A882B982CA82DB828B85833039F00B
:104EA00069E0AA0CBB1CCC1CDD1C6A95D1F7CE01B5
:104EB00061E1A60195010E946D26882319F083E027
:104EC0008D8345C0CE010E941D26882309F43FC072
:104ED00018861F8281E08E838FEF8EBD8F8198852B
:104EE0002FEF05C00DB407FEFDCF2EBD019688152E
:104EF0009905C0F398878F83D801119720E030E09F
:104F00009FEF0BC00DB407FEFDCF8EB5F701E20F8A
:104F1000F31F80839EBD2F5F3F4F2A173B0790F3FF
:104F20000DB407FEFDCF8EB5AE0DBF1D8C932F8146
:104F30003885200F311F38872F838985882319F002
:104F40002050324048F0CE010E944A2605C0CE01D2
:104F50000E94DD2580E001C081E0DF91CF911F91AB
:104F60000F91FF90EF90DF90CF90BF90AF909F9008
:104F70008F900895EF92FF920F931F93790120E095
:104F800030E000E012E00E941D271F910F91FF907A
:104F9000EF900895BF92CF92DF92EF92FF920F931E
:104FA0001F93CF93DF93EC01B62E1B8619861E82CA
:104FB0001D824C830E9477126B018C8161E00E94FC
:104FC0004013CE010E94DD2582E360E00E94401381
:104FD00083E361E00E94401384E361E00E94401398
:104FE00085E361E00E94401385E361E00E94F313D2
:104FF00083E58CBD8DB58E7F8DBD80E09FEF9EBD1E
:105000000DB407FEFDCF8F5F8A30C9F7CE010E9435
:10501000D72509C00E9477126C197D09615D774020
:1050200010F081E05EC0CE0160E020E030E040E0C2
:1050300050E00E946D26182F8A87813059F7CE01E3
:1050400068E02AEA31E040E050E00E946D2682FFED
:1050500002C01B8711C080E02FEF2EBD0DB407FEEC
:10506000FDCF9EB58F5F8430C1F79A879A3A11F0D1
:1050700082E037C082E08B878B85823021F0EE247E
:10508000FF2487010FC0E12CF12C012DF0E41F2F2C
:1050900009C00E9477126C197D09615D774010F09C
:1050A00088E01FC0CE0167E320E030E040E050E040
:1050B0000E946D26CE0169E2A80197010E946D262B
:1050C0008A87882331F78B85823031F5CE016AE3F8
:1050D00020E030E040E050E00E946D26882339F067
:1050E00086E08D83CE010E94DD2580E01CC08FEF1D
:1050F0008EBD0DB407FEFDCF8EB5807C803C11F4D3
:1051000083E08B8780E09FEF9EBD0DB407FEFDCF4F
:105110002EB58F5F8330C1F7CE010E94DD25CE0111
:105120006B2D0E949025DF91CF911F910F91FF90E1
:10513000EF90DF90CF90BF900895CF93DF93EC0175
:10514000DB0180E090E020E2FD01E80FF91F208301
:1051500001968B309105C1F757E040E021C02E3217
:1051600019F086EE97E007C05A3019F15AE048E08E
:1051700017C03217F1F0FC01019634913323C9F7BF
:105180005417B8F02132A8F02F3798F4822F8156A7
:105190008A3108F42052FD01E40FF11D20834F5F96
:1051A00029912223E1F690E08C91803219F091E070
:1051B00001C090E0892FDF91CF9108956F927F9287
:1051C0008F929F92AF92BF92CF92DF92EF92FF9217
:1051D0000F931F93CF93DF93EC017A018B012D8105
:1051E000222309F480C08B899C89AD89BE898417EC
:1051F0009507A607B70708F476C085C0E114F10447
:105200000105110549F41E821F82188619861A8627
:105210001B861C861D8665C02A853B854C855D8561
:10522000EB8DFC8D858590E0099621503040404003
:10523000504039014A01082E04C09694879477940F
:1052400067940A94D2F72F5F3F4F4F4F5F4F0894F8
:10525000E108F108010911095701680104C0D69459
:10526000C794B794A7948A95D2F70894E11CF11CCF
:10527000011D111DA614B704C804D90428F0211576
:1052800031054105510549F48F89988DA98DBA8D55
:105290008E839F83A887B98716C0A618B708C80849
:1052A000D90811C04E815F81688579858B8D9C8D71
:1052B00094010E94B8320894A108B108C108D1082D
:1052C000882331F410C086E0882E912C8C0E9D1E10
:1052D000A114B104C104D10429F7EA86FB860C8726
:1052E0001D8781E001C080E0DF91CF911F910F9178
:1052F000FF90EF90DF90CF90BF90AF909F908F90F6
:105300007F906F900895223009F078CFE6CFCF9349
:10531000DF93EC01462F6E857F85888999890E94ED
:105320009C30882319F420E030E00AC08A89282FB5
:1053300030E095E0220F331F9A95E1F7205D364F5C
:10534000C901DF91CF9108950F931F93CF93DF93FE
:105350008C01FC0185818823D9F1848187FF35C0C8
:10536000C80161E00E948729EC01009789F1F801EA
:105370008581823040F483899489A589B6898C8F90
:105380009D8FAE8FBF8FF8018789908D9B8F8A8FFD
:105390008789908DA18DB28DCD01AA27BB279D8BCA
:1053A0008C8BE0912E09F0912F09309751F0BE01BE
:1053B0006A5E7F4FCE0148961995888D998D9B8B9B
:1053C0008A8BF80184818F7784830E943D3001C0ED
:1053D00080E0DF91CF911F910F910895CF93DF93DC
:1053E000EC010E94A429882311F01D8281E0DF9145
:1053F000CF9108956F927F928F929F92AF92BF92BA
:10540000CF92DF92EF92FF920F931F93DF93CF9390
:1054100000D00F92CDB7DEB77C015A016B01DC01E1
:1054200015968C911597813009F08FC014968C9148
:1054300081FF8BC09EC00097A105B10511F481E0EA
:1054400085C0F7016284738484849584C701B601A2
:10545000A5010E94DE28882309F477C0D7015B9656
:105460008D919C915C97A114B104C104D10489F47D
:1054700057964D915D916D917C915A970E942B3377
:10548000882309F462C0F701178A108E118E128EDC
:105490003DC0D70116964D915D916D917C91199704
:1054A0009E012F5F3F4F0E94B832882309F44DC000
:1054B000D7015B96ED91FC915C9749815A816B8194
:1054C0007C818789803129F088EF9FEFAFEFBFE0C3
:1054D00004C088EF9FEFA0E0B0E0481759076A07C3
:1054E0007B07A0F4CF010E942B33882371F1F701D1
:1054F0004681578160857185838D948D0FEF1FEFF5
:105500002FEF3FE00E941C328823F9F0D701539619
:10551000AD92BD92CD92DC92569714968C911497D1
:10552000806814968C93C7010E94A429882369F08F
:10553000B601A5016A147B048C049D0410F4B40127
:10554000A301C7010E94DE2801C080E00F900F90E8
:105550000F900F90CF91DF911F910F91FF90EF90DF
:10556000DF90CF90BF90AF909F908F907F906F9083
:105570000895F70183899489A589B68984179507C9
:10558000A607B70708F057CFE0CF2F923F924F9270
:105590005F926F927F928F929F92AF92BF92CF92C3
:1055A000DF92EF92FF920F931F93CF93DF93EC0163
:1055B0002A018D81882309F4C6C08C8180FFC3C075
:1055C000D8C025014E185F084B0176E0272E312CFC
:1055D0002C0E3D1E3201B1C02A853B854C855D8570
:1055E0006FEFA62E61E0B62EA222B3228D81790143
:1055F0008A0199E016950795F794E7949A95D1F763
:10560000EB8DFC8D823049F4428D538D648D758D08
:105610004E0D5F1D601F711F3FC0D480DA94DE20E5
:10562000A114B104D9F4DD20C9F4211531054105D7
:10563000510549F48F89988DA98DBA8D8E839F83EA
:10564000A887B9870BC04E815F8168857985CF01B6
:1056500091010E94B832882309F475C0EB8DFC8D4E
:105660004E815F816885798542505040604070402E
:10567000058404C0440F551F661F771F0A94D2F794
:1056800086859785A089B189480F591F6A1F7B1F9E
:105690004D0D511D611D711D80E092E08A199B091D
:1056A00063018615970508F46C018C8186FD06C0A0
:1056B00080E0C81682E0D80609F073C080917205B8
:1056C00090917305A0917405B0917505481759071D
:1056D0006A077B0709F465C08091300B9091310B0C
:1056E0009501860174010E941D27882361F18C0CAD
:1056F0009D1C12C09501205D364FA9014C0D5D1D0A
:10570000D401F90102C081918D93E417F507D9F70F
:10571000E21BF30B8E0E9F1E960140E050E08A853F
:105720009B85AC85BD85820F931FA41FB51F8A87FB
:105730009B87AC87BD876C187D086114710409F0E4
:105740004BCFA20102C04FEF5FEFCA01DF91CF91B3
:105750001F910F91FF90EF90DF90CF90BF90AF908F
:105760009F908F907F906F905F904F903F902F9081
:105770000895AB88BC88CD88DE88EA84FB840C85DC
:105780001D859A0140E050E0D601C5018E199F09A0
:10579000A00BB10B82179307A407B50708F411CF2C
:1057A00013CFCB01BA0140E00E949C30882309F05E
:1057B000A1CFC9CFCF92DF92EF92FF920F931F93A9
:1057C000DF93CF930F92CDB7DEB76C01FC018581DB
:1057D000823070F0E284F38404851585C601BE0131
:1057E0006F5F7F4F41E050E00E94C52A019769F04A
:1057F00020E030E0C9010F90CF91DF911F910F9110
:10580000FF90EF90DF90CF900895F6018285938509
:10581000A485B5854F96A11DB11D82879387A48766
:10582000B587F5E016950795F794E794FA95D1F7C3
:105830008E2D8F70282F30E0E5E0220F331FEA9580
:10584000E1F7205D364FD6CF0F931F93CF93DF93B1
:10585000EC018B018D81882309F041C0FB01878910
:105860008031B1F482E08D831F8A188E198E1A8ED2
:10587000808D918DA0E0B0E045E0880F991FAA1FB0
:10588000BB1F4A95D1F78B8B9C8BAD8BBE8B15C004
:10589000803229F583E08D83FB01428D538D648D29
:1058A000758D4F8B588F698F7A8F9E012D5E3F4F7C
:1058B000C8010E948433882391F01C8F0B8F81E0F4
:1058C0008C831E821F82188619861A861B861C8668
:1058D0001D861E861F86188A198A1A8A01C080E0D2
:1058E000DF91CF911F910F9108951F93CF93DF9375
:1058F000EC01142FE62FF0E075E0EE0FFF1F7A9514
:10590000E1F7E05DF64F8385817121F0842F827489
:1059100009F054C06A8B8091720590917305A09133
:105920007405B09175058E879F87A88BB98B848984
:105930009589A0E0B0E0BC0155274427828D938D66
:10594000A0E0B0E0482B592B6A2B7B2B4F8B588F54
:10595000698F7A8F838590E088719070009751F4F9
:10596000848D958DA68DB78D8B8B9C8BAD8BBE8BCF
:1059700081E00CC0409711F59E012D5E3F4F8B8D4D
:105980009C8D0E9484338823C9F084E08D83812F0D
:105990008F708C831E821F82188619861A861B863A
:1059A0001C861D8616FD02C081E009C0CE0140E0C4
:1059B00050E060E070E00E94FA2901C080E0DF91D1
:1059C000CF911F910895CF93DF93EC019C012A5F43
:1059D0003F4F8B8D9C8D41E050E060E070E00E9475
:1059E000F3338823A1F08F89988DA98DBA8D009704
:1059F000A105B10559F48E819F81A885B9858F8B4A
:105A0000988FA98FBA8F8C8180688C8381E0DF9119
:105A1000CF9108952F923F924F925F927F928F92F3
:105A20009F92AF92BF92CF92DF92EF92FF920F932D
:105A30001F93DF93CF9300D000D0CDB7DEB76C01BA
:105A4000162F072F5E834D83DC0115968C911597D9
:105A5000813009F070C114968C9181FF6CC18EC1A8
:105A6000F601438954896589768982859385A48561
:105A7000B58584179507A607B70731F0C6010E94C0
:105A8000DE28882309F457C1812F902F9C0129011A
:105A90002D803E8017C1D6015B96ED91FC915C97FD
:105AA000DA01C90119E0B695A795979587951A95DA
:105AB000D1F774807A9478227FEF872E71E0972E49
:105AC00082229322772009F04EC08114910409F0BC
:105AD0004AC0D60116964D915D916D917C911997B2
