:100000000C94FE030C944B110C947C110C94AD11C8
:100010000C94DE110C940F120C9440120C9471127B
:100020000C94A2120C942A040C942A040C942A0412
:100030000C942A040C942A040C942A040C942A0488
:100040000C942A040C942A040C942A040C942A0478
:100050000C942A040C942A040C942A040C9407137C
:100060000C942A040C942F150C945B160C942A04FF
:100070000C942A040C942A040C942A040C942A0448
:100080000C942A040C942A040C942A040C942A0438
:100090000C9468150C949A160C942A040C942A0457
:1000A0000C942A040C942A040C942A040C942A0418
:1000B0000C942A040C942A040C942A040C942A0408
:1000C0000C942A040C942A040C942A040C94A11570
:1000D0000C94D9160C942A040C94DA150C94181765
:1000E0000C942A0400002100240027002A002D007F
:1000F0003000330001010000040107010A01000083
:100100002200250028002B002E00310034000201BF
:100110000000050108010B0100002000230026005B
:1001200029002C002F00320000010000030106010D
:10013000090105050505070508080808020202026D
:100140000A0A080804040404010101010101010173
:100150000303030303030303040707070C0C0C0C3E
:100160000C0C0C0C02020202060606060606060627
:100170000B0B0B0B0B0B0B0B0102102020080810B4
:100180002040102040800201020108040201010207
:1001900004081020408080402010080402018004E0
:1001A000020180402010080402010804020101023B
:1001B0000408102040800102040810204080000044
:1001C000090A02080B0C0D070603040100000000D9
:1001D000000000000000000000000000000000001F
:1001E0000000000000000000000011100F000000DF
:1001F00000000000000000000000000000000000FF
:100200000000000000000000003E5B4F5B3E3E6BC4
:100210004F6B3E1C3E7C3E1C183C7E3C181C577DA0
:10022000571C1C5E7F5E1C00183C1800FFE7C3E7EC
:10023000FF0018241800FFE7DBE7FF30483A060EFE
:100240002629792926407F050507407F05253F5A45
:100250003CE73C5A7F3E1C1C08081C1C3E7F1422B5
:100260007F22145F5F005F5F06097F017F00668960
:10027000956A606060606094A2FFA29408047E04A6
:100280000810207E201008082A1C08081C2A0808CC
:100290001E101010100C1E0C1E0C30383E3830068C
:1002A0000E3E0E06000000000000005F0000000788
:1002B000000700147F147F14242A7F2A12231308B6
:1002C000646236495620500008070300001C224192
:1002D000000041221C002A1C7F1C2A08083E080836
:1002E00000807030000808080808000060600020E6
:1002F000100804023E5149453E00427F40007249C9
:100300004949462141494D331814127F102745456C
:1003100045393C4A49493141211109073649494982
:1003200036464949291E00001400000040340000F0
:100330000008142241141414141400412214080259
:10034000015909063E415D594E7C1211127C7F49CC
:100350004949363E414141227F4141413E7F494921
:1003600049417F090909013E414151737F0808084D
:100370007F00417F41002040413F017F081422411E
:100380007F404040407F021C027F7F0408107F3E78
:100390004141413E7F090909063E4151215E7F09E5
:1003A000192946264949493203017F01033F40404C
:1003B000403F1F2040201F3F4038403F6314081437
:1003C0006303047804036159494D43007F4141416F
:1003D0000204081020004141417F04020102044050
:1003E00040404040000307080020545478407F28D4
:1003F0004444383844444428384444287F385454CA
:10040000541800087E090218A4A49C787F080404EC
:100410007800447D40002040403D007F102844008B
:1004200000417F40007C047804787C08040478381C
:1004300044444438FC1824241818242418FC7C084C
:10044000040408485454542404043F44243C4040C9
:10045000207C1C2040201C3C4030403C442810287C
:10046000444C9090907C4464544C440008364100C5
:100470000000770000004136080002010204023C3F
:100480002623263C1EA1A161123A4040207A38540E
:100490005455592155557941215454784121555489
:1004A000784020545579400C1E52721239555555DA
:1004B00059395454545939555454580000457C41C5
:1004C0000002457D420001457C40F0292429F0F0DE
:1004D000282528F07C545545002054547C547C0A2F
:1004E000097F4932494949323248484832324A48FC
:1004F00048303A4141217A3A42402078009DA0A0FC
:100500007D39444444393D4040403D3C24FF24244F
:10051000487E4943662B2FFC2F2BFF0929F620C06C
:10052000887E090320545479410000447D413048BD
:10053000484A32384040227A007A0A0A727D0D1900
:10054000317D2629292F28262929292630484D4062
:1005500020380808080808080808382F10C8ACBA5E
:100560002F102834FA00007B000008142A142222DD
:10057000142A1408AA005500AAAA55AA55AA0000D0
:1005800000FF00101010FF00141414FF001010FFE3
:1005900000FF1010F010F0141414FC001414F700F5
:1005A000FF0000FF00FF1414F404FC141417101FC4
:1005B00010101F101F1414141F00101010F0000052
:1005C00000001F101010101F10101010F01000006D
:1005D00000FF101010101010101010FF100000007D
:1005E000FF140000FF00FF00001F10170000FC04B4
:1005F000F414141710171414F404F40000FF00F797
:1006000014141414141414F700F7141414171410F9
:10061000101F101F141414F4141010F010F0000028
:100620001F101F0000001F14000000FC140000F049
:1006300010F01010FF10FF141414FF141010101FEE
:1006400000000000F010FFFFFFFFFFF0F0F0F0F0FF
:10065000FFFFFF0000000000FFFF0F0F0F0F0F381C
:10066000444438447C2A2A3E147E02020606027E56
:10067000027E0263554941633844443C04407E2075
:100680001E2006027E020299A5E7A5991C2A492A86
:100690001C4C7201724C304A4D4D30304878483015
:1006A000BC625A463D3E494949007E0101017E2A0D
:1006B0002A2A2A2A44445F444440514A4440404440
:1006C0004A51400000FF0103E080FF000008086B72
:1006D0006B083612362436060F090F06000018186C
:1006E0000000001010003040FF0101001F01011E3A
:1006F00000191D1712003C3C3C3C00000000000F9C
:100700000180961180FFB103012C2DB203012C2D25
:10071000B306012C2D012C2DB40107C003A20284C5
:10072000C101C5C2020A00C3028A2AC4028AEEC5F8
:10073000010E20003601C83A0105022A0400020019
:10074000812B04000100A0022A040000007F2B047A
:100750000000009F04E010021C07123732292D29E7
:10076000252B3900010310E110031D07062E2C294B
:100770002D2E2E373F0000021013800A29806412AC
:100780000180321180FF3A81050AB1830006030A15
:10079000360108B6021502B40100C08202700AC117
:1007A0000105C2020102C5823C380AFC021115E0B3
:1007B0001009160920211B131917151E2B040502F9
:1007C0000EE1900B14081E221D181E1B1A242B0666
:1007D00006020F0A2A04000200812B040002008195
:1007E00013800A2980FF7C3C3E5E2B3D3F2F5B5DE2
:1007F0003B2C2A225C002C048218D12311241FBE1A
:10080000CFEFD1E2DEBFCDBF00E00CBF16E0A0E02D
:10081000B2E0E4E5FDE700E00BBF02C007900D92F7
:10082000A439B107D9F71BE0A4E9B6E001C01D92D5
:10083000AF3FB107E1F717E0CCEFD7E004C0229754
:10084000FE010E94A43EC63FD107C9F70E94A0192D
:100850000C940D3B0C94000085E996E066E047E0BF
:1008600028E00E94B0231092CA061092CB06109284
:10087000CC061092CD061092CE061092CF061092A2
:10088000D0061092D1061092D2061092D306109282
:10089000D4061092D5061092D6061092D706109262
:1008A000D8061092D9060E944F136093DD0670930C
:1008B000DE068093DF069093E006089590919406FB
:1008C00080913206981711F40E94920A089590912F
:1008D000940680913206981711F40E94860A0895B2
:1008E000EF92FF920F931F93CF93DF93EC017B0165
:1008F00080E00E94D31220918D0530918E058C01ED
:10090000021B130B81E00E94D31220918F053091BE
:100910009005821B930B9C01C8010496099710F463
:1009200000E010E0C9010496099710F420E030E0DF
:10093000C80160E870E00E94523E79836883C90173
:1009400060E870E00E94523EF701718360830E946C
:100950004F137B018C018091DD069091DE06A09102
:10096000DF06B091E006E816F9060A071B0740F417
:10097000E092DD06F092DE060093DF061093E006BB
:100980008091910590919205A0919305B091940565
:100990002091DD063091DE064091DF065091E006A1
:1009A000820F931FA41FB51F8E159F05A007B107C7
:1009B00010F080E019C0E092DD06F092DE060093B0
:1009C000DF061093E00684E00E94FE1420E0892BED
:1009D00009F421E08091DC06882321F080E02223C5
:1009E00009F481E02093DC06DF91CF911F910F91F4
:1009F000FF90EF90089584E060E00E94181484E076
:100A000061E00E94CB1481E00E94D31290938E0586
:100A100080938D0580E00E94D3129093900580937F
:100A20008F05089587EA99E065E00E9435268823BE
:100A300029F50F920F9280E092E0EDB7FEB7928316
:100A400081830E940F0A88E192E0EDB7FEB792839E
:100A500081830E940F0A8CE292E0EDB7FEB7928389
:100A600081830E940F0A84E492E0EDB7FEB792837F
:100A700081830E940F0A0F900F90FFCF0F920F9269
:100A80008DE792E0EDB7FEB7928381830E940F0A53
:100A90000F900F9008950F931F9305E916E0C8017A
:100AA00061E00E948223C80160E00E942322C80105
:100AB00060E070E040E050E00E94961FC80160E0F6
:100AC00070E00E94A21FC80161E00E949C1FC80143
:100AD0006FE170E00E9490211F910F910895EF92B5
:100AE000FF920F931F93CF93DF93EC018091DA066F
:100AF0009091DB068C179D0789F1D093DB06C0939C
:100B0000DA0685E996E060E070E044E950E020E82C
:100B100030E00CE010E0E0EEEE2EE7E0FE2E0E946A
:100B2000AB2185E996E061E00E949C1F85E996E093
:100B30006FE178EF0E94A21F85E996E060E070E027
:100B400046E950E00E94961F85E996E061E00E9428
:100B50009C1F85E996E0BE010E94EC1ADF91CF91BF
:100B60001F910F91FF90EF9008958CE892E00E9402
:100B70006F0508952F923F924F925F926F927F92EE
:100B80008F929F92AF92BF92CF92DF92EF92FF929D
:100B90000F931F93DF93CF93CDB7DEB72D970FB68B
:100BA000F894DEBF0FBECDBF8DB79EB74091FB0B53
:100BB0005091FC0B4115510511F09A0104C0209190
:100BC00087053091880560918B0570918C05821B9B
:100BD000930B8617970730F52DB73EB74115510592
:100BE00021F4409187055091880500D000D0EDB7E1
:100BF000FEB731968DE892E0ADB7BEB712969C93E2
:100C00008E931197241B350B338322837583648362
:100C10000E940F0AEDB7FEB736960FB6F894FEBFE6
:100C20000FBEEDBF8091C106882311F4662404C075
:100C30001092C106662463941A8219821C821B8258
:100C4000F89490913206809194061D86981711F0C1
:100C5000F1E0FD8778942D85222309F441C030917D
:100C6000E106809132063817E9F02091320600D073
:100C700000D0EDB7FEB731968EE992E0ADB7BEB7C2
:100C800012969C938E93119732831382248315823C
:100C90000E940F0AEDB7FEB736960FB6F894FEBF66
:100CA0000FBEEDBF0E94670C409138065091390687
:100CB000569547958091E6069091E70620913A0671
:100CC00030913B06369527956091E8067091E906CC
:100CD000621B730B841B950B0E94BA0A66246394F3
:100CE000CE010196BE016D5F7F4F0E947004D82E29
:100CF00089819A81892B29F48B819C81892B09F424
:100D000057C0E090E206F090E3060091E4061091EF
:100D1000E506CE010596BE01695F7F4F0E949E0ADF
:100D2000882309F445C08D819E818A30910548F45D
:100D3000E090E206F090E30620EE3FEFE20EF31EB5
:100D40000DC08637910510F420E009C0E090E2065E
:100D5000F090E30680E290E0E80EF91E21E08F813A
:100D600098858A30910538F40091E4061091E506E3
:100D7000005210400CC08637910538F00091E4060F
:100D80001091E506005E1F4F02C0222339F0C70113
:100D9000B8010E94BA0A662463940AC00E94ED0A50
:100DA0006B817C8189819A810E946F0D0E94590B11
:100DB000DD2009F41EC1ADB7BEB71A970FB6F8947F
:100DC000BEBF0FBEADBFEDB7FEB7319685EB92E06B
:100DD00012969C938E9311978091EE069091EF0658
:100DE000A091F006B091F10682839383A483B5832A
:100DF0008091EA069091EB06A091EC06B091ED0689
:100E000086839783A087B1870E940F0AA090EA0685
:100E1000B090EB06C090EC06D090ED06E090EE06A8
:100E2000F090EF060091F0061091F106EDB7FEB7D5
:100E30003A960FB6F894FEBF0FBEEDBF8091C8067C
:100E40009091C906892BE9F52DB73EB72A5030405D
:100E50000FB6F8943EBF0FBE2DBFEDB7FEB731966B
:100E600084ED92E0ADB7BEB712969C938E93119726
:100E7000A282B382C482D582E682F782008711877C
:100E80000E940F0AE092CE06F092CF060093D006A1
:100E90001093D106A092CA06B092CB06C092CC069F
:100EA000D092CD0681E090E09093C9068093C80669
:100EB000EDB7FEB73A960FB6F894FEBF0FBEEDBF82
:100EC00098C02DB73EB72A5030400FB6F8943EBFB9
:100ED0000FBE2DBFEDB7FEB7319680EF92E0ADB7F4
:100EE000BEB712969C938E931197A282B382C4824E
:100EF000D582E682F782008711870E940F0AE0926E
:100F0000D606F092D7060093D8061093D906A09281
:100F1000D206B092D306C092D406D092D5061092D3
:100F2000C9061092C806EDB7FEB738960FB6F8940A
:100F3000FEBF0FBEEDBF8AE093E0928381830E94E3
:100F40000F0A0F900F902091CA063091CB06409166
:100F5000CC065091CD066091CE067091CF0680915F
:100F6000D0069091D106A090D206B090D306C09042
:100F7000D406D090D506E090D606F090D706009122
:100F8000D8061091D9060E94980F8C0100D00F92BC
:100F90008BE193E0ADB7BEB712969C938E931197F9
:100FA00014961C930E9313970E940F0A0F900F90A4
:100FB0000F900F9010161106E4F48091C2069091E4
:100FC000C3068017910728F49093C5068093C40642
:100FD00004C01093C5060093C4064091C206509108
:100FE000C3068091C6069091C706B8010E94430EC1
:100FF00003C0662009F4BFC00E942A0B0E94590B4F
:101000008091C4069091C506029708F49BC000D059
:101010000F92EDB7FEB731968FE293E0ADB7BEB752
:1010200012969C938E9311978091E106828313828E
:101030000E940F0AE1E0F0E0FC87EB871A86198630
:101040000F900F900F900F9073C0E091C606F09133
:10105000C70629853A85E20FF31F408151816281DD
:1010600073818091E1060E94C80B1B012C018091C5
:10107000E2069091E306281A390AE091C606F0913B
:10108000C70689859A85E80FF91F448155816681D5
:1010900077818091E1060E947A0B3B014C0180919F
:1010A000E4069091E506681A790AA985BA8518962A
:1010B000BA87A987E091C606F091C706EA0FFB1F21
:1010C00040815181628173818091E1060E94C80B49
:1010D0005B016C018091E2069091E306A81AB90ABF
:1010E000E091C606F091C70629853A85E20FF31F05
:1010F00044815581668177818091E1060E947A0B57
:101100007B018C018091E4069091E506E81AF90ACA
:1011100085E996E0B101A30195018701FFE1EF2E7A
:10112000F12C0E94C71C8B859C8501969C878B8720
:101130008091C4069091C506AB85BC85A817B907F8
:1011400008F483CF0E94B505BD85BB23A1F0F894B8
:101150008091E106809332068093940678940F92F2
:101160000F9283E493E0EDB7FEB7928381830E94F0
:101170000F0A0F900F908091C8069091C906892B95
:1011800019F483E593E002C089E593E00E946F05BE
:101190002D960FB6F894DEBF0FBECDBFCF91DF9175
:1011A0001F910F91FF90EF90DF90CF90BF90AF9085
:1011B0009F908F907F906F905F904F903F902F9077
:1011C0000895CF92DF92EF92FF920F931F93CF93E8
:1011D000DF938BE299E040E855E260E070E00E9426
:1011E00057178BE299E06DE573E00E94EC1A8BE2F1
:1011F00099E00E9437180E944B050E9412050E9438
:10120000FB040E94610AC090E106CC2DD0E074E09E
:10121000CC0FDD1F7A95E1F762EDC62E65E0D62E84
:10122000CC0EDD1EFE01EA52FA4FD6011C966D91DE
:101230007D918D919C911F972081318142815381B5
:10124000620F731F841F951F22E030E040E050E0E2
:101250000E94873E79018A01C652DA4F68817981FE
:101260008A819B81F6012081318142815381620F05
:10127000731F841F951F22E030E040E050E00E9481
:10128000873EC801B7010E940C0C809138069091EE
:101290003906969587954091E2065091E306609154
:1012A0003A0670913B06769567952091E406309159
:1012B000E506620F731F840F951F0E941F0D81E0CA
:1012C0008093C10682E060E00E94181482E061E031
:1012D0000E94CB1483E060E00E94181483E061E078
:1012E0000E94CB1481E067E674E042E050E00E9487
:1012F000CF1080E06EE574E042E050E00E94CF1035
:1013000068EE73E080E090E00E945D1384E690E078
:101310009093C3068093C2068DB79EB72091FB0BB6
:101320003091FC0B2115310511F0A90104C0409149
:1013300087055091880560918B0570918C05841B01
:10134000950B861B970B80529340B0F48DB79EB7D8
:101350002115310521F42091870530918805821BE4
:10136000930B861B970B03E0969587950A95E1F7FB
:101370009093C3068093C2068091C2069091C306E3
:1013800013E0880F991F1A95E1F70E94A9388093FE
:10139000C6069093C70600D00F9289E693E0ADB7DA
:1013A000BEB712969C938E9311978091C20690912E
:1013B000C30614969C938E9313970E940F0A109263
:1013C000C5061092C4064DB75EB72091FB0B309155
:1013D000FC0B0F900F900F900F902115310521F409
:1013E000209187053091880500D00F928AE793E01D
:1013F000EDB7FEB792838183421B530B5483438323
:101400000E940F0A0F900F900F900F90DF91CF91D5
:101410001F910F91FF90EF90DF90CF900895CF92A2
:10142000DF92EF92FF920F931F93DF93CF93CDB78D
:10143000DEB7EDB6FEB6CEB680919505882359F19C
:101440008DB79EB7805091400FB6F8949EBF0FBEE7
:101450008DBF0DB71EB70F5F1F4FFE013E96C8012F
:1014600060E071E04C855D859F010E943F3B8BE20F
:1014700099E066E873E00E94E91A8BE299E0B8010E
:101480000E94EC1A2E2D3C2DC9010FB6F8949EBF78
:101490000FBE8DBF08C08DB79EB79C010FB6F894E4
:1014A0003EBF0FBE2DBF0FB6F894FEBE0FBEEDBE01
:1014B000CF91DF911F910F91FF90EF90DF90CF9030
:1014C00008951092EA061092EB061092EC06109224
:1014D000ED061092EE061092EF061092F0061092B2
:1014E000F1061092E7061092E6061092E9061092B5
:1014F000E8061092E3061092E2061092E5061092BA
:10150000E406809132068093E106089580913206C8
:10151000853028F4809132068F5F80933206809167
:101520003206089580913206882329F08091320690
:10153000815080933206809132060895FC01DB01D0
:101540008091E6069091E7062091E2063091E3064D
:10155000821B930B918380838091E8069091E9062A
:101560002091E4063091E506821B930B8D939C93AA
:1015700081E0089597FF03C0E0E0F0E010C0E09143
:10158000E106F0E0EE0FFF1FEA56FA4F0190F081FE
:10159000E02DE058F0408E179F0708F4FC01F0930F
:1015A000E306E093E20677FF03C060E070E010C05E
:1015B000E091E106F0E0EE0FFF1FEE55FA4F0190CB
:1015C000F081E02DE05AF040E617F70708F4BF017C
:1015D0007093E5066093E4060895AF92BF92CF92B0
:1015E000DF92EF92FF920F931F934091E606509186
:1015F000E706425050402091E8063091E90622501B
:1016000030408091E10666E0869FC0011124609120
:10161000E2067091E3068A01061B170B6091E4064F
:101620007091E5067901E61AF70A82559A4F65E945
:1016300076E0F5E0CF2ED12CE5E0AE2EB12C0E9465
:1016400018361F910F91FF90EF90DF90CF90BF90D1
:10165000AF900895AF92BF92CF92DF92EF92FF9238
:101660000F931F938091E10626E0829FC001112411
:101670004091E2065091E3062091E4063091E506A0
:1016800082559A4F65E976E000E010E0EE24FF24F1
:10169000B0E8CB2ED12CA0EAAA2EB12C0E9418368D
:1016A0001F910F91FF90EF90DF90CF90BF90AF9080
:1016B00008950F931F936091E6067091E70680915D
:1016C000E2069091E306681B790B4091E806509181
:1016D000E9068091E4069091E506481B590B85E9DF
:1016E00096E022E030E000E018EF0E94931C1F918A
:1016F0000F910895AF92BF92CF92DF92EF92FF9237
:101700000F931F935A016B01A82FBB27A7FDB0951C
:1017100000D00F9262ED75E0FD0184E0EE0FFF1F37
:101720008A95E1F7E60FF71F2081318142815381CD
:10173000AA0FBB1FCD01019613E0880F991F1A95C0
:10174000E1F7680F791FFB01E080F18002811381CE
:10175000AE55BA4F8D919C91A0E0B0E0EDB7FEB7C9
:1017600081839283A383B483C601B501AA24BB24D9
:1017700065010E94FF1A0F900F900F900F901F911C
:101780000F91FF90EF90DF90CF90BF90AF900895B2
:10179000AF92BF92CF92DF92EF92FF920F931F937F
:1017A0005A016B01A82FBB27A7FDB09500D00F925F
:1017B000FD0104E0EE0FFF1F0A95E1F782ED95E0D1
:1017C000E80FF91F2481358146815781E484F5842F
:1017D00006851785AA0FBB1FAA56BA4F8D919C91FB
:1017E000A0E0B0E0EDB7FEB781839283A383B4831A
:1017F000C601B501AA24BB2465010E94FF1A0F90FF
:101800000F900F900F901F910F91FF90EF90DF902E
:10181000CF90BF90AF900895AF92BF92CF92DF92DA
:10182000EF92FF920F931F937B018C0159016A0184
:101830008091E106B801A7010E94C80B7093E306EE
:101840006093E2068091E106B601A5010E947A0B41
:101850002091E2063091E30637FF03C0E0E0F0E0BC
:1018600010C0E091E106F0E0EE0FFF1FEA56FA4FDC
:101870000190F081E02DE058F0402E173F0708F46A
:10188000F901F093E306E093E20677FF03C060E01E
:1018900070E010C0E091E106F0E0EE0FFF1FEE55A2
:1018A000FA4F0190F081E02DE05AF040E617F7077B
:1018B00008F4BF017093E5066093E4061F910F9151
:1018C000FF90EF90DF90CF90BF90AF900895809100
:1018D00032068093E1064091EA065091EB06609152
:1018E000EC067091ED060E94C80B7093E7066093BA
:1018F000E6064091EE065091EF066091F006709179
:10190000F1068091E1060E947A0B7093E9066093DC
:10191000E8068091E1060895AF92BF92CF92DF92E0
:10192000EF92FF920F931F93A82FBB27A7FDB095AF
:1019300000D00F92CD01880F991FFC01EE55FA4F90
:10194000E080F18000E010E0E2EDF5E034E0AA0F85
:10195000BB1F3A95E1F7AE0FBF1FAD90BD90CD9084
:10196000DC90019623E0880F991F2A95E1F7E80F94
:10197000F91F80819181A281B381EDB7FEB7818388
:101980009283A383B483CB01BA0120E030E040E02E
:1019900050E00E94FF1A0F900F900F900F901F9130
:1019A0000F91FF90EF90DF90CF90BF90AF90089590
:1019B000AF92BF92CF92DF92EF92FF920F931F935D
:1019C000992787FD909500D00F92FC01EE0FFF1F25
:1019D000EA56FA4FE080F18000E010E0B4E0880FB2
:1019E000991FBA95E1F7E2EDF5E0DF01A80FB91F05
:1019F0001496AD90BD90CD90DC901797E80FF91F2D
:101A000084859585A685B785EDB7FEB781839283DA
:101A1000A383B483CB01BA0120E030E040E050E082
:101A20000E94FF1A0F900F900F900F901F910F912F
:101A3000FF90EF90DF90CF90BF90AF90089597FF09
:101A400003C080E090E00EC0E091E106F0E0EE0F10
:101A5000FF1FEA56FA4F0190F081E02DE817F907D1
:101A600008F4CF019093E7068093E60677FF03C062
:101A700060E070E00EC0E091E106F0E0EE0FFF1FC5
:101A8000EE55FA4F0190F081E02DE617F70708F4C4
:101A9000BF017093E9066093E806AC0160E070E076
:101AA0008091E1060E94D80C6093EA067093EB06E1
:101AB0008093EC069093ED064091E8065091E9067C
:101AC00060E070E08091E1060E948C0C6093EE066D
:101AD0007093EF068093F0069093F106089540917D
:101AE000E6065091E7062091E8063091E906260FB8
:101AF000371F840F951FB9010E941F0D0895EF92A3
:101B0000FF920F931F93CF93DF93EC0160E070E09F
:101B10004AE050E00E94DE397B018C0161157105BD
:101B20008105910551F52091F90B3091FA0B223284
:101B3000310519F500D000D0EDB7FEB7319685EC30
:101B400093E0ADB7BEB712969C938E9311973383F3
:101B50002283D583C4830E940F0A8DB79EB7069651
:101B60000FB6F8949EBF0FBE8DBF6091F90B7091B8
:101B7000FA0B80E090E00E94621BB701C801DF9180
:101B8000CF911F910F91FF90EF9008954F925F9228
:101B90006F927F928F929F92BF92CF92DF92EF923D
:101BA000FF920F931F93CF93DF934B016A0129019B
:101BB00038017C01E60EF71E00E010E0E801C80DD8
:101BC000D91DF701B080BB2099F0C201801B910B99
:101BD0000297A0F06B2D772767FD7095C3010E94D7
:101BE000253B0F5F1F4F0894E11CF11C009711F07B
:101BF000219604C0F601B1926F01E0CFF601108288
:101C0000CE01DF91CF911F910F91FF90EF90DF9068
:101C1000CF90BF909F908F907F906F905F904F90EC
:101C20000895EF92FF920F931F93CF93DF938C0150
:101C30007B01C0E0D0E00894E108F10815C08BE218
:101C400099E00E94DD17892BD1F38BE299E00E9485
:101C50000E18F801EC0FFD1F80838D3041F08A30A3
:101C600031F0882321F02196CE15DF0540F30C0FCB
:101C70001D1FF8011082CE01DF91CF911F910F91AE
:101C8000FF90EF9008952F923F924F925F926F9244
:101C90007F928F929F92AF92BF92CF92DF92EF92FC
:101CA000FF920F931F93DF93CF93CDB7DEB76A9761
:101CB0000FB6F894DEBF0FBECDBFF82EE92E3B0164
:101CC0008A012DB73EB73A8F298F8DB79EB78456BC
:101CD00090400FB6F8949EBF0FBE8DBF8DB69EB6D6
:101CE0000894811C911C00D000D0EDB7FEB731964E
:101CF00083EF93E0ADB7BEB712969C938E93119786
:101D000073836283558344830E940F0AEDB7FEB745
:101D100036960FB6F894FEBF0FBEEDBF161417042B
:101D200014F417FF1EC000D000D0EDB7FEB73196F7
:101D30008EE194E0ADB7BEB712969C938E93119747
:101D400073826282158304830E940F0A2FEF3FEF94
:101D5000EDB7FEB736960FB6F894FEBF0FBEEDBFD7
:101D6000C6C024018F2D9E2D9C016901AA24BB248D
:101D70008DE0282E312C2C0E3D1E8BE299E066E37F
:101D800074E00E94E91A8BE299E068E374E00E9433
:101D9000EC1A0E944F137B018C013CC00E944F1330
:101DA0006E197F09800B910B695E734080409040F3
:101DB00088F10E944F1300D000D029E334E0ADB782
:101DC000BEB712963C932E9311976E197F09800B24
:101DD000910BEDB7FEB763837483858396830E946E
:101DE0000F0A0F900F900F900F908CE394E0ADB717
:101DF000BEB712969C938E9311970E940F0A0F9074
:101E00000F908BE299E06AE574E00E94E91A2FEFE7
:101E10003FEF6DC08BE299E00E94DD17892B09F43A
:101E2000BDCFC20164E670E00E94110EF82EE92ECB
:101E3000F4018081873561F581818032D1F5C2015D
:101E400062E070E0AE014F5F5F4F2F2D3E2D01EF3E
:101E500013E00E94C60DBC01C201A1012F2D3E2D31
:101E60000E94C60DC1010E947F0D7B018C01CE0135
:101E700001960E947F0DD60114966D937D938D93EC
:101E80009C931797F601E082F1820283138322C0AC
:101E9000853479F40F920F92E0E7F4E0ADB7BEB766
:101EA0001296FC93EE9311970E940F0A0F900F90D9
:101EB00011C00F920F9281E894E0ADB7BEB71296B1
:101EC0009C938E9311970E940F0A2FEF3FEF0F9074
:101ED0000F900DC00894A11CB11CE8E0F0E0CE0EFC
:101EE000DF1E6A147B040CF048CF20E030E0C9010B
:101EF000298D3A8D0FB6F8943EBF0FBE2DBF6A965E
:101F00000FB6F894DEBF0FBECDBFCF91DF911F910A
:101F10000F91FF90EF90DF90CF90BF90AF909F9088
:101F20008F907F906F905F904F903F902F9008958B
:101F30002F923F924F925F926F927F928F929F92D9
:101F4000AF92BF92CF92DF92EF92FF920F931F93C7
:101F5000DF93CF93CDB7DEB764970FB6F894DEBFAB
:101F60000FBECDBF29833A834B835C836D837E8311
:101F70008F839887A986BA86CB86DC86ED86FE8617
:101F80000F87188B2DB73EB73C8B2B8BED80FE80D7
:101F90000F811885A980BA80CB80DC806D847E8417
:101FA0008F84988829843A844B845C848DB79EB74B
:101FB000845690400FB6F8949EBF0FBE8DBFADB74C
:101FC000BEB71196BA8BA98BEDB7FEB772970FB655
:101FD000F894FEBF0FBEEDBF319689EC94E0ADB72B
:101FE000BEB712969C938E931197E282F38204837C
:101FF0001583A682B782C086D18662867386848660
:10200000958626863786408A518A0E940F0AEDB748
:10201000FEB772960FB6F894FEBF0FBEEDBF8BE20F
:1020200099E067EF74E00E94E91A8BE299E0B80149
:10203000A7012AE030E00E948A1A8BE299E061EF62
:1020400073E00E94E91A8BE299E0B601A5012AE04B
:1020500030E00E948A1A8BE299E061EF73E00E94FF
:10206000E91A8BE299E0B401A3012AE030E00E9472
:102070008A1A8BE299E061EF73E00E94E91A8BE221
:1020800099E0B201A1012AE030E00E948A1A8BE2B5
:1020900099E068E374E00E94EC1A0E944F137B0100
:1020A0008C0116C00E944F136E197F09800B910B93
:1020B000615177428040904058F00F920F928AEF22
:1020C00094E0ADB7BEB712969C938E93119740C023
:1020D0008BE299E00E94DD17892B21F389899A8987
:1020E00064E670E00E94110EAC0142505040EDB722
:1020F000FEB7E41BF50B0FB6F894FEBF0FBEEDBFA5
:102100006DB77EB76F5F7F4FA989BA898C918E3486
:10211000B9F411968C911197803291F420E030E05F
:102120001296FB01E20FF31F04C08D9181932F5F84
:102130003F4F24173507C8F3CB010E947F0D0EC017
:102140000F920F9284E195E0EDB7FEB79283818301
:102150000E940F0A6FEF7FEF0F900F90CB012B893A
:102160003C890FB6F8943EBF0FBE2DBF64960FB6E4
:10217000F894DEBF0FBECDBFCF91DF911F910F91BD
:10218000FF90EF90DF90CF90BF90AF909F908F9097
:102190007F906F905F904F903F902F900895883080
:1021A00008F078C0E82FF0E0EE0FFF1FEE50F94F77
:1021B000718360838330D9F0843030F4813009F446
:1021C00044C0823060F439C0853051F18530D8F098
:1021D000863009F446C0873009F05CC04FC080915A
:1021E00069008C7F842B80936900E89A0895809120
:1021F0006900440F551F440F551F837F842B809324
:102200006900E99A08958091690074E0440F551FB0
:102210007A95E1F78F7C842B80936900EA9A089580
:102220008091690066E0440F551F6A95E1F78F734E
:10223000842B80936900EB9A089580916A008C7FCB
:10224000842B80936A00EC9A089580916A00440F71
:10225000551F440F551F837F842B80936A00ED9A8E
:10226000089580916A0024E0440F551F2A95E1F7F4
:102270008F7C842B80936A00EE9A089580916A0087
:1022800096E0440F551F9A95E1F78F73842B809346
:102290006A00EF9A08951F920F920FB60F920BB635
:1022A0000F9211242F933F934F935F936F937F93DC
:1022B0008F939F93AF93BF93EF93FF938091F60615
:1022C0009091F706892B29F0E091F606F091F70638
:1022D0001995FF91EF91BF91AF919F918F917F9150
:1022E0006F915F914F913F912F910F900BBE0F9087
:1022F0000FBE0F901F9018951F920F920FB60F925E
:102300000BB60F9211242F933F934F935F936F93CC
:102310007F938F939F93AF93BF93EF93FF9380919E
:10232000F8069091F906892B29F0E091F806F091D2
:10233000F9061995FF91EF91BF91AF919F918F9100
:102340007F916F915F914F913F912F910F900BBEB5
:102350000F900FBE0F901F9018951F920F920FB6FF
:102360000F920BB60F9211242F933F934F935F93CD
:102370006F937F938F939F93AF93BF93EF93FF934D
:102380008091FA069091FB06892B29F0E091FA06DC
:10239000F091FB061995FF91EF91BF91AF919F913D
:1023A0008F917F916F915F914F913F912F910F90FE
:1023B0000BBE0F900FBE0F901F9018951F920F929B
:1023C0000FB60F920BB60F9211242F933F934F939A
:1023D0005F936F937F938F939F93AF93BF93EF938D
:1023E000FF938091FC069091FD06892B29F0E091E6
:1023F000FC06F091FD061995FF91EF91BF91AF9109
:102400009F918F917F916F915F914F913F912F910C
:102410000F900BBE0F900FBE0F901F9018951F923C
:102420000F920FB60F920BB60F9211242F933F937A
:102430004F935F936F937F938F939F93AF93BF93CC
:10244000EF93FF938091F2069091F306892B29F088
:10245000E091F206F091F3061995FF91EF91BF918B
:10246000AF919F918F917F916F915F914F913F912C
:102470002F910F900BBE0F900FBE0F901F901895CD
:102480001F920F920FB60F920BB60F9211242F933B
:102490003F934F935F936F937F938F939F93AF93EC
:1024A000BF93EF93FF938091F4069091F506892BEB
:1024B00029F0E091F406F091F5061995FF91EF915E
:1024C000BF91AF919F918F917F916F915F914F914C
:1024D0003F912F910F900BBE0F900FBE0F901F904A
:1024E00018951F920F920FB60F920BB60F921124F0
:1024F0002F933F934F935F936F937F938F939F930C
:10250000AF93BF93EF93FF938091FE069091FF06E8
:10251000892B29F0E091FE06F091FF061995FF91B5
:10252000EF91BF91AF919F918F917F916F915F914B
:102530004F913F912F910F900BBE0F900FBE0F90B8
:102540001F9018951F920F920FB60F920BB60F9215
:1025500011242F933F934F935F936F937F938F93A8
:102560009F93AF93BF93EF93FF9380910007909158
:102570000107892B29F0E0910007F09101071995D7
:10258000FF91EF91BF91AF919F918F917F916F914B
:102590005F914F913F912F910F900BBE0F900FBE07
:1025A0000F901F901895382F863308F036532091DE
:1025B0007B00832F86958695869590E0817090703C
:1025C00043E0880F991F4A95E1F7277F282B209336
:1025D0007B003770809133068295880F880F807C4E
:1025E000832B80937C0080917A00806480937A00B2
:1025F00080917A0086FDFCCF20917800409179008F
:10260000942F80E030E0282B392BC90108951F92C8
:102610000F920FB60F9211242F933F938F939F9396
:10262000AF93BF938091060790910707A091080789
:10263000B091090730910A070196A11DB11D232F02
:102640002D5F2D3720F02D570196A11DB11D209330
:102650000A078093060790930707A0930807B09393
:1026600009078091020790910307A0910407B09198
:1026700005070196A11DB11D8093020790930307E2
:10268000A0930407B0930507BF91AF919F918F91DD
:102690003F912F910F900FBE0F901F9018958FB7FD
:1026A000F894209106073091070740910807509150
:1026B00009078FBFB901CA0108959B01AC017FB71B
:1026C000F8948091020790910307A0910407B091BC
:1026D000050766B5A89B05C06F3F19F00196A11DBF
:1026E000B11D7FBFBA2FA92F982F8827860F911D64
:1026F000A11DB11D62E0880F991FAA1FBB1F6A951B
:10270000D1F7BC012DC0FFB7F894809102079091DA
:102710000307A0910407B0910507E6B5A89B05C083
:10272000EF3F19F00196A11DB11DFFBFBA2FA92FD0
:10273000982F88278E0F911DA11DB11DE2E0880FF3
:10274000991FAA1FBB1FEA95D1F7861B970B885EBE
:102750009340C8F2215030404040504068517C4F77
:10276000211531054105510571F60895789484B518
:10277000826084BD84B5816084BD85B5826085BD7D
:1027800085B5816085BDEEE6F0E080818160808363
:10279000E1E8F0E010828081826080838081816046
:1027A0008083E0E8F0E0808181608083E1EBF0E00D
:1027B000808184608083E0EBF0E0808181608083B1
:1027C000E1E9F0E0808182608083808181608083A4
:1027D000E0E9F0E0808181608083E1EAF0E08081DF
:1027E00082608083808181608083E0EAF0E0808184
:1027F00081608083E1E2F1E080818260808380817A
:1028000081608083E0E2F1E0808181608083EAE79B
:10281000F0E0808184608083808182608083808119
:10282000816080838081806880831092C1000895D8
:10283000CF93DF93482F50E0CA0188589E4FFC0188
:1028400034914E5C5E4FFA018491882369F190E0E7
:10285000880F991FFC01EC51FF4FA591B491FC0129
:10286000E250FF4FC591D491662351F42FB7F894ED
:102870008C91932F909589238C93888189230BC009
:10288000623061F42FB7F8948C91932F909589233F
:102890008C938881832B88832FBF06C09FB7F894C1
:1028A0008C91832B8C939FBFDF91CF9108958930BA
:1028B00009F449C08A30A0F4843051F1853040F4E5
:1028C000823079F1833000F5813009F063C026C091
:1028D000873079F1883098F5863009F05BC025C0E3
:1028E0008D3009F442C08E3028F48B30B1F18C3039
:1028F000C0F52DC0803109F442C0813109F445C0D2
:102900008F3009F047C037C0809180008F7703C0B7
:10291000809180008F7D80938000089584B58F77AB
:1029200002C084B58F7D84BD08958091B0008F77FB
:1029300003C08091B0008F7D8093B0000895809196
:1029400090008F7707C0809190008F7D03C08091A9
:102950009000877F8093900008958091A0008F77EA
:1029600007C08091A0008F7D03C08091A000877F69
:102970008093A0000895809120018F7703C08091FB
:1029800020018F7D80932001089580912001877F11
:10299000809320010895FF920F931F93F62E482FE6
:1029A00050E0CA0182549E4FFC012491CA0188580C
:1029B0009E4FFC0114914E5C5E4FFA01049100237E
:1029C000C9F0222319F0822F0E945714E02FF0E063
:1029D000EE0FFF1FE250FF4FA591B4919FB7F894FF
:1029E000FF2021F48C911095812302C08C91812BC2
:1029F0008C939FBF1F910F91FF9008950F931F938A
:102A0000482F50E0CA0182549E4FFC012491CA0114
:102A100088589E4FFC0104914E5C5E4FFA01149160
:102A2000112319F420E030E015C0222319F0822F81
:102A30000E945714812F90E0880F991F885E9E4F47
:102A4000FC01A591B4918C9120E030E0802311F03D
:102A500021E030E0C9011F910F91089508951F9260
:102A60000F920FB60F920BB60F9211242F933F9334
:102A70004F938F939F93EF93FF934091C6002091C4
:102A80004B0730914C072F5F3F4F2F733070809171
:102A90004D0790914E072817390759F0E0914B07E1
:102AA000F0914C07E55FF84F408330934C0720933B
:102AB0004B07FF91EF919F918F914F913F912F91F4
:102AC0000F900BBE0F900FBE0F901F90189508959A
:102AD0001F920F920FB60F920BB60F9211242F93E5
:102AE0003F934F938F939F93EF93FF934091CE002B
:102AF0002091D3073091D4072F5F3F4F2F73307051
:102B00008091D5079091D6072817390759F0E091A1
:102B1000D307F091D407ED56F84F40833093D40794
:102B20002093D307FF91EF919F918F914F913F9108
:102B30002F910F900BBE0F900FBE0F901F90189506
:102B400008951F920F920FB60F920BB60F92112499
:102B50002F933F934F938F939F93EF93FF934091C6
:102B6000D60020915B0830915C082F5F3F4F2F7398
:102B7000307080915D0890915E082817390759F0F0
:102B8000E0915B08F0915C08E55EF74F408330937D
:102B90005C0820935B08FF91EF919F918F914F917B
:102BA0003F912F910F900BBE0F900FBE0F901F9073
:102BB000189508951F920F920FB60F920BB60F92B1
:102BC00011242F933F934F938F939F93EF93FF93F2
:102BD000409136012091E3083091E4082F5F3F4F88
:102BE0002F7330708091E5089091E6082817390717
:102BF00059F0E091E308F091E408ED55F74F408378
:102C00003093E4082093E308FF91EF919F918F9117
:102C10004F913F912F910F900BBE0F900FBE0F90D1
:102C20001F901895E0913709F0913809E05CFF4F4B
:102C30008191919120813181821B930B8F739070D0
:102C4000892B11F00E942E15E0915609F091570939
:102C5000E05CFF4F8191919120813181821B930B28
:102C60008F739070892B11F00E946715E0917509A0
:102C7000F0917609E05CFF4F819191912081318143
:102C8000821B930B8F739070892B11F00E94A015FB
:102C9000E0919409F0919509E05CFF4F8191919149
:102CA00020813181821B930B8F739070892B11F0DF
:102CB0000E94D91508951F920F920FB60F920BB66E
:102CC0000F9211242F933F938F939F93EF93FF9332
:102CD00020918F07309190078091910790919207F2
:102CE0002817390731F48091C1008F7D8093C1008E
:102CF00014C0E0919107F0919207E15BF84F2081B9
:102D0000809191079091920701968F7390709093A4
:102D10009207809391072093C600FF91EF919F91B6
:102D20008F913F912F910F900BBE0F900FBE0F9080
:102D30001F9018951F920F920FB60F920BB60F921D
:102D400011242F933F938F939F93EF93FF932091A1
:102D50001708309118088091190890911A082817BF
:102D6000390731F48091C9008F7D8093C90014C068
:102D7000E0911908F0911A08E952F84F20818091EA
:102D8000190890911A0801968F73907090931A0801
:102D9000809319082093CE00FF91EF919F918F911E
:102DA0003F912F910F900BBE0F900FBE0F901F9071
:102DB00018951F920F920FB60F920BB60F92112417
:102DC0002F933F938F939F93EF93FF9320919F08AF
:102DD0003091A0088091A1089091A2082817390786
:102DE00031F48091D1008F7D8093D10014C0E091A7
:102DF000A108F091A208E15AF74F20818091A10823
:102E00009091A20801968F7390709093A20880937E
:102E1000A1082093D600FF91EF919F918F913F9150
:102E20002F910F900BBE0F900FBE0F901F90189513
:102E30001F920F920FB60F920BB60F9211242F9381
:102E40003F938F939F93EF93FF93209127093091A6
:102E500028098091290990912A092817390731F406
:102E6000809131018F7D8093310114C0E091290957
:102E7000F0912A09E951F74F208180912909909119
:102E80002A0901968F73907090932A0980932909DB
:102E900020933601FF91EF919F918F913F912F9158
:102EA0000F900BBE0F900FBE0F901F901895AF9212
:102EB000BF92DF92EF92FF920F931F93CF93DF9316
:102EC000EC017A018B01DD24403081EE580780E06F
:102ED000680780E0780711F0DD24D39491E0A92EF3
:102EE000B12CEC89FD89DD2069F0C5010E8C02C092
:102EF000880F991F0A94E2F7808360E079E08DE300
:102F000090E005C0108260E874E88EE190E0A801CE
:102F100097010E94653E21503040404050405695F8
:102F200047953795279580E12030380720F0DD2040
:102F300011F0DD24D6CFE889F9893083EA89FB894D
:102F40002083EE89FF89408121E030E0C9010A8CAD
:102F500002C0880F991F0A94E2F7482B4083EE893C
:102F6000FF894081C9010B8C02C0880F991F0A9408
:102F7000E2F7482B4083EE89FF894081C9010C8C20
:102F800002C0880F991F0A94E2F7482B4083EE890C
:102F9000FF8980810D8C02C0220F331F0A94E2F753
:102FA000209528232083DF91CF911F910F91FF90CF
:102FB000EF90DF90BF90AF900895DC011C96ED91EB
:102FC000FC911D97E05CFF4F2191319180819181AF
:102FD000281B390B2F733070C9010895DC011C9632
:102FE000ED91FC911D97E05CFF4F20813181E05411
:102FF000F040DF01AE5BBF4F8D919C911197281778
:10300000390719F42FEF3FEF07C08D919C91E80F1E
:10301000F91F8081282F30E0C9010895DC011C963A
:10302000ED91FC911D97E05CFF4F20813181E054D0
:10303000F040DF01AE5BBF4F8D919C911197281737
:10304000390719F42FEF3FEF10C08D919C91119724
:10305000E80FF91F20818D919C91119701968F7334
:10306000907011969C938E9330E0C9010895FC01F5
:1030700086859785DC01A05CBF4FFC01EE5BFF4FAE
:103080002D913C9111978081918128173907C1F7C3
:103090000895CF93DF93EC01EE85FF85E05CFF4F51
:1030A00020813181E054F0402F5F3F4F2F7330700B
:1030B000DF01AE5BBF4F8D919C91119728173907A7
:1030C000D1F3E05CFF4F80819181E054F040E80F44
:1030D000F91F6083EE85FF85E05CFF4F318320831D
:1030E000EE89FF89208181E090E00D8C02C0880F7D
:1030F000991F0A94E2F7282B208381E090E0DF916A
:10310000CF9108951F9310922E0910922D0928EE49
:1031100033E040E050E020932F0930933009409392
:1031200031095093320960E476E070932C09609382
:103130002B098BE097E090933809809337098FE44F
:1031400097E090933A098093390985EC90E0909349
:103150003C0980933B0984EC90E090933E09809376
:103160003D0980EC90E09093400980933F0981EC09
:1031700090E0909342098093410986EC90E090930F
:1031800044098093430914E010934509B3E0B093D8
:103190004609A7E0A0934709F5E0F0934809E1E06C
:1031A000E093490910924D0910924C0920934E0961
:1031B00030934F09409350095093510970934B0934
:1031C00060934A0983E997E09093570980935609E1
:1031D00087ED97E090935909809358098DEC90E022
:1031E00090935B0980935A098CEC90E090935D0971
:1031F00080935C0988EC90E090935F0980935E096E
:1032000089EC90E090936109809360098EEC90E0E6
:10321000909363098093620910936409B0936509E0
:10322000A0936609F0936709E093680910926C090E
:1032300010926B0920936D0930936E0940936F09CA
:103240005093700970936A09609369098BE198E063
:1032500090937609809375098FE598E090937809AB
:103260008093770985ED90E090937A0980937909AE
:1032700084ED90E090937C0980937B0980ED90E051
:1032800090937E0980937D0981ED90E09093800971
:1032900080937F0986ED90E0909382098093810965
:1032A00010938309B0938409A0938509F09386094C
:1032B000E093870910928B0910928A0920938C0958
:1032C00030938D0940938E0950938F09709389092B
:1032D0006093880983EA98E0909395098093940914
:1032E00087EE98E0909397098093960985E391E0A3
:1032F000909399098093980984E391E090939B09B6
:1033000080939A0980E391E090939D0980939C09B2
:1033100081E391E090939F0980939E0986E391E079
:103320009093A1098093A0091093A209B093A309D7
:10333000A093A409F093A509E093A6091F9108950D
:10334000CF93DF930E94B6130E94E108C2E1D6E159
:103350000E94BA052097E1F30E941216F9CF089552
:10336000CF92DF92EF92FF920F931F93CF93DF9351
:103370007C016B018A01C0E0D0E00FC0D6016D91E5
:103380006D01D701ED91FC910190F081E02DC70115
:103390001995C80FD91F015010400115110571F77B
:1033A000CE01DF91CF911F910F91FF90EF90DF90B1
:1033B000CF900895EF92FF920F931F938C01DC0141
:1033C000ED91FC910190F081E02D6DE019957C016B
:1033D000D801ED91FC910190F081E02DC8016AE0E7
:1033E00019959C012E0D3F1DC9011F910F91FF9052
:1033F000EF900895EF92FF920F931F937C01DC01F1
:10340000ED91FC910190F081E02D19958C01C7019F
:103410000E94DA19080F191FC8011F910F91FF9020
:10342000EF900895CF93DF93DB010D900020E9F733
:103430001197A61BB70BEC01E881F9810280F3819B
:10344000E02DAD011995DF91CF9108954F925F92D4
:103450007F928F929F92AF92BF92CF92DF92EF9224
:10346000FF920F931F93DF93CF93CDB7DEB7A19752
:103470000FB6F894DEBF0FBECDBF2C01742ECB016A
:10348000223008F42AE019A231E2C32ED12CCC0E4E
:10349000DD1E822E9924AA24BB24672D752FA50139
:1034A00094010E94653E79018A01C801B701A50116
:1034B00094010E941F3E472D461B0894C108D10865
:1034C0004A3014F4405D01C0495CF6014083E114C8
:1034D000F1040105110521F07E2C5F2DC801DDCF1F
:1034E000C201B6010E94121AA1960FB6F894DEBF6F
:1034F0000FBECDBFCF91DF911F910F91FF90EF9045
:10350000DF90CF90BF90AF909F908F907F905F9013
:103510004F900895CF92DF92EF92FF920F931F93F7
:10352000CF93DF93EC016A017B012115310541F452
:10353000E881F9810190F081E02D642F19951FC079
:103540002A303105D1F477FF17C0E881F981019065
:10355000F081E02D6DE219958C0144275527BA01C1
:103560004C195D096E097F09CE012AE00E94261AD6
:103570009801280F391F04C02AE00E94261A9C01D6
:10358000C901DF91CF911F910F91FF90EF90DF90D4
:10359000CF900895CF92DF92EF92FF920F931F93F7
:1035A0006C017B019A010027F7FC0095102FB801F0
:1035B000A7010E948A1A8C01C6010E94DA19080F1D
:1035C000191FC8011F910F91FF90EF90DF90CF90CE
:1035D00008950E94121A0895EF92FF920F931F937D
:1035E0007C010E94121A8C01C7010E94DA19080F8F
:1035F000191FC8011F910F91FF90EF9008952F920E
:103600003F924F925F926F927F928F929F92AF9272
:10361000BF92CF92DF92EF92FF920F931F93DF93AF
:10362000CF93CDB7DEB73B014C0119012A016E895A
:103630007F89888D998D6A197B098C099D09621A89
:10364000730A840A950AA40193010E941F3EE2189E
:10365000F30804091509A80197010E94873E2A0D65
:103660003B1D4C1D5D1DB901CA01CF91DF911F911A
:103670000F91FF90EF90DF90CF90BF90AF909F9011
:103680008F907F906F905F904F903F902F90089514
:10369000CF93DF93C0E0D0E006C0C60FD71F6150C4
:1036A0007040804090406115710581059105A9F732
:1036B0008BE299E06BE475E00E94E91ACE01DF919C
:1036C000CF910895CF93DF93EB01892B39F58BE2EE
:1036D00099E06CE475E00E94EC1AF8948DE061E0EA
:1036E0000E9418148BE299E0BE014AE050E00E946B
:1036F000CA1A8DE060E00E94CB1460E472E48FE0AF
:1037000090E00E94481B8DE061E00E94CB1460E4D1
:1037100072E48FE090E00E94481BE4CFDF91CF91EC
:103720000895FC011382128280E596E091838083E4
:103730007583648357834683718760875387428785
:10374000158A158614861786168621E0248B8FEF3E
:103750009FEF938B828B918B808B268B08952F927A
:103760003F924F925F926F927F928F929F92AF9211
:10377000BF92CF92DF92EF92FF920F931F93DF934E
:10378000CF93CDB7DEB72E970FB6F894DEBF0FBE3E
:10379000CDBF9E878D871B015E834D83A7012601C8
:1037A00071E0C72ED12CC21AD30AC901880F991F04
:1037B00066277727681B790B7A8369836D807E8003
:1037C00008946108710883E0882E912C8E0C9F1C50
:1037D000790181E090E09C838B83AA24BB2410E0D4
:1037E000D801A170B070B887AF83FA013196FA871B
:1037F000E987B801627070707C876B8777C0D7FCEF
:103800000AC00894E108F10889819A8102969A8396
:103810008983C80ED91E0894A11CB11CAB81BC8140
:103820001296BC83AB83EF81F885EF2B41F1AD8518
:10383000BE85ED91FC911197B501620D731D4D810F
:103840005E814E195F099701220F331F89859A8582
:10385000280F391F0084F185E02DCD0182011995D3
:10386000AD85BE85ED91FC911197B701620D731D79
:103870000084F185E02DCD01A30194011995EB851C
:10388000FC85EF2B41F1AD85BE85ED91FC91119743
:10389000B1016A197B094D815E814E195F0997015B
:1038A000220F331F89859A85280F391F0084F185DF
:1038B000E02DCD0182011995AD85BE85ED91FC917C
:1038C0001197B1016E197F090084F185E02DCD01BA
:1038D000A30194011995EB81FC81CE0EDF1E0894A3
:1038E0006108710862E070E0860E971EAE14BF0496
:1038F0000CF485CF2E960FB6F894DEBF0FBECDBF69
:10390000CF91DF911F910F91FF90EF90DF90CF90BB
:10391000BF90AF909F908F907F906F905F904F90EF
:103920003F902F9008956F927F928F929F92AF92C7
:10393000BF92CF92DF92EF92FF920F931F937C0181
:103940004B013A0159016801DC01ED91FC91421BE8
:10395000530B220F331F2F5F3F4F0084F185E02D63
:103960001995C701B401A301950103E0EE24FF24DA
:103970000E94AF1B1F910F91FF90EF90DF90CF90AF
:10398000BF90AF909F908F907F906F9008952F92EF
:103990003F924F925F926F927F928F929F92AF92DF
:1039A000BF92CF92DF92EF92FF920F931F93DF931C
:1039B000CF9300D00F92CDB7DEB73C017C836B83F1
:1039C0006A015901FA82E982222433249801241BD6
:1039D000350B37FF03C0309521953F4FC5014B8113
:1039E0005C81841B950B97FF03C0909581959F4F39
:1039F000821793075CF481E0282E312CC601CB801E
:103A0000DC809C838B83C80185015C018B819C8158
:103A1000A816B90644F4C501AB80BC809C838B8397
:103A2000C80186016C012501AB81BC814A1A5B0A81
:103A30007801EC18FD08F7FE04C0F094E194F10859
:103A4000F394C016D10624F088248A94982C03C0DD
:103A5000B1E08B2E912CC20162E070E00E94523ED8
:103A60008B0125C0D301ED91FC912114310441F06B
:103A70000480F581E02DC301B6014B815C8107C054
:103A80000480F581E02DC3016B817C81A601298131
:103A90003A8119950E191F0917FF04C0C80CD91CCB
:103AA000040D151DEB81FC813196FC83EB834B816A
:103AB0005C81A416B506B4F60F900F900F900F908E
:103AC000CF91DF911F910F91FF90EF90DF90CF90FA
:103AD000BF90AF909F908F907F906F905F904F902E
:103AE0003F902F9008954F925F926F927F928F92A6
:103AF0009F92AF92BF92CF92DF92EF92FF920F937D
:103B00001F936C015B014A0139012801DC01ED9131
:103B1000FC910284F385E02D87011995D601ED9182
:103B2000FC91A40141505040440D551D0284F38581
:103B3000E02DC601B50193011995D601ED91FC91D7
:103B40000084F185E02DC601B501A401920119950B
:103B5000D601ED91FC910894A108B108A60CB71C00
:103B60000084F185E02DC601B501A40192011995EB
:103B70001F910F91FF90EF90DF90CF90BF90AF908B
:103B80009F908F907F906F905F904F900895CF920D
:103B9000DF92EF92FF920F931F93DC016B0178018C
:103BA000ED91FC918A0101501040020F131F068015
:103BB000F781E02D960119951F910F91FF90EF90DD
:103BC000DF90CF900895CF92DF92EF92FF920F9304
:103BD0001F93DC016A01C9017801ED91FC911197F5
:103BE0009B0121503040280F391F0680F781E02DBE
:103BF000CD01860119951F910F91FF90EF90DF90F5
:103C0000CF9008956F927F928F929F92AF92BF92C2
:103C1000CF92DF92EF92FF920F931F93CF93DF9398
:103C20005C013A0169014801EB01C60ED71E0DC0C7
:103C3000D501ED91FC910084F185E02DC501BE0117
:103C4000A3019401870119952196CC15DD0584F314
:103C5000DF91CF911F910F91FF90EF90DF90CF9068
:103C6000BF90AF909F908F907F906F900895EF924C
:103C7000FF920F931F93FC017B01A081B1812085EE
:103C80003185028513851E960D90BC91A02D60E0B4
:103C900070E040E050E0FD0119951F910F91FF90F9
:103CA000EF9008952F923F924F925F926F927F9282
:103CB0008F929F92AF92BF92CF92DF92EF92FF923C
:103CC0000F931F93DF93CF93CDB7DEB72F970FB628
:103CD000F894DEBF0FBECDBF5C015E834D831887B5
:103CE0000F83FA86E986CB86DC0118968D919C912C
:103CF0001997681779070CF0A4C01A968D919C91BA
:103D00001B97481759070CF09CC0EC2DF0E0FF877B
:103D1000EE87CF01880F991F8E0F9F1F880F991F65
:103D2000860F971F181619060CF08BC0CF01F3E011
:103D3000880F991FFA95E1F7840F951F1816190639
:103D40000CF07FC085E0289FA00111245A8349838D
:103D50002B011B011C825C81553011F480E005C0F1
:103D6000E981FA81EC5FFD4F84912C863D866D8060
:103D70007E8043011B82C82EDD2480FF1CC0D5013C
:103D8000ED91FC91BB85B13049F40480F581E02DC3
:103D9000C501B201A3012F81388522C00684F785B1
:103DA000E02DC5016C857D85A4012E853F858901A7
:103DB000EF80F88423C0E985FA852F813885E217E2
:103DC000F307E9F0D501ED91FC91BB85B13051F4D9
:103DD0000480F581E02DC501B201A30129853A8552
:103DE00019950DC00684F785E02DC5016C857D858C
:103DF000A4012E853F858901E984FA841995EB8118
:103E0000EF5FEB832E853F85820E931E0894611C25
:103E1000711CE83021F0D594C7948C2DACCF3C8137
:103E20003F5F3C834E855F85240E351E0894411C00
:103E3000511C89819A8101969A838983363009F0D1
:103E40008ACF2F960FB6F894DEBF0FBECDBFCF91AD
:103E5000DF911F910F91FF90EF90DF90CF90BF9077
:103E6000AF909F908F907F906F905F904F903F901A
:103E70002F900895CF92EF92FF920F931F93CF93BD
:103E8000DF93EC01262F6A3061F42C8930E003E0E7
:103E9000220F331F0A95E1F78E859F85820F931FAE
:103EA00037C06D30C9F16C857D854E855F85088989
:103EB0001989EA88FB88CC880E94521E2C8986E0EA
:103EC000289FB00111248C859D85680F791F7D87FF
:103ED0006C878E89882301F1422F50E08AEF9FEF93
:103EE0009C01429FC001439F900D529F900D112451
:103EF00028853985820F931F861797076CF413E086
:103F0000440F551F1A95E1F78E859F85840F951FE5
:103F10009F878E871D861C8681E090E0DF91CF9180
:103F20001F910F91FF90EF90CF900895FC0175873E
:103F30006487578746870895FC01662309F461E08A
:103F4000648B0895FC01738B628B718B608B089579
:103F50000895DC0158968C915897882329F06EBDFE
:103F60000DB407FEFDCF089530E840E050E070E06A
:103F7000832F90E0862397235996ED91FC915A97D1
:103F800096962C919697892B21F08081822B8083A5
:103F900004C080812095282320835B96ED91FC91BD
:103FA0005C97808197969C919797892B80835B96ED
:103FB000ED91FC915C97908197968C919797809565
:103FC0008923808336954F5F5F4F4830510581F6D6
:103FD00008950F931F938C01DC015F96ED91FC9186
:103FE0009097908199968C91999780958923808359
:103FF0005D96ED91FC915E97908198968C9180955D
:1040000089238083C8010E94A91FD8015D96ED9184
:10401000FC915E97808198969C91892B80831F915B
:104020000F9108950F931F938C01DC015F96ED9122
:10403000FC919097808199969C919997892B808388
:104040005D96ED91FC915E97908198968C9180950C
:1040500089238083C8010E94A91FD8015D96ED9134
:10406000FC915E97808198969C91892B80831F910B
:104070000F910895CF92DF92EF92FF920F931F93CB
:104080007C01162FC42ED22E6AE20E94E91FC701BE
:1040900060E00E941220F70162A5610FC7010E9433
:1040A0001220C70160E00E941220F70162A56D0D89
:1040B000C7010E941220C7016BE20E94E91FC701DD
:1040C00060E00E941220F70163A56C0DC7010E94F9
:1040D0001220C70160E00E941220F70163A5600F63
:1040E000C7010E941220C7016CE20E94E91F1F91C4
:1040F0000F91FF90EF90DF90CF900895FF920F9374
:104100001F938C01F62E672FDC015F96ED91FC91D9
:104110009097808199969C919997892B80835D9641
:10412000ED91FC915E97908198968C918095892372
:104130008083C8010E94A91FC8016F2D0E94A91F7A
:10414000D8015D96ED91FC915E97808198969C9147
:10415000892B80831F910F91FF900895FF920F93F9
:104160001F93CF93DF93EC01F22E132F77FD2EC018
:1041700088859985681779074CF557FD27C08A858A
:104180009B854817590714F5262F2F5F042F0F5FC3
:10419000CE010E943A20EF8DF8A1808199A5892B4C
:1041A0008083ED8DFE8D908188A580958923808305
:1041B000CE01612F0E94A91FCE016F2D0E94A91F61
:1041C000ED8DFE8D808198A5892B8083DF91CF9125
:1041D0001F910F91FF900895DF92EF92FF920F933E
:1041E0001F93CF93DF93EC01FB017901D02E8885DB
:1041F000998568177907D4F52A853B8542175307B7
:10420000ACF5C701840F951F281739071CF47901F5
:10421000E41AF50A042F01500E0DCE016E2F2E2F39
:104220000E943A20EF8DF8A1808199A5892B808387
:10423000ED8DFE8D908188A580958923808308C0AF
:10424000CE01612F0E94A91FCE016D2D0E94A91FD2
:104250000894E108F1088FEFE8168FEFF80681F770
:10426000ED8DFE8D808198A5892B8083DF91CF9184
:104270001F910F91FF90EF90DF900895DF92EF92E2
:10428000FF920F931F93CF93DF93EC01FA01790113
:10429000D02E2885398562177307D4F58A859B85CA
:1042A00048175907ACF5C701860F971F281739071C
:1042B0001CF47901E61AF70A262F21502E0DCE01A3
:1042C0004E2F0E2F0E943A20EF8DF8A1808199A5E4
:1042D000892B8083ED8DFE8D908188A58095892323
:1042E000808308C0CE01612F0E94A91FCE016D2DD1
:1042F0000E94A91F0894E108F1088FEFE8168FEFDC
:10430000F80681F7ED8DFE8D808198A5892B80833D
:10431000DF91CF911F910F91FF90EF90DF90089563
:10432000EF92FF920F931F93FC017B01A081B1815B
:1043300020853185028513851E960D90BC91A02D98
:1043400060E070E040E050E0FD0119951F910F9191
:10435000FF90EF900895AF92BF92CF92DF92EF92CD
:10436000FF920F931F93CF93DF936C015901E801E4
:10437000DC0118962D913C911997621773070CF088
:1043800057C01A96ED91FC911B974E175F070CF0E2
:104390004FC0C501860F971F281739071CF4590114
:1043A000A61AB70ACE01840F951FE817F9071CF467
:1043B000EF01C41BD50B262F21502A0D042F0150CD
:1043C0000C0FC6010E943A20D6015F96ED91FC9138
:1043D0009097808199969C919997892B80835D967F
:1043E000ED91FC915E97908198968C9180958923B0
:1043F00080838E010EC0C6016F2D0E94A91FC601C9
:104400006E2D0E94A91F21971C161D06A4F30150B2
:1044100010401016110614F4E501F6CFD6015D9692
:10442000ED91FC915E97808198969C91892B808379
:10443000DF91CF911F910F91FF90EF90DF90CF9080
:10444000BF90AF9008951F93CF93DF93EC01162F89
:1044500066E30E94E91F13701D8B113081F011304B
:1044600028F01230A9F01330B1F523C08F898230C3
:1044700019F4CE0160EC14C0CE0168EC11C08F8934
:10448000823019F4CE0160EA1CC0CE0168EA19C07E
:104490008F89823019F4CE0160E002C0CE0168E05D
:1044A0000E94122080E890E09987888780EA90E057
:1044B00010C08F89823019F4CE0160E602C0CE01AF
:1044C00068E60E94122080EA90E09987888780E859
:1044D00090E09B878A87DF91CF911F910895662393
:1044E00011F460E201C061E20E94E91F0895AF92F9
:1044F000BF92CF92DF92EF92FF920F931F93CF93D1
:10450000DF935C01FB01EB012196D49031C08E0159
:104510000F5F1F4FFE016491C5010E94E91F7801E2
:104520000894E11CF11CF801C4900C2D0F77E701F1
:10453000102F08C0FE012196E491C5016E2F0E9444
:10454000122011501123B1F7E701C00FD11DC7FE92
:104550000EC0FE018491682F70E06F3F710511F469
:1045600064EF71E0219680E090E00E945D13DA94A0
:10457000DD2069F6DF91CF911F910F91FF90EF90B1
:10458000DF90CF90BF90AF9008950F931F93CF937C
:10459000DF93EC018B011BA61AA68AA161E00E94A1
:1045A000181489A161E00E941814E9A14E2F50E06F
:1045B000FA01EE5CFE4FE491F0E0EE0FFF1FE250D7
:1045C000FF4F859194919E8F8D8FEAA12E2F30E021
:1045D000F901EE5CFE4FE491F0E0EE0FFF1FE250B8
:1045E000FF4F8591949198A38F8F48585E4FFA01A1
:1045F000849188A728583E4FF901849189A7888D16
:10460000882361F00E94F93580E00E94E83581E05E
:104610000E94DA3580E00E94E3353DC08DA161E063
:104620000E9418148CA161E00E941814EDA14E2F75
:1046300050E0FA01EE5CFE4FE491F0E0EE0FFF1F58
:10464000E250FF4FA591B491BC8FAB8FECA12E2F00
:1046500030E0F901EE5CFE4FE491F0E0EE0FFF1F59
:10466000E250FF4F859194919A8F898F48585E4F01
:10467000FA0194919FA328583E4FF90184918EA38B
:104680008C91909598239C93E98DFA8D90818EA1C1
:10469000809589238083ED8DFE8D908188A58095FE
:1046A000892380838BA1882309F161E00E9418147B
:1046B0008BA161E00E94CB1464EF71E080E090E098
:1046C0000E945D138BA160E00E94CB1464EF71E047
:1046D00080E090E00E945D138BA161E00E94CB140A
:1046E00064EF71E080E090E00E945D130115110518
:1046F00021F0CE01B8010E947722DF91CF911F9166
:104700000F9108951F93CF93DF93EC01162F6FEF56
:1047100076E00E94C522112351F4CE016AE377E0CE
:104720000E94772282E08AA781E08BA705C0CE0194
:1047300067E477E00E947722CE0164E577E00E948B
:104740007722123041F4CE0166E30E94E91FCE01C8
:1047500060EC0E9412201F8BDF91CF911F91089572
:10476000DF92EF92FF920F931F938C01F62EE42EAF
:10477000D22E60E870E040EA50E00E94911B88E68B
:1047800096E0F80191838083F1A2E2A2D3A281E0B6
:10479000808F15A214A21F910F91FF90EF90DF90D0
:1047A000089582E090E0A0E0B0E08093A7099093A4
:1047B000A809A093A909B093AA091092BE09109262
:1047C000C8091092C70980E896E09093C6098093C3
:1047D000C5091092CA091092E7091092E8091092CF
:1047E000EB091092ED0908952F923F924F925F923C
:1047F0006F927F928F929F92AF92BF92CF92DF92F1
:10480000EF92FF920F931F93DF93CF93CDB7DEB755
:10481000C754D0400FB6F894DEBF0FBECDBF582EA0
:10482000492EFB013A01190180A191A1998B888B36
:1048300020E836E03F872E8782A18A8B83A18B8B6D
:1048400084A195A1A6A1B7A18C8B9D8BAE8BBF8BAC
:1048500080A591A5A2A5B3A5888F998FAA8FBB8F9C
:1048600084A595A5A6A5B7A58C8F9D8FAE8FBF8F6C
:1048700080A988A381A992A9A3A9B4A989A39AA36D
:10488000ABA3BCA385A996A9A7A9B0AD8DA39EA3F0
:10489000AFA3B8A781AD92AD9AA789A71EA61DA602
:1048A0003CA72BA718AA7A018E01025F1F4F3BE29B
:1048B000A32EB12CAC0EBD1E4E010894811C911C80
:1048C00035C0D7018C918F3221F40894E11CF11C82
:1048D0002DC0422F4E194D3008F04CE0C42EDD247F
:1048E000C401B701A6010E94303BF401EC0DFD1D8F
:1048F0001082C5010E94C62AC501B801A40121E0A9
:104900000E940E30882351F4E52DF42D138212827B
:1049100080E896E091838083158266C0EC0CFD1CD4
:10492000C8010E94C62AC50158018C01C7016FE267
:1049300070E00E94253B9C01009719F6E618F708E5
:10494000F101F182E082E52DF42DD80112968D91CE
:104950009C9113979383828380E896E09183808370
:1049600014968C911497848315968C911597858352
:1049700016962D913D914D915C9119972683378321
:10498000408751871A962D913D914D915C911D97CD
:1049900022873387448755871E962D913D914D91EF
:1049A0005C91519726873787408B518B52968C911B
:1049B0005297828B53962D913D914D915C915697D4
:1049C000238B348B458B568B57962D913D914D9172
:1049D0005C915A97278B308F418F528F5B968D91C8
:1049E0009C915C97948F838F852D942DC95BDF4FAD
:1049F0000FB6F894DEBF0FBECDBFCF91DF911F91F0
:104A00000F91FF90EF90DF90CF90BF90AF909F906D
:104A10008F907F906F905F904F903F902F90089570
:104A20009F92AF92BF92CF92DF92EF92FF920F933D
:104A30001F93DF93CF93CDB7DEB7C657D0400FB6E5
:104A4000F894DEBF0FBECDBFC82E992E8A01D22E9C
:104A500043E0A42EB12CAC0EBD1EC501A8019E01E1
:104A60002F5F3F4F0E94F423E980FA80E00EF11E91
:104A7000F701808140E856E02885882309F03FC08F
:104A80008D819E819BA38AA359A348A38F818CA368
:104A90002DA389859A85AB85BC858EA39FA3A8A7E6
:104AA000B9A78D859E85AF85B8898AA79BA7ACA736
:104AB000BDA789899A89AB89BC898EA79FA7A8AB16
:104AC000B9AB8D898AAB8E899F89A88DB98D8BAB47
:104AD0009CABADABBEAB8A8D9B8DAC8DBD8D8FABD2
:104AE00098AFA9AFBAAF8E8D9F8D9CAF8BAF8C2D39
:104AF000992DBE01605E7F4F4EE555E09FC0FE01DF
:104B0000FF96118210825EAF4DAFFE01EE5BFF4F4C
:104B100010822223A9F02250CE01CD96223048F4F3
:104B200065EC79E0A7012D2D0E940E30882381F4D9
:104B300007C0B501A7012D2D0E940E30882329F44E
:104B40008C2D992D0E9466377BC0C5010E94C62A14
:104B5000F6E0DF2259F0FE01E05BFF4F408151811A
:104B600062817381CE01CD960E94B6299E01265A9C
:104B70003F4FFE01FF9680819181F90193838283EB
:104B800080E896E091838083FE01EF5BFF4F808198
:104B9000F9018483FE01EE5BFF4F8081F90185837B
:104BA000FE01ED5BFF4F80819181A281B381F9010C
:104BB00086839783A087B187FE01E95BFF4F8081E1
:104BC0009181A281B381F90182879387A487B587F8
:104BD000FE01E55BFF4F80819181A281B381F901E4
:104BE00086879787A08BB18BFE01E15BFF4F8081A9
:104BF000F901828BFE01E05BFF4F80819181A281F0
:104C0000B381F901838B948BA58BB68BFE01EC5A93
:104C1000FF4F80819181A281B381F901878B908FB1
:104C2000A18FB28FFE01E85AFF4F80819181F90177
:104C3000948F838F8C2D992DB901A7010E94703814
:104C40008C2D992DCA58DF4F0FB6F894DEBF0FBEDA
:104C5000CDBFCF91DF911F910F91FF90EF90DF902B
:104C6000CF90BF90AF909F900895EF92FF920F93D7
:104C70001F93CF93DF93EC01462F8C01055C1F4FF0
:104C8000C80161E00E94A2288823D1F0FC2EED2EFD
:104C9000CE01B80141E00E94AF31882339F4CE0142
:104CA000B80140E00E94AF31882351F0CE014E960A
:104CB0006F2D7E2D0E94FC2C882319F081E001C00D
:104CC00080E0DF91CF911F910F91FF90EF900895B9
:104CD000FC01673020F086E1858380E00895262F6F
:104CE00030E060FD02C0663019F48DB58E7F02C0E1
:104CF0008DB581608DBD8CB58C7F8CBD4CB522FD92
:104D000002C090E001C092E036952795822F817015
:104D1000842B892B8CBD81E00895FF920F931F9304
:104D2000CF93DF938B010E944F13EB01FF24FA9482
:104D3000FEBC0DB407FEFDCF8EB58F3F11F481E0B0
:104D400008C00E944F136C1B7D0B6017710780F326
:104D500080E0DF91CF911F910F91FF900895FC01AA
:104D6000848160E00E94CB140895FC01848161E09D
:104D70000E94CB140895DC016EBDFA0120E030E002
:104D80000DB407FEFDCF80818EBD0DB407FEFDCFB3
:104D900081818EBD2E5F3F4F329682E020303807F2
:104DA00079F70DB407FEFDCF8FEF8EBD0DB407FE72
:104DB000FDCF8FEF8EBD0DB407FEFDCF8FEF8EBD03
:104DC0000DB407FEFDCF8EB51A968C931A978F718E
:104DD000853011F481E0089581E115968C93159743
:104DE000CD010E94B52680E00895FF920F931F9396
:104DF000CF93DF93EC010E944F138B01FF24FA94B1
:104E000009C00E944F13601B710B6D52714010F06E
:104E10008FE00DC0FEBC0DB407FEFDCF8EB58A87B6
:104E20008F3F79F38E3F11F481E006C08DE08D83D2
:104E3000CE010E94B52680E0DF91CF911F910F91A6
:104E4000FF900895CF93DF93EC018E818823D1F0FA
:104E50008FEF8EBD2F8138854FEF04C00DB407FE54
:104E6000FDCF4EBD2F5F3F4FC9010197815092404A
:104E7000A8F338872F830DB407FEFDCFCE010E9423
:104E8000B5261E82DF91CF910895DF92EF92FF92B7
:104E90000F931F93CF93DF93EC01D62E79018A01F4
:104EA0000E942227CE010E94AF26CE016CE271E063
:104EB0000E948D268D2D80648EBD0DB407FEFDCF22
:104EC00028E130E0D801C701022E04C0B695A795AD
:104ED000979587950A94D2F78EBD0DB407FEFDCF46
:104EE000285030408FEF283F380761F7DD2011F45C
:104EF00085E906C088E0D81611F487E801C08FEF75
:104F00008EBD0DB407FEFDCF90E02FEF2EBD0DB48A
:104F100007FEFDCF8EB587FF02C09150B9F78A8793
:104F2000DF91CF911F910F91FF90EF90DF90089547
:104F3000CF92DF92EF92FF920F931F93CF93DF9365
:104F4000EC017A018B01690141155105610571057B
:104F500011F482E137C08B85833039F029E0EE0C03
:104F6000FF1C001F111F2A95D1F7CE0168E1A8018F
:104F700097010E944527882311F084E023C0CE01C9
:104F80006EEFA6010E94BB268823E9F0CE0168E5FA
:104F900072E00E948D26882311F485E113C0CE01B2
:104FA0006DE020E030E040E050E00E94452788239B
:104FB00041F48FEF8EBD0DB407FEFDCF8EB5882373
:104FC00079F084E18D83CE010E94B52680E0DF91E7
:104FD000CF911F910F91FF90EF90DF90CF900895A8
:104FE000CE010E94B52681E0F2CF8F929F92AF92C0
:104FF000BF92CF92DF92EF92FF920F931F93CF93C6
:10500000DF93EC015A016B0149010115110509F407
:105010007BC0C801820F931F8150924008F06FC07F
:105020008E81882371F088819981AA81BB8148177C
:1050300059076A077B0729F48F8198858816990696
:1050400018F5A882B982CA82DB828B85833039F059
:1050500069E0AA0CBB1CCC1CDD1C6A95D1F7CE0103
:1050600061E1A60195010E944527882319F083E09C
:105070008D8345C0CE010E94F526882309F43FC0E8
:1050800018861F8281E08E838FEF8EBD8F81988579
:105090002FEF05C00DB407FEFDCF2EBD019688157C
:1050A0009905C0F398878F83D801119720E030E0ED
:1050B0009FEF0BC00DB407FEFDCF8EB5F701E20FD9
:1050C000F31F80839EBD2F5F3F4F2A173B0790F34E
:1050D0000DB407FEFDCF8EB5AE0DBF1D8C932F8195
:1050E0003885200F311F38872F838985882319F051
:1050F0002050324048F0CE010E94222705C0CE0148
:105100000E94B52680E001C081E0DF91CF911F9120
:105110000F91FF90EF90DF90CF90BF90AF909F9056
:105120008F900895EF92FF920F931F93790120E0E3
:1051300030E000E012E00E94F5271F910F91FF90F0
:10514000EF900895BF92CF92DF92EF92FF920F936C
:105150001F93CF93DF93EC01B62E1B8619861E8218
:105160001D824C830E944F136B018C8161E00E9471
:105170001814CE010E94B52682E360E00E94181444
:1051800083E361E00E94181484E361E00E94181434
:1051900085E361E00E94181485E361E00E94CB146E
:1051A00083E58CBD8DB58E7F8DBD80E09FEF9EBD6C
:1051B0000DB407FEFDCF8F5F8A30C9F7CE010E9484
:1051C000AF2609C00E944F136C197D09615D7740BD
:1051D00010F081E05EC0CE0160E020E030E040E011
:1051E00050E00E944527182F8A87813059F7CE0159
:1051F00068E02AEA31E040E050E00E94452782FF63
:1052000002C01B8711C080E02FEF2EBD0DB407FE3A
:10521000FDCF9EB58F5F8430C1F79A879A3A11F01F
:1052200082E037C082E08B878B85823021F0EE24CC
:10523000FF2487010FC0E12CF12C012DF0E41F2F7A
:1052400009C00E944F136C197D09615D774010F011
:1052500088E01FC0CE0167E320E030E040E050E08E
:105260000E944527CE0169E2A80197010E944527C7
:105270008A87882331F78B85823031F5CE016AE346
:1052800020E030E040E050E00E944527882339F0DC
:1052900086E08D83CE010E94B52680E01CC08FEF92
:1052A0008EBD0DB407FEFDCF8EB5807C803C11F421
:1052B00083E08B8780E09FEF9EBD0DB407FEFDCF9E
:1052C0002EB58F5F8330C1F7CE010E94B526CE0187
:1052D0006B2D0E946826DF91CF911F910F91FF9057
:1052E000EF90DF90CF90BF900895CF93DF93EC01C4
:1052F000DB0180E090E020E2FD01E80FF91F208350
:1053000001968B309105C1F757E040E021C02E3265
:1053100019F086EE97E007C05A3019F15AE048E0DC
:1053200017C03217F1F0FC01019634913323C9F70D
:105330005417B8F02132A8F02F3798F4822F8156F5
:105340008A3108F42052FD01E40FF11D20834F5FE4
:1053500029912223E1F690E08C91803219F091E0BE
:1053600001C090E0892FDF91CF9108956F927F92D5
:105370008F929F92AF92BF92CF92DF92EF92FF9265
:105380000F931F93CF93DF93EC017A018B012D8153
:10539000222309F480C08B899C89AD89BE8984173A
:1053A0009507A607B70708F476C085C0E114F10495
:1053B0000105110549F41E821F82188619861A8676
:1053C0001B861C861D8665C02A853B854C855D85B0
:1053D000EB8DFC8D858590E0099621503040404052
:1053E000504039014A01082E04C09694879477945E
:1053F00067940A94D2F72F5F3F4F4F4F5F4F089447
:10540000E108F108010911095701680104C0D694A7
:10541000C794B794A7948A95D2F70894E11CF11C1D
:10542000011D111DA614B704C804D90428F02115C4
:1054300031054105510549F48F89988DA98DBA8DA3
:105440008E839F83A887B98716C0A618B708C80897
:10545000D90811C04E815F81688579858B8D9C8DBF
:1054600094010E9490330894A108B108C108D108A2
:10547000882331F410C086E0882E912C8C0E9D1E5E
:10548000A114B104C104D10429F7EA86FB860C8774
:105490001D8781E001C080E0DF91CF911F910F91C6
:1054A000FF90EF90DF90CF90BF90AF909F908F9044
:1054B0007F906F900895223009F078CFE6CFCF9398
:1054C000DF93EC01462F6E857F85888999890E943C
:1054D0007431882319F420E030E00AC08A89282F2B
:1054E00030E095E0220F331F9A95E1F72E50364FAA
:1054F000C901DF91CF9108950F931F93CF93DF934D
:105500008C01FC0185818823D9F1848187FF35C016
:10551000C80161E00E945F2AEC01009789F1F8015F
:105520008581823040F483899489A589B6898C8FDE
:105530009D8FAE8FBF8FF8018789908D9B8F8A8F4B
:105540008789908DA18DB28DCD01AA27BB279D8B18
:105550008C8BE091F009F091F109309751F0BE0188
:105560006A5E7F4FCE0148961995888D998D9B8BE9
:105570008A8BF80184818F7784830E94153101C062
:1055800080E0DF91CF911F910F910895CF93DF932A
:10559000EC010E947C2A882311F01D8281E0DF91BA
:1055A000CF9108956F927F928F929F92AF92BF9208
:1055B000CF92DF92EF92FF920F931F93DF93CF93DF
:1055C00000D00F92CDB7DEB77C015A016B01DC0130
:1055D00015968C911597813009F08FC014968C9197
:1055E00081FF8BC09EC00097A105B10511F481E039
:1055F00085C0F7016284738484849584C701B601F1
:10560000A5010E94B629882309F477C0D7015B96CB
:105610008D919C915C97A114B104C104D10489F4CB
:1056200057964D915D916D917C915A970E940334EC
:10563000882309F462C0F701178A108E118E128E2A
:105640003DC0D70116964D915D916D917C91199752
:105650009E012F5F3F4F0E949033882309F44DC075
:10566000D7015B96ED91FC915C9749815A816B81E2
:105670007C818789803129F088EF9FEFAFEFBFE011
:1056800004C088EF9FEFA0E0B0E0481759076A0711
:105690007B07A0F4CF010E940334882371F1F70146
:1056A0004681578160857185838D948D0FEF1FEF43
:1056B0002FEF3FE00E94F4328823F9F0D701539690
:1056C000AD92BD92CD92DC92569714968C91149720
:1056D000806814968C93C7010E947C2A882369F005
:1056E000B601A5016A147B048C049D0410F4B40176
:1056F000A301C7010E94B62901C080E00F900F905E
:105700000F900F90CF91DF911F910F91FF90EF902D
:10571000DF90CF90BF90AF909F908F907F906F90D1
:105720000895F70183899489A589B6898417950717
:10573000A607B70708F057CFE0CF2F923F924F92BE
:105740005F926F927F928F929F92AF92BF92CF9211
:10575000DF92EF92FF920F931F93CF93DF93EC01B1
:105760002A018D81882309F4C6C08C8180FFC3C0C3
:10577000D8C025014E185F084B0176E0272E312C4A
:105780002C0E3D1E3201B1C02A853B854C855D85BE
:105790006FEFA62E61E0B62EA222B3228D81790191
:1057A0008A0199E016950795F794E7949A95D1F7B1
:1057B000EB8DFC8D823049F4428D538D648D758D57
:1057C0004E0D5F1D601F711F3FC0D480DA94DE2034
:1057D000A114B104D9F4DD20C9F421153105410526
:1057E000510549F48F89988DA98DBA8D8E839F8339
:1057F000A887B9870BC04E815F8168857985CF0105
:1058000091010E949033882309F475C0EB8DFC8DC3
:105810004E815F816885798542505040604070407C
:10582000058404C0440F551F661F771F0A94D2F7E2
:1058300086859785A089B189480F591F6A1F7B1FEC
:105840004D0D511D611D711D80E092E08A199B096B
:1058500063018615970508F46C018C8186FD06C0EE
:1058600080E0C81682E0D80609F073C08091340643
:1058700090913506A0913606B09137064817590722
:105880006A077B0709F465C08091F20B9091F30BD6
:105890009501860174010E94F527882361F18C0C23
:1058A0009D1C12C095012E50364FA9014C0D5D1D57
:1058B000D401F90102C081918D93E417F507D9F75E
:1058C000E21BF30B8E0E9F1E960140E050E08A858E
:1058D0009B85AC85BD85820F931FA41FB51F8A874A
:1058E0009B87AC87BD876C187D086114710409F033
:1058F0004BCFA20102C04FEF5FEFCA01DF91CF9102
:105900001F910F91FF90EF90DF90CF90BF90AF90DD
:105910009F908F907F906F905F904F903F902F90CF
:105920000895AB88BC88CD88DE88EA84FB840C852A
:105930001D859A0140E050E0D601C5018E199F09EE
:10594000A00BB10B82179307A407B50708F411CF7A
:1059500013CFCB01BA0140E00E947431882309F0D3
:10596000A1CFC9CFCF92DF92EF92FF920F931F93F7
:10597000DF93CF930F92CDB7DEB76C01FC01858129
:10598000823070F0E284F38404851585C601BE017F
:105990006F5F7F4F41E050E00E949D2B019769F0BF
:1059A00020E030E0C9010F90CF91DF911F910F915E
:1059B000FF90EF90DF90CF900895F6018285938558
:1059C000A485B5854F96A11DB11D82879387A487B5
:1059D000B587F5E016950795F794E794FA95D1F712
:1059E0008E2D8F70282F30E0E5E0220F331FEA95CF
:1059F000E1F72E50364FD6CF0F931F93CF93DF93FF
:105A0000EC018B018D81882309F041C0FB0187895E
:105A10008031B1F482E08D831F8A188E198E1A8E20
:105A2000808D918DA0E0B0E045E0880F991FAA1FFE
:105A3000BB1F4A95D1F78B8B9C8BAD8BBE8B15C052
:105A4000803229F583E08D83FB01428D538D648D77
:105A5000758D4F8B588F698F7A8F9E012D5E3F4FCA
:105A6000C8010E945C34882391F01C8F0B8F81E069
:105A70008C831E821F82188619861A861B861C86B6
:105A80001D861E861F86188A198A1A8A01C080E020
:105A9000DF91CF911F910F9108951F93CF93DF93C3
:105AA000EC01142FE62FF0E075E0EE0FFF1F7A9562
:105AB000E1F7EE50F64F8385817121F0842F8274D7
:105AC00009F054C06A8B8091340690913506A091FC
:105AD0003606B09137068E879F87A88BB98B84894D
