:100000000C94FE030C94CE100C94FF100C94301141
:100010000C9461110C9492110C94C3110C94F41172
:100020000C9425120C942A040C942A040C942A048F
:100030000C942A040C942A040C942A040C942A0488
:100040000C942A040C942A040C942A040C942A0478
:100050000C942A040C942A040C942A040C948A12FA
:100060000C942A040C94B2140C94DE150C942A04FB
:100070000C942A040C942A040C942A040C942A0448
:100080000C942A040C942A040C942A040C942A0438
:100090000C94EB140C941D160C942A040C942A0452
:1000A0000C942A040C942A040C942A040C942A0418
:1000B0000C942A040C942A040C942A040C942A0408
:1000C0000C942A040C942A040C942A040C942415ED
:1000D0000C945C160C942A040C945D150C949B16DD
:1000E0000C942A0400002100240027002A002D007F
:1000F0003000330001010000040107010A01000083
:100100002200250028002B002E00310034000201BF
:100110000000050108010B0100002000230026005B
:1001200029002C002F00320000010000030106010D
:10013000090105050505070508080808020202026D
:100140000A0A080804040404010101010101010173
:100150000303030303030303040707070C0C0C0C3E
:100160000C0C0C0C02020202060606060606060627
:100170000B0B0B0B0B0B0B0B0102102020080810B4
:100180002040102040800201020108040201010207
:1001900004081020408080402010080402018004E0
:1001A000020180402010080402010804020101023B
:1001B0000408102040800102040810204080000044
:1001C000090A02080B0C0D070603040100000000D9
:1001D000000000000000000000000000000000001F
:1001E0000000000000000000000011100F000000DF
:1001F00000000000000000000000000000000000FF
:100200000000000000000000003E5B4F5B3E3E6BC4
:100210004F6B3E1C3E7C3E1C183C7E3C181C577DA0
:10022000571C1C5E7F5E1C00183C1800FFE7C3E7EC
:10023000FF0018241800FFE7DBE7FF30483A060EFE
:100240002629792926407F050507407F05253F5A45
:100250003CE73C5A7F3E1C1C08081C1C3E7F1422B5
:100260007F22145F5F005F5F06097F017F00668960
:10027000956A606060606094A2FFA29408047E04A6
:100280000810207E201008082A1C08081C2A0808CC
:100290001E101010100C1E0C1E0C30383E3830068C
:1002A0000E3E0E06000000000000005F0000000788
:1002B000000700147F147F14242A7F2A12231308B6
:1002C000646236495620500008070300001C224192
:1002D000000041221C002A1C7F1C2A08083E080836
:1002E00000807030000808080808000060600020E6
:1002F000100804023E5149453E00427F40007249C9
:100300004949462141494D331814127F102745456C
:1003100045393C4A49493141211109073649494982
:1003200036464949291E00001400000040340000F0
:100330000008142241141414141400412214080259
:10034000015909063E415D594E7C1211127C7F49CC
:100350004949363E414141227F4141413E7F494921
:1003600049417F090909013E414151737F0808084D
:100370007F00417F41002040413F017F081422411E
:100380007F404040407F021C027F7F0408107F3E78
:100390004141413E7F090909063E4151215E7F09E5
:1003A000192946264949493203017F01033F40404C
:1003B000403F1F2040201F3F4038403F6314081437
:1003C0006303047804036159494D43007F4141416F
:1003D0000204081020004141417F04020102044050
:1003E00040404040000307080020545478407F28D4
:1003F0004444383844444428384444287F385454CA
:10040000541800087E090218A4A49C787F080404EC
:100410007800447D40002040403D007F102844008B
:1004200000417F40007C047804787C08040478381C
:1004300044444438FC1824241818242418FC7C084C
:10044000040408485454542404043F44243C4040C9
:10045000207C1C2040201C3C4030403C442810287C
:10046000444C9090907C4464544C440008364100C5
:100470000000770000004136080002010204023C3F
:100480002623263C1EA1A161123A4040207A38540E
:100490005455592155557941215454784121555489
:1004A000784020545579400C1E52721239555555DA
:1004B00059395454545939555454580000457C41C5
:1004C0000002457D420001457C40F0292429F0F0DE
:1004D000282528F07C545545002054547C547C0A2F
:1004E000097F4932494949323248484832324A48FC
:1004F00048303A4141217A3A42402078009DA0A0FC
:100500007D39444444393D4040403D3C24FF24244F
:10051000487E4943662B2FFC2F2BFF0929F620C06C
:10052000887E090320545479410000447D413048BD
:10053000484A32384040227A007A0A0A727D0D1900
:10054000317D2629292F28262929292630484D4062
:1005500020380808080808080808382F10C8ACBA5E
:100560002F102834FA00007B000008142A142222DD
:10057000142A1408AA005500AAAA55AA55AA0000D0
:1005800000FF00101010FF00141414FF001010FFE3
:1005900000FF1010F010F0141414FC001414F700F5
:1005A000FF0000FF00FF1414F404FC141417101FC4
:1005B00010101F101F1414141F00101010F0000052
:1005C00000001F101010101F10101010F01000006D
:1005D00000FF101010101010101010FF100000007D
:1005E000FF140000FF00FF00001F10170000FC04B4
:1005F000F414141710171414F404F40000FF00F797
:1006000014141414141414F700F7141414171410F9
:10061000101F101F141414F4141010F010F0000028
:100620001F101F0000001F14000000FC140000F049
:1006300010F01010FF10FF141414FF141010101FEE
:1006400000000000F010FFFFFFFFFFF0F0F0F0F0FF
:10065000FFFFFF0000000000FFFF0F0F0F0F0F381C
:10066000444438447C2A2A3E147E02020606027E56
:10067000027E0263554941633844443C04407E2075
:100680001E2006027E020299A5E7A5991C2A492A86
:100690001C4C7201724C304A4D4D30304878483015
:1006A000BC625A463D3E494949007E0101017E2A0D
:1006B0002A2A2A2A44445F444440514A4440404440
:1006C0004A51400000FF0103E080FF000008086B72
:1006D0006B083612362436060F090F06000018186C
:1006E0000000001010003040FF0101001F01011E3A
:1006F00000191D1712003C3C3C3C00000000000F9C
:100700000180961180FFB103012C2DB203012C2D25
:10071000B306012C2D012C2DB40107C003A20284C5
:10072000C101C5C2020A00C3028A2AC4028AEEC5F8
:10073000010E20003601C83A0105022A0400020019
:10074000812B04000100A0022A040000007F2B047A
:100750000000009F04E010021C07123732292D29E7
:10076000252B3900010310E110031D07062E2C294B
:100770002D2E2E373F0000021013800A29806412AC
:100780000180321180FF3A81050AB1830006030A15
:10079000360108B6021502B40100C08202700AC117
:1007A0000105C2020102C5823C380AFC021115E0B3
:1007B0001009160920211B131917151E2B040502F9
:1007C0000EE1900B14081E221D181E1B1A242B0666
:1007D00006020F0A2A04000200812B040002008195
:1007E00013800A2980FF7C3C3E5E2B3D3F2F5B5DE2
:1007F0003B2C2A225C002C040518542311241FBE14
:10080000CFEFD1E2DEBFCDBF00E00CBF16E0A0E02D
:10081000B2E0EAE5FCE700E00BBF02C007900D92F2
:10082000A838B107D9F71BE0A8E8B6E001C01D92CF
:10083000A33FB107E1F717E0CCEFD7E004C0229760
:10084000FE010E94273EC63FD107C9F70E94231927
:100850000C94903A0C94000089E896E066E047E03A
:1008600028E00E9433231092BE061092BF06109219
:10087000C0061092C1061092C2061092C3061092D2
:10088000C4061092C5061092C6061092C7061092B2
:10089000C8061092C9061092CA061092CB06109292
:1008A000CC061092CD060E94D2126093D1067093AE
:1008B000D2068093D3069093D4060895909188062B
:1008C00080912606981711F40E943D0A0895909190
:1008D000880680912606981711F40E94310A08951F
:1008E000EF92FF920F931F93CF93DF93EC017B0165
:1008F00080E00E94561220918105309182058C0182
:10090000021B130B81E00E94561220918305309147
:100910008405821B930B9C01C8010496099710F46F
:1009200000E010E0C9010496099710F420E030E0DF
:10093000C80160E870E00E94D53D79836883C901F1
:1009400060E870E00E94D53DF701718360830E94EA
:10095000D2127B018C018091D1069091D206A09198
:10096000D306B091D406E816F9060A071B0740F42F
:10097000E092D106F092D2060093D3061093D406EB
:100980008091850590918605A0918705B091880595
:100990002091D1063091D2064091D3065091D406D1
:1009A000820F931FA41FB51F8E159F05A007B107C7
:1009B00010F080E019C0E092D106F092D2060093C8
:1009C000D3061093D40684E00E94811420E0892B82
:1009D00009F421E08091D006882321F080E02223D1
:1009E00009F481E02093D006DF91CF911F910F9100
:1009F000FF90EF90089584E060E00E949B1384E0F4
:100A000061E00E944E1481E00E945612909382058C
:100A10008093810580E00E94561290938405809314
:100A2000830508958BE999E065E00E94B825882345
:100A300029F50F920F9280E092E0EDB7FEB7928316
:100A400081830E94BA0988E192E0EDB7FEB79283F4
:100A500081830E94BA098CE292E0EDB7FEB79283DF
:100A600081830E94BA0984E492E0EDB7FEB79283D5
:100A700081830E94BA090F900F90FFCF0F920F92BF
:100A80008DE792E0EDB7FEB7928381830E94BA09A9
:100A90000F900F9008950F931F9309E816E0C80177
:100AA00061E00E940523C80160E00E94A621C80100
:100AB00060E070E040E050E00E94191FC80160E073
:100AC00070E00E94251FC80161E00E941F1FC8013D
:100AD0006FE170E00E9413211F910F910895EF9232
:100AE000FF920F931F93CF93DF93EC018091CE067B
:100AF0009091CF068C179D0789F1D093CF06C093B4
:100B0000CE0689E896E060E070E044E950E020E835
:100B100030E00CE010E0E0EEEE2EE7E0FE2E0E946A
:100B20002E2189E896E061E00E941F1F89E896E087
:100B30006FE178EF0E94251F89E896E060E070E0A1
:100B400046E950E00E94191F89E896E061E00E94A2
:100B50001F1F89E896E0BE010E946F1ADF91CF91B6
:100B60001F910F91FF90EF9008958CE892E00E9402
:100B70006F0508958F929F92AF92BF92CF92DF92AE
:100B8000EF92FF920F931F93DF93CF93CDB7DEB712
:100B900028970FB6F894DEBF0FBECDBF8DB79EB7B6
:100BA0004091EF0B5091F00B4115510511F09A0156
:100BB00004C020917B0530917C0560917F05709188
:100BC0008005821B930B8617970730F52DB73EB72C
:100BD0004115510521F440917B0550917C0500D0D1
:100BE00000D0EDB7FEB731968DE892E0ADB7BEB755
:100BF00012969C938E931197241B350B338322837B
:100C0000758364830E94BA09EDB7FEB736960FB6B6
:100C1000F894FEBF0FBEEDBF8091B506882311F496
:100C2000992404C01092B506992493941A821982CB
:100C30001C821B82F8949091260680918806882455
:100C4000981711F0882483947894882009F441C07F
:100C50003091D506809126063817E9F020912606B6
:100C600000D000D0EDB7FEB731968EE992E0ADB777
:100C7000BEB712969C938E9311973283138224836E
:100C800015820E94BA09EDB7FEB736960FB6F894F2
:100C9000FEBF0FBEEDBF0E94120C40912C0650917A
:100CA0002D06569547958091DA069091DB062091A6
:100CB0002E0630912F06369527956091DC067091AF
:100CC000DD06621B730B841B950B0E94650A992439
:100CD0009394CE010196BE016D5F7F4F0E94700418
:100CE000D82E89819A81892B29F48B819C81892B2B
:100CF00009F457C0E090D606F090D7060091D806C8
:100D00001091D906CE010596BE01695F7F4F0E9402
:100D1000490A882309F445C08D819E818A30910556
:100D200048F4E090D606F090D70680EE9FEFE80EEC
:100D3000F91E0DC08637910510F420E009C0E0903F
:100D4000D606F090D706A0E2B0E0EA0EFB1E21E046
:100D50008F8198858A30910538F40091D8061091DA
:100D6000D906005210400CC08637910538F000912A
:100D7000D8061091D906005E1F4F02C0222339F019
:100D8000C701B8010E94650A992493940AC00E9481
:100D9000980A6B817C8189819A810E941A0D0E9438
:100DA000040BDD2009F478C1EDB7FEB73A970FB612
:100DB000F894FEBF0FBEEDBF319685EB92E0ADB764
:100DC000BEB712969C938E9311978091E2069091F4
:100DD000E306A091E406B091E50682839383A483A1
:100DE000B5838091DE069091DF06A091E006B09178
:100DF000E10686839783A087B1870E94BA09A090F5
:100E0000DE06B090DF06C090E006D090E106E090EC
:100E1000E206F090E3060091E4061091E506EDB7D6
:100E2000FEB73A960FB6F894FEBF0FBEEDBF8091A5
:100E3000BC069091BD06892BE1F58DB79EB70A9748
:100E40000FB6F8949EBF0FBE8DBFEDB7FEB73196BB
:100E500084ED92E0ADB7BEB712969C938E93119736
:100E6000A282B382C482D582E682F782008711878C
:100E70000E94BA09E092C206F092C3060093C4062B
:100E80001093C506A092BE06B092BF06C092C006DF
:100E9000D092C10681E090E09093BD068093BC069D
:100EA000EDB7FEB73A960FB6F894FEBF0FBEEDBF92
:100EB000F3C08DB79EB70A970FB6F8949EBF0FBECA
:100EC0008DBFEDB7FEB7319680EF92E0ADB7BEB7FC
:100ED00012969C938E931197A282B382C482D5827C
:100EE000E682F782008711870E94BA09E092CA065B
:100EF000F092CB060093CC061093CD06A092C606C6
:100F0000B092C706C092C806D092C9061092BD061C
:100F10001092BC06EDB7FEB738960FB6F894FEBF38
:100F20000FBEEDBF8AE093E0928381830E94BA09ED
:100F30000F900F902091BE063091BF064091C006E1
:100F40005091C1066091C2067091C3068091C4069B
:100F50009091C506A090C606B090C706C090C8067E
:100F6000D090C906E090CA06F090CB060091CC065E
:100F70001091CD060E94170F8C0100D00F928BE1CB
:100F800093E0ADB7BEB712969C938E9311971496CB
:100F90001C930E9313970E94BA090F900F900F9015
:100FA0000F90101611060CF077C08091B606909144
:100FB000B7068017910728F49093B9068093B80676
:100FC00004C01093B9060093B8064091B60650913C
:100FD000B7068091BA069091BB06B8010E94EE0D4B
:100FE00097FD5CC00F920F928FE293E0EDB7FEB7D2
:100FF000928381830E94BA0900E010E0EE24FF246E
:101000000F900F90F5E4CF2EF3E0DF2E3CC020913F
:10101000BA063091BB062E0D3F1D8DB79EB70C97BB
:101020000FB6F8949EBF0FBE8DBFEDB7FEB73196D9
:10103000ADB7BEB71296DC92CE921197138302839E
:10104000D90114964D915D916D917C9117974483D0
:101050005583668377832D913D914D915C912087D7
:101060003187428753870E94BA090F5F1F4FE8E01C
:10107000F0E0EE0EFF1E8DB79EB70C960FB6F894FB
:101080009EBF0FBE8DBF8091B8069091B90608171C
:10109000190708F4BCCF02C09920F1F00E94D50ACC
:1010A0000E94040B0E94B5058820B1F0F89480914D
:1010B000D506809326068093880678940F920F9227
:1010C00081E593E0ADB7BEB712969C938E931197CE
:1010D0000E94BA090F900F908091BC069091BD06B6
:1010E000892B19F481E693E002C087E693E00E9421
:1010F0006F0528960FB6F894DEBF0FBECDBFCF9117
:10110000DF911F910F91FF90EF90DF90CF90BF90F4
:10111000AF909F908F900895CF92DF92EF92FF92C1
:101120000F931F93CF93DF938FE199E040E855E24F
:1011300060E070E00E94DA168FE199E06BE673E000
:101140000E946F1A8FE199E00E94BA170E944B0526
:101150000E9412050E94FB040E940C0AC090D50652
:10116000CC2DD0E074E0CC0FDD1F7A95E1F766EC72
:10117000C62E65E0D62ECC0EDD1EFE01E653FA4FDC
:10118000D6011C966D917D918D919C911F97208128
:10119000318142815381620F731F841F951F22E0AA
:1011A00030E040E050E00E940A3E79018A01C253DB
:1011B000DA4F688179818A819B81F60120813181B2
:1011C00042815381620F731F841F951F22E030E01C
:1011D00040E050E00E940A3EC801B7010E94B70BF0
:1011E00080912C0690912D06969587954091D60674
:1011F0005091D70660912E0670912F0676956795CF
:101200002091D8063091D906620F731F840F951F65
:101210000E94CA0C81E08093B50682E060E00E94E3
:101220009B1382E061E00E944E1483E060E00E9424
:101230009B1383E061E00E944E1481E067E674E056
:1012400042E050E00E94521080E06EE574E042E01F
:1012500050E00E94521068EE73E080E090E00E943F
:10126000E01284E690E09093B7068093B6068DB7BF
:101270009EB72091EF0B3091F00B2115310511F045
:10128000A90104C040917B0550917C0560917F05C8
:1012900070918005841B950B861B970B80529340A1
:1012A000B0F48DB79EB72115310521F420917B054F
:1012B00030917C05821B930B861B970B03E0969560
:1012C00087950A95E1F79093B7068093B6068091CB
:1012D000B6069091B70613E0880F991F1A95E1F7AB
:1012E0000E942C388093BA069093BB0600D00F92D0
:1012F00087E793E0ADB7BEB712969C938E93119794
:101300008091B6069091B70614969C938E9313978E
:101310000E94BA091092B9061092B8064DB75EB78E
:101320002091EF0B3091F00B0F900F900F900F90DA
:101330002115310521F420917B0530917C0500D0E9
:101340000F9288E893E0EDB7FEB792838183421B4A
:10135000530B548343830E94BA090F900F900F9050
:101360000F90DF91CF911F910F91FF90EF90DF9041
:10137000CF900895CF92DF92EF92FF920F931F9339
:10138000DF93CF93CDB7DEB7EDB6FEB6CEB6809184
:101390008905882359F18DB79EB7805091400FB6CB
:1013A000F8949EBF0FBE8DBF0DB71EB70F5F1F4FC6
:1013B000FE013E96C80160E071E04C855D859F01AD
:1013C0000E94C23A8FE199E064E973E00E946C1ACE
:1013D0008FE199E0B8010E946F1A2E2D3C2DC901B2
:1013E0000FB6F8949EBF0FBE8DBF08C08DB79EB7D5
:1013F0009C010FB6F8943EBF0FBE2DBF0FB6F894F8
:10140000FEBE0FBEEDBECF91DF911F910F91FF90F9
:10141000EF90DF90CF9008951092DE061092DF06D5
:101420001092E0061092E1061092E2061092E30696
:101430001092E4061092E5061092DB061092DA068E
:101440001092DD061092DC061092D7061092D60696
:101450001092D9061092D806809126068093D50660
:10146000089580912606853028F4809126068F5FA6
:10147000809326068091260608958091260688236B
:1014800029F08091260681508093260680912606B9
:101490000895FC01DB018091DA069091DB06209132
:1014A000D6063091D706821B930B9183808380915F
:1014B000DC069091DD062091D8063091D906821B7A
:1014C000930B8D939C9381E0089597FF03C0E0E018
:1014D000F0E010C0E091D506F0E0EE0FFF1FE657F8
:1014E000FA4F0190F081E02DE058F0408E179F07F1
:1014F00008F4FC01F093D706E093D60677FF03C00B
:1015000060E070E010C0E091D506F0E0EE0FFF1F44
:10151000EA56FA4F0190F081E02DE05AF040E617CC
:10152000F70708F4BF017093D9066093D8060895B1
:10153000AF92BF92CF92DF92EF92FF920F931F93E1
:101540004091DA065091DB06425050402091DC0673
:101550003091DD06225030408091D50666E0869FAE
:10156000C00111246091D6067091D7068A01061B2E
:10157000170B6091D8067091D9067901E61AF70A1F
:101580008E559A4F69E876E0F5E0CF2ED12CE5E054
:10159000AE2EB12C0E949B351F910F91FF90EF90C2
:1015A000DF90CF90BF90AF900895AF92BF92CF924F
:1015B000DF92EF92FF920F931F938091D50626E062
:1015C000829FC00111244091D6065091D7062091E8
:1015D000D8063091D9068E559A4F69E876E000E03A
:1015E00010E0EE24FF24B0E8CB2ED12CA0EAAA2EE6
:1015F000B12C0E949B351F910F91FF90EF90DF90CF
:10160000CF90BF90AF9008950F931F936091DA062B
:101610007091DB068091D6069091D706681B790BF6
:101620004091DC065091DD068091D8069091D90654
:10163000481B590B89E896E022E030E000E018EF03
:101640000E94161C1F910F910895AF92BF92CF92E6
:10165000DF92EF92FF920F931F935A016B01A82F15
:10166000BB27A7FDB09500D00F9266EC75E0FD0199
:1016700084E0EE0FFF1F8A95E1F7E60FF71F208148
:10168000318142815381AA0FBB1FCD01019613E026
:10169000880F991F1A95E1F7680F791FFB01E08009
:1016A000F18002811381AA56BA4F8D919C91A0E0DE
:1016B000B0E0EDB7FEB781839283A383B483C60104
:1016C000B501AA24BB2465010E94821A0F900F90D5
:1016D0000F900F901F910F91FF90EF90DF90CF90A0
:1016E000BF90AF900895AF92BF92CF92DF92EF92EA
:1016F000FF920F931F935A016B01A82FBB27A7FDE1
:10170000B09500D00F92FD0104E0EE0FFF1F0A9587
:10171000E1F786EC95E0E80FF91F248135814681D9
:101720005781E484F58406851785AA0FBB1FA65749
:10173000BA4F8D919C91A0E0B0E0EDB7FEB78183E8
:101740009283A383B483C601B501AA24BB24650197
:101750000E94821A0F900F900F900F901F910F917F
:10176000FF90EF90DF90CF90BF90AF900895AF9231
:10177000BF92CF92DF92EF92FF920F931F937B0164
:101780008C0159016A018091D506B801A7010E9418
:10179000730B7093D7066093D6068091D506B60179
:1017A000A5010E94250B2091D6063091D70637FF60
:1017B00003C0E0E0F0E010C0E091D506F0E0EE0FED
:1017C000FF1FE657FA4F0190F081E02DE058F040FE
:1017D0002E173F0708F4F901F093D706E093D606D9
:1017E00077FF03C060E070E010C0E091D506F0E044
:1017F000EE0FFF1FEA56FA4F0190F081E02DE05AFC
:10180000F040E617F70708F4BF017093D90660931C
:10181000D8061F910F91FF90EF90DF90CF90BF906F
:10182000AF900895809126068093D5064091DE06FC
:101830005091DF066091E0067091E1060E94730B03
:101840007093DB066093DA064091E2065091E3065E
:101850006091E4067091E5068091D5060E94250B03
:101860007093DD066093DC068091D5060895AF92F3
:10187000BF92CF92DF92EF92FF920F931F93A82F08
:10188000BB27A7FDB09500D00F92CD01880F991FFF
:10189000FC01EA56FA4FE080F18000E010E0E6EC4F
:1018A000F5E034E0AA0FBB1F3A95E1F7AE0FBF1F7A
:1018B000AD90BD90CD90DC90019623E0880F991FEC
:1018C0002A95E1F7E80FF91F80819181A281B38108
:1018D000EDB7FEB781839283A383B483CB01BA01B2
:1018E00020E030E040E050E00E94821A0F900F901C
:1018F0000F900F901F910F91FF90EF90DF90CF907E
:10190000BF90AF900895AF92BF92CF92DF92EF92C7
:10191000FF920F931F93992787FD909500D00F9208
:10192000FC01EE0FFF1FE657FA4FE080F18000E068
:1019300010E0B4E0880F991FBA95E1F7E6ECF5E006
:10194000DF01A80FB91F1496AD90BD90CD90DC902B
:101950001797E80FF91F84859585A685B785EDB79C
:10196000FEB781839283A383B483CB01BA0120E0C5
:1019700030E040E050E00E94821A0F900F900F90EC
:101980000F901F910F91FF90EF90DF90CF90BF903D
:10199000AF90089597FF03C080E090E00EC0E09103
:1019A000D506F0E0EE0FFF1FE657FA4F0190F081E9
:1019B000E02DE817F90708F4CF019093DB06809338
:1019C000DA0677FF03C060E070E00EC0E091D50654
:1019D000F0E0EE0FFF1FEA56FA4F0190F081E02D84
:1019E000E617F70708F4BF017093DD066093DC0685
:1019F000AC0160E070E08091D5060E94830C60939A
:101A0000DE067093DF068093E0069093E106409136
:101A1000DC065091DD0660E070E08091D5060E9402
:101A2000370C6093E2067093E3068093E40690938C
:101A3000E50608954091DA065091DB062091DC0618
:101A40003091DD06260F371F840F951FB9010E94C4
:101A5000CA0C0895EF92FF920F931F93CF93DF93D9
:101A6000EC0160E070E04AE050E00E9461397B01E7
:101A70008C01611571058105910551F52091ED0BE2
:101A80003091EE0B2232310519F500D000D0EDB7C0
:101A9000FEB7319683ED93E0ADB7BEB712969C9337
:101AA0008E93119733832283D583C4830E94BA090E
:101AB0008DB79EB706960FB6F8949EBF0FBE8DBF2A
:101AC0006091ED0B7091EE0B80E090E00E94E51AC2
:101AD000B701C801DF91CF911F910F91FF90EF9057
:101AE00008954F925F926F927F928F929F92BF92D2
:101AF000CF92DF92EF92FF920F931F93CF93DF93DA
:101B00004B016A01290138017C01E60EF71E00E055
:101B100010E0E801C80DD91DF701B080BB2099F095
:101B2000C201801B910B0297A0F06B2D772767FDF8
:101B30007095C3010E94A83A0F5F1F4F0894E11CE3
:101B4000F11C009711F0219604C0F601B1926F01CB
:101B5000E0CFF6011082CE01DF91CF911F910F915E
:101B6000FF90EF90DF90CF90BF909F908F907F90ED
:101B70006F905F904F900895EF92FF920F931F9395
:101B8000CF93DF938C017B01C0E0D0E00894E108A3
:101B9000F10815C08FE199E00E946017892BD1F3FD
:101BA0008FE199E00E949117F801EC0FFD1F8083EF
:101BB0008D3041F08A3031F0882321F02196CE1506
:101BC000DF0540F30C0F1D1FF8011082CE01DF91DD
:101BD000CF911F910F91FF90EF9008952F923F9218
:101BE0004F925F926F927F928F929F92AF92BF922D
:101BF000CF92DF92EF92FF920F931F93DF93CF93D9
:101C0000CDB7DEB76A970FB6F894DEBF0FBECDBF73
:101C1000F82EE92E3B018A012DB73EB73A8F298F66
:101C20008DB79EB7845690400FB6F8949EBF0FBEF6
:101C30008DBF8DB69EB60894811C911C00D000D03B
:101C4000EDB7FEB7319681E094E0ADB7BEB712961E
:101C50009C938E93119773836283558344830E9470
:101C6000BA09EDB7FEB736960FB6F894FEBF0FBEB1
:101C7000EDBF1614170414F417FF1EC000D000D0D7
:101C8000EDB7FEB731968CE294E0ADB7BEB71296D1
:101C90009C938E93119773826282158304830E94B2
:101CA000BA092FEF3FEFEDB7FEB736960FB6F894AF
:101CB000FEBF0FBEEDBF9AC024018F2D9E2D9C014B
:101CC0006901AA24BB248DE0282E312C2C0E3D1E48
:101CD0008FE199E064E474E00E946C1A8FE199E06E
:101CE00066E474E00E946F1A0E94D2127B018C019C
:101CF0008FE199E00E946017892BD1F30E94D212E4
:101D0000970128513C4F442737FD4095542F261703
:101D100037074807590788F40F920F9287E494E039
:101D2000ADB7BEB712969C938E9311970E94BA09D5
:101D30002FEF3FEF0F900F9059C0C20164E670E0A3
:101D40000E94BC0DF82EE92EF4018081873561F5E3
:101D50008181803281F5C20162E070E0AE014F5FA7
:101D60005F4F2F2D3E2D0FEF13E00E94710DBC0130
:101D7000C201A1012F2D3E2D0E94710DC1010E94B3
:101D80002A0D7B018C01CE0101960E942A0DD601FD
:101D900014966D937D938D939C931797F601E08233
:101DA000F1820283138315C0853429F40F920F92B8
:101DB000E5E6F4E004C00F920F92E6E7F4E0ADB779
:101DC000BEB71296FC93EE9311970E94BA090F903A
:101DD0000F900894A11CB11C28E030E0C20ED31E65
:101DE0006A147B040CF074CF20E030E0C901A98DA7
:101DF000BA8D0FB6F894BEBF0FBEADBF6A960FB6D0
:101E0000F894DEBF0FBECDBFCF91DF911F910F9130
:101E1000FF90EF90DF90CF90BF90AF909F908F900A
:101E20007F906F905F904F903F902F9008952F92EA
:101E30003F924F925F926F927F928F929F92AF925A
:101E4000BF92CF92DF92EF92FF920F931F93DF9397
:101E5000CF93CDB7DEB764970FB6F894DEBF0FBE51
:101E6000CDBF29833A834B835C836D837E838F83CD
:101E70009887A986BA86CB86DC86ED86FE860F8794
:101E8000188B2DB73EB73C8B2B8BED80FE800F81DE
:101E90001885A980BA80CB80DC806D847E848F8495
:101EA000988829843A844B845C848DB79EB7845685
:101EB00090400FB6F8949EBF0FBE8DBFADB7BEB7B2
:101EC0001196BA8BA98BEDB7FEB772970FB6F8943F
:101ED000FEBF0FBEEDBF31968EEB94E0ADB7BEB73F
:101EE00012969C938E931197E282F382048315835A
:101EF000A682B782C086D1866286738684869586DE
:101F000026863786408A518A0E94BA09EDB7FEB705
:101F100072960FB6F894FEBF0FBEEDBF8FE199E049
:101F20006CEE74E00E946C1A8FE199E0B801A70191
:101F30002AE030E00E940D1A8FE199E06FEF73E024
:101F40000E946C1A8FE199E0B601A5012AE030E009
:101F50000E940D1A8FE199E06FEF73E00E946C1AF6
:101F60008FE199E0B401A3012AE030E00E940D1A4C
:101F70008FE199E06FEF73E00E946C1A8FE199E0B6
:101F8000B201A1012AE030E00E940D1A8FE199E030
:101F900066E474E00E946F1A0E94D2127B018C01E9
:101FA0008FE199E00E946017892BD1F30E94D21231
:101FB0009701205F384D442737FD4095542F261751
:101FC00037074807590778F40F920F928FEE94E085
:101FD000ADB7BEB712969C938E9311970E94BA0923
:101FE0006FEF7FEF3CC089899A8964E670E00E94B8
:101FF000BC0DAC0142505040EDB7FEB7E41BF50BF1
:102000000FB6F894FEBF0FBEEDBF6DB77EB76F5F22
:102010007F4FA989BA898C918E34B9F411968C912D
:102020001197803291F420E030E01296FB01E20F2C
:10203000F31F04C08D9181932F5F3F4F2417350705
:10204000C8F3CB010E942A0D0CC00F920F9288E0BA
:1020500095E0EDB7FEB7928381830E94BA090F9095
:102060000F90CB012B893C890FB6F8943EBF0FBE71
:102070002DBF64960FB6F894DEBF0FBECDBFCF91D3
:10208000DF911F910F91FF90EF90DF90CF90BF9065
:10209000AF909F908F907F906F905F904F903F9008
:1020A0002F900895883008F078C0E82FF0E0EE0F08
:1020B000FF1FEA51F94F718360838330D9F0843078
:1020C00030F4813009F444C0823060F439C0853086
:1020D00051F18530D8F0863009F446C0873009F0D8
:1020E0005CC04FC0809169008C7F842B8093690015
:1020F000E89A089580916900440F551F440F551FB9
:10210000837F842B80936900E99A08958091690008
:1021100074E0440F551F7A95E1F78F7C842B8093F0
:102120006900EA9A08958091690066E0440F551F9E
:102130006A95E1F78F73842B80936900EB9A089579
:1021400080916A008C7F842B80936A00EC9A0895BA
:1021500080916A00440F551F440F551F837F842BC5
:1021600080936A00ED9A089580916A0024E0440FFC
:10217000551F2A95E1F78F7C842B80936A00EE9A95
:10218000089580916A0096E0440F551F9A95E1F7F3
:102190008F73842B80936A00EF9A08951F920F9299
:1021A0000FB60F920BB60F9211242F933F934F93BC
:1021B0005F936F937F938F939F93AF93BF93EF93AF
:1021C000FF938091EA069091EB06892B29F0E0912C
:1021D000EA06F091EB061995FF91EF91BF91AF914F
:1021E0009F918F917F916F915F914F913F912F912F
:1021F0000F900BBE0F900FBE0F901F9018951F925F
:102200000F920FB60F920BB60F9211242F933F939C
:102210004F935F936F937F938F939F93AF93BF93EE
:10222000EF93FF938091EC069091ED06892B29F0B6
:10223000E091EC06F091ED061995FF91EF91BF91B9
:10224000AF919F918F917F916F915F914F913F914E
:102250002F910F900BBE0F900FBE0F901F901895EF
:102260001F920F920FB60F920BB60F9211242F935D
:102270003F934F935F936F937F938F939F93AF930E
:10228000BF93EF93FF938091EE069091EF06892B19
:1022900029F0E091EE06F091EF061995FF91EF918C
:1022A000BF91AF919F918F917F916F915F914F916E
:1022B0003F912F910F900BBE0F900FBE0F901F906C
:1022C00018951F920F920FB60F920BB60F92112412
:1022D0002F933F934F935F936F937F938F939F932E
:1022E000AF93BF93EF93FF938091F0069091F10627
:1022F000892B29F0E091F006F091F1061995FF91F4
:10230000EF91BF91AF919F918F917F916F915F916D
:102310004F913F912F910F900BBE0F900FBE0F90DA
:102320001F9018951F920F920FB60F920BB60F9237
:1023300011242F933F934F935F936F937F938F93CA
:102340009F93AF93BF93EF93FF938091E606909195
:10235000E706892B29F0E091E606F091E70619954A
:10236000FF91EF91BF91AF919F918F917F916F916D
:102370005F914F913F912F910F900BBE0F900FBE29
:102380000F901F9018951F920F920FB60F920BB6D9
:102390000F9211242F933F934F935F936F937F93EB
:1023A0008F939F93AF93BF93EF93FF938091E80632
:1023B0009091E906892B29F0E091E806F091E90671
:1023C0001995FF91EF91BF91AF919F918F917F915F
:1023D0006F915F914F913F912F910F900BBE0F9096
:1023E0000FBE0F901F9018951F920F920FB60F926D
:1023F0000BB60F9211242F933F934F935F936F93DC
:102400007F938F939F93AF93BF93EF93FF938091AD
:10241000F2069091F306892B29F0E091F206F091F3
:10242000F3061995FF91EF91BF91AF919F918F9115
:102430007F916F915F914F913F912F910F900BBEC4
:102440000F900FBE0F901F9018951F920F920FB60E
:102450000F920BB60F9211242F933F934F935F93DC
:102460006F937F938F939F93AF93BF93EF93FF935C
:102470008091F4069091F506892B29F0E091F406FD
:10248000F091F5061995FF91EF91BF91AF919F9152
:102490008F917F916F915F914F913F912F910F900D
:1024A0000BBE0F900FBE0F901F901895382F8633DC
:1024B00008F0365320917B00832F8695869586956C
:1024C00090E08170907043E0880F991F4A95E1F782
:1024D000277F282B20937B003770809127068295D9
:1024E000880F880F807C832B80937C0080917A00FA
:1024F000806480937A0080917A0086FDFCCF2091E1
:10250000780040917900942F80E030E0282B392B1F
:10251000C90108951F920F920FB60F9211242F93A5
:102520003F938F939F93AF93BF938091FA069091BF
:10253000FB06A091FC06B091FD063091FE060196C7
:10254000A11DB11D232F2D5F2D3720F02D57019692
:10255000A11DB11D2093FE068093FA069093FB0601
:10256000A093FC06B093FD068091F6069091F706C5
:10257000A091F806B091F9060196A11DB11D8093B6
:10258000F6069093F706A093F806B093F906BF916C
:10259000AF919F918F913F912F910F900FBE0F9010
:1025A0001F9018958FB7F8942091FA063091FB068A
:1025B0004091FC065091FD068FBFB901CA010895F4
:1025C0009B01AC017FB7F8948091F6069091F706D5
:1025D000A091F806B091F90666B5A89B05C06F3FBB
:1025E00019F00196A11DB11D7FBFBA2FA92F982FF9
:1025F0008827860F911DA11DB11D62E0880F991FCC
:10260000AA1FBB1F6A95D1F7BC012DC0FFB7F89474
:102610008091F6069091F706A091F806B091F90620
:10262000E6B5A89B05C0EF3F19F00196A11DB11DAD
:10263000FFBFBA2FA92F982F88278E0F911DA11D9C
:10264000B11DE2E0880F991FAA1FBB1FEA95D1F7C1
:10265000861B970B885E9340C8F221503040404063
:10266000504068517C4F211531054105510571F6E7
:102670000895789484B5826084BD84B5816084BDFA
:1026800085B5826085BD85B5816085BDEEE6F0E0EB
:10269000808181608083E1E8F0E010828081826047
:1026A0008083808181608083E0E8F0E080818160C8
:1026B0008083E1EBF0E0808184608083E0EBF0E0F8
:1026C000808181608083E1E9F0E0808182608083A5
:1026D000808181608083E0E9F0E080818160808397
:1026E000E1EAF0E080818260808380818160808384
:1026F000E0EAF0E0808181608083E1E2F1E08081C6
:1027000082608083808181608083E0E2F1E080816B
:1027100081608083EAE7F0E080818460808380814B
:1027200082608083808181608083808180688083F3
:102730001092C1000895CF93DF93482F50E0CA0153
:1027400088589E4FFC0134914E5C5E4FFA01849193
:10275000882369F190E0880F991FFC01EC51FF4F2D
:10276000A591B491FC01E250FF4FC591D49166232D
:1027700051F42FB7F8948C91932F909589238C93D3
:10278000888189230BC0623061F42FB7F8948C9153
:10279000932F909589238C938881832B88832FBFD7
:1027A00006C09FB7F8948C91832B8C939FBFDF91C9
:1027B000CF910895893009F449C08A30A0F484305B
:1027C00051F1853040F4823079F1833000F5813069
:1027D00009F063C026C0873079F1883098F58630DB
:1027E00009F05BC025C08D3009F442C08E3028F45A
:1027F0008B30B1F18C30C0F52DC0803109F442C06E
:10280000813109F445C08F3009F047C037C080914D
:1028100080008F7703C0809180008F7D809380003F
:10282000089584B58F7702C084B58F7D84BD0895E7
:102830008091B0008F7703C08091B0008F7D80932E
:10284000B0000895809190008F7707C0809190002C
:102850008F7D03C080919000877F809390000895C2
:102860008091A0008F7707C08091A0008F7D03C06A
:102870008091A000877F8093A0000895809120011F
:102880008F7703C0809120018F7D80932001089570
:1028900080912001877F809320010895FF920F93FC
:1028A0001F93F62E482F50E0CA0182549E4FFC0120
:1028B0002491CA0188589E4FFC0114914E5C5E4FD2
:1028C000FA0104910023C9F0222319F0822F0E94FB
:1028D000DA13E02FF0E0EE0FFF1FE250FF4FA5915B
:1028E000B4919FB7F894FF2021F48C911095812327
:1028F00002C08C91812B8C939FBF1F910F91FF90F1
:1029000008950F931F93482F50E0CA0182549E4FA1
:10291000FC012491CA0188589E4FFC0104914E5C31
:102920005E4FFA011491112319F420E030E015C034
:10293000222319F0822F0E94DA13812F90E0880F52
:10294000991F885E9E4FFC01A591B4918C9120E067
:1029500030E0802311F021E030E0C9011F910F9198
:10296000089508951F920F920FB60F920BB60F9213
:1029700011242F933F934F938F939F93EF93FF9344
:102980004091C60020913F07309140072F5F3F4F95
:102990002F733070809141079091420728173907B3
:1029A00059F0E0913F07F0914007E150F94F408323
:1029B0003093400720933F07FF91EF919F918F91B4
:1029C0004F913F912F910F900BBE0F900FBE0F9024
:1029D0001F90189508951F920F920FB60F920BB685
:1029E0000F9211242F933F934F938F939F93EF93C5
:1029F000FF934091CE002091C7073091C8072F5F09
:102A00003F4F2F7330708091C9079091CA072817E4
:102A1000390759F0E091C707F091C807E957F84F17
:102A200040833093C8072093C707FF91EF919F9190
:102A30008F914F913F912F910F900BBE0F900FBE32
:102A40000F901F90189508951F920F920FB60F9236
:102A50000BB60F9211242F933F934F938F939F9315
:102A6000EF93FF934091D60020914F08309150088A
:102A70002F5F3F4F2F733070809151089091520813
:102A80002817390759F0E0914F08F0915008E15F9D
:102A9000F74F40833093500820934F08FF91EF91F8
:102AA0009F918F914F913F912F910F900BBE0F905F
:102AB0000FBE0F901F90189508951F920F920FB69A
:102AC0000F920BB60F9211242F933F934F938F9336
:102AD0009F93EF93FF93409136012091D708309157
:102AE000D8082F5F3F4F2F7330708091D908909195
:102AF000DA082817390759F0E091D708F091D8087B
:102B0000E956F74F40833093D8082093D708FF91B8
:102B1000EF919F918F914F913F912F910F900BBE0D
:102B20000F900FBE0F901F901895E0912B09F09118
:102B30002C09E05CFF4F8191919120813181821BB2
:102B4000930B8F739070892B11F00E94B114E09158
:102B50004A09F0914B09E05CFF4F819191912081EE
:102B60003181821B930B8F739070892B11F00E941F
:102B7000EA14E0916909F0916A09E05CFF4F8191E4
:102B8000919120813181821B930B8F739070892BDF
:102B900011F00E942315E0918809F0918909E05C09
:102BA000FF4F8191919120813181821B930B8F7313
:102BB0009070892B11F00E945C1508951F920F925E
:102BC0000FB60F920BB60F9211242F933F938F9352
:102BD0009F93EF93FF932091830730918407809117
:102BE0008507909186072817390731F48091C10035
:102BF0008F7D8093C10014C0E0918507F091860716
:102C0000ED5BF84F208180918507909186070196B2
:102C10008F73907090938607809385072093C600EA
:102C2000FF91EF919F918F913F912F910F900BBE4C
:102C30000F900FBE0F901F9018951F920F920FB616
:102C40000F920BB60F9211242F933F938F939F9364
:102C5000EF93FF9320910B0830910C0880910D08A1
:102C600090910E082817390731F48091C9008F7DA3
:102C70008093C90014C0E0910D08F0910E08E5534F
:102C8000F84F208180910D0890910E0801968F7366
:102C9000907090930E0880930D082093CE00FF91C2
:102CA000EF919F918F913F912F910F900BBE0F90BD
:102CB0000FBE0F901F9018951F920F920FB60F9294
:102CC0000BB60F9211242F933F938F939F93EF9303
:102CD000FF932091930830919408809195089091EA
:102CE00096082817390731F48091D1008F7D8093A1
:102CF000D10014C0E0919508F0919608ED5AF74F75
:102D00002081809195089091960801968F7390701C
:102D100090939608809395082093D600FF91EF91A9
:102D20009F918F913F912F910F900BBE0F900FBEEF
:102D30000F901F9018951F920F920FB60F920BB61F
:102D40000F9211242F933F938F939F93EF93FF93B1
:102D500020911B0930911C0980911D0990911E0939
:102D60002817390731F4809131018F7D809331012B
:102D700014C0E0911D09F0911E09E552F74F208122
:102D800080911D0990911E0901968F739070909308
:102D90001E0980931D0920933601FF91EF919F91A9
:102DA0008F913F912F910F900BBE0F900FBE0F9000
:102DB0001F901895AF92BF92DF92EF92FF920F9300
:102DC0001F93CF93DF93EC017A018B01DD24403018
:102DD00081EE580780E0680780E0780711F0DD2475
:102DE000D39491E0A92EB12CEC89FD89DD2069F006
:102DF000C5010E8C02C0880F991F0A94E2F78083E8
:102E000060E079E08DE390E005C0108260E874E84E
:102E10008EE190E0A80197010E94E83D21503040EA
:102E200040405040569547953795279580E1203092
:102E3000380720F0DD2011F0DD24D6CFE889F989AC
:102E40003083EA89FB892083EE89FF89408121E074
:102E500030E0C9010A8C02C0880F991F0A94E2F77A
:102E6000482B4083EE89FF894081C9010B8C02C049
:102E7000880F991F0A94E2F7482B4083EE89FF8957
:102E80004081C9010C8C02C0880F991F0A94E2F797
:102E9000482B4083EE89FF8980810D8C02C0220F70
:102EA000331F0A94E2F7209528232083DF91CF91E6
:102EB0001F910F91FF90EF90DF90BF90AF9008951A
:102EC000DC011C96ED91FC911D97E05CFF4F219178
:102ED000319180819181281B390B2F733070C9018A
:102EE0000895DC011C96ED91FC911D97E05CFF4F6D
:102EF00020813181E054F040DF01AE5BBF4F8D9106
:102F00009C9111972817390719F42FEF3FEF07C04D
:102F10008D919C91E80FF91F8081282F30E0C90125
:102F20000895DC011C96ED91FC911D97E05CFF4F2C
:102F300020813181E054F040DF01AE5BBF4F8D91C5
:102F40009C9111972817390719F42FEF3FEF10C004
:102F50008D919C911197E80FF91F20818D919C9183
:102F6000119701968F73907011969C938E9330E019
:102F7000C9010895FC0186859785DC01A05CBF4FDF
:102F8000FC01EE5BFF4F2D913C9111978081918167
:102F900028173907C1F70895CF93DF93EC01EE8529
:102FA000FF85E05CFF4F20813181E054F0402F5FCE
:102FB0003F4F2F733070DF01AE5BBF4F8D919C91FF
:102FC000119728173907D1F3E05CFF4F8081918179
:102FD000E054F040E80FF91F6083EE85FF85E05C68
:102FE000FF4F31832083EE89FF89208181E090E0CB
:102FF0000D8C02C0880F991F0A94E2F7282B2083BA
:1030000081E090E0DF91CF9108951F931092220903
:103010001092210928EE33E040E050E0209323098C
:1030200030932409409325095093260964E376E000
:103030007093200960931F098FEF96E090932C09FD
:1030400080932B0983E497E090932E0980932D09B8
:1030500085EC90E09093300980932F0984EC90E008
:10306000909332098093310980EC90E09093340979
:103070008093330981EC90E0909336098093350971
:1030800086EC90E0909338098093370914E0109310
:103090003909B3E0B0933A09A7E0A0933B09F5E002
:1030A000F0933C09E1E0E0933D0910924109109250
:1030B00040092093420930934309409344095093B7
:1030C000450970933F0960933E0987E897E0909324
:1030D0004B0980934A098BEC97E090934D098093BC
:1030E0004C098DEC90E090934F0980934E098CEC45
:1030F00090E0909351098093500988EC90E0909370
:1031000053098093520989EC90E09093550980937C
:1031100054098EEC90E090935709809356091093D0
:103120005809B0935909A0935A09F0935B09E093A9
:103130005C091092600910925F0920936109309335
:103140006209409363095093640970935E09609328
:103150005D098FE098E090936A098093690983E59F
:1031600098E090936C0980936B0985ED90E09093C3
:103170006E0980936D0984ED90E0909370098093BF
:103180006F0980ED90E0909372098093710981ED51
:1031900090E0909374098093730986ED90E090938A
:1031A00076098093750910937709B0937809A093F5
:1031B0007909F0937A09E0937B0910927F091092C4
:1031C0007E092093800930938109409382095093AE
:1031D000830970937D0960937C0987E998E0909357
:1031E0008909809388098BED98E090938B098093EF
:1031F0008A0985E391E090938D0980938C0984E39B
:1032000091E090938F0980938E0980E391E09093F1
:1032100091098093900981E391E0909393098093C1
:10322000920986E391E09093950980939409109315
:103230009609B0939709A0939809F0939909E093A0
:103240009A091F910895CF93DF930E9439130E942A
:103250008C08C5E9D5E10E94BA052097E1F30E94E8
:103260009515F9CF0895CF92DF92EF92FF920F93C9
:103270001F93CF93DF937C016B018A01C0E0D0E004
:103280000FC0D6016D916D01D701ED91FC910190B8
:10329000F081E02DC7011995C80FD91F01501040CA
:1032A0000115110571F7CE01DF91CF911F910F919B
:1032B000FF90EF90DF90CF900895EF92FF920F93E1
:1032C0001F938C01DC01ED91FC910190F081E02DC8
:1032D0006DE019957C01D801ED91FC910190F08190
:1032E000E02DC8016AE019959C012E0D3F1DC90112
:1032F0001F910F91FF90EF900895EF92FF920F931F
:103300001F937C01DC01ED91FC910190F081E02D97
:1033100019958C01C7010E945D19080F191FC8017A
:103320001F910F91FF90EF900895CF93DF93DB01F2
:103330000D900020E9F71197A61BB70BEC01E8816F
:10334000F9810280F381E02DAD011995DF91CF91D4
:1033500008954F925F927F928F929F92AF92BF9209
:10336000CF92DF92EF92FF920F931F93DF93CF9351
:10337000CDB7DEB7A1970FB6F894DEBF0FBECDBFB5
:103380002C01742ECB01223008F42AE019A231E27C
:10339000C32ED12CCC0EDD1E822E9924AA24BB2450
:1033A000672D752FA50194010E94E83D79018A01DE
:1033B000C801B701A50194010E94A23D472D461BFB
:1033C0000894C108D1084A3014F4405D01C0495C3A
:1033D000F6014083E114F1040105110521F07E2C72
:1033E0005F2DC801DDCFC201B6010E949519A196DB
:1033F0000FB6F894DEBF0FBECDBFCF91DF911F9106
:103400000F91FF90EF90DF90CF90BF90AF909F9083
:103410008F907F905F904F900895CF92DF92EF92C0
:10342000FF920F931F93CF93DF93EC016A017B010F
:103430002115310541F4E881F9810190F081E02DF9
:10344000642F19951FC02A303105D1F477FF17C0BA
:10345000E881F9810190F081E02D6DE219958C01F0
:1034600044275527BA014C195D096E097F09CE0121
:103470002AE00E94A9199801280F391F04C02AE0E8
:103480000E94A9199C01C901DF91CF911F910F9151
:10349000FF90EF90DF90CF900895CF92DF92EF9260
:1034A000FF920F931F936C017B019A010027F7FC99
:1034B0000095102FB801A7010E940D1A8C01C601BA
:1034C0000E945D19080F191FC8011F910F91FF90ED
:1034D000EF90DF90CF9008950E9495190895EF9294
:1034E000FF920F931F937C010E9495198C01C701D5
:1034F0000E945D19080F191FC8011F910F91FF90BD
:10350000EF9008952F923F924F925F926F927F9229
:103510008F929F92AF92BF92CF92DF92EF92FF92E3
:103520000F931F93DF93CF93CDB7DEB73B014C01D1
:1035300019012A016E897F89888D998D6A197B0905
:103540008C099D09621A730A840A950AA4019301E1
:103550000E94A23DE218F30804091509A801970189
:103560000E940A3E2A0D3B1D4C1D5D1DB901CA017A
:10357000CF91DF911F910F91FF90EF90DF90CF904F
:10358000BF90AF909F908F907F906F905F904F9083
:103590003F902F900895CF93DF93C0E0D0E006C016
:1035A000C60FD71F61507040804090406115710573
:1035B00081059105A9F78FE199E06FE375E00E941D
:1035C0006C1ACE01DF91CF910895CF93DF93EB0179
:1035D000892B39F58FE199E060E475E00E946F1A5C
:1035E000F8948DE061E00E949B138FE199E0BE01A9
:1035F0004AE050E00E944D1A8DE060E00E944E14B7
:1036000060E472E48FE090E00E94CB1A8DE061E00C
:103610000E944E1460E472E48FE090E00E94CB1AA6
:10362000E4CFDF91CF910895FC011382128284E4EC
:1036300096E0918380837583648357834683718783
:10364000608753874287158A1586148617861686E3
:1036500021E0248B8FEF9FEF938B828B918B808B5C
:10366000268B08952F923F924F925F926F927F9296
:103670008F929F92AF92BF92CF92DF92EF92FF9282
:103680000F931F93DF93CF93CDB7DEB72E970FB66F
:10369000F894DEBF0FBECDBF9E878D871B015E8372
:1036A0004D83A701260171E0C72ED12CC21AD30A7F
:1036B000C901880F991F66277727681B790B7A83C2
:1036C00069836D807E8008946108710883E0882E8C
:1036D000912C8E0C9F1C790181E090E09C838B8360
:1036E000AA24BB2410E0D801A170B070B887AF83C2
:1036F000FA013196FA87E987B801627070707C87A9
:103700006B8777C0D7FC0AC00894E108F10889816B
:103710009A8102969A838983C80ED91E0894A11CA7
:10372000B11CAB81BC811296BC83AB83EF81F88561
:10373000EF2B41F1AD85BE85ED91FC911197B5015F
:10374000620D731D4D815E814E195F099701220F35
:10375000331F89859A85280F391F0084F185E02D54
:10376000CD0182011995AD85BE85ED91FC91119732
:10377000B701620D731D0084F185E02DCD01A30119
:1037800094011995EB85FC85EF2B41F1AD85BE8544
:10379000ED91FC911197B1016A197B094D815E8110
:1037A0004E195F099701220F331F89859A85280FCB
:1037B000391F0084F185E02DCD0182011995AD8579
:1037C000BE85ED91FC911197B1016E197F090084BE
:1037D000F185E02DCD01A30194011995EB81FC81C8
:1037E000CE0EDF1E08946108710862E070E0860E5C
:1037F000971EAE14BF040CF485CF2E960FB6F89426
:10380000DEBF0FBECDBFCF91DF911F910F91FF9013
:10381000EF90DF90CF90BF90AF909F908F907F9070
:103820006F905F904F903F902F9008956F927F928E
:103830008F929F92AF92BF92CF92DF92EF92FF92C0
:103840000F931F937C014B013A0159016801DC0180
:10385000ED91FC91421B530B220F331F2F5F3F4F03
:103860000084F185E02D1995C701B401A3019501EC
:1038700003E0EE24FF240E94321B1F910F91FF9062
:10388000EF90DF90CF90BF90AF909F908F907F9000
:103890006F9008952F923F924F925F926F927F9216
:1038A0008F929F92AF92BF92CF92DF92EF92FF9250
:1038B0000F931F93DF93CF9300D00F92CDB7DEB756
:1038C0003C017C836B836A015901FA82E9822224DC
:1038D00033249801241B350B37FF03C03095219505
:1038E0003F4FC5014B815C81841B950B97FF03C043
:1038F000909581959F4F821793075CF481E0282E65
:10390000312CC601CB80DC809C838B83C801850170
:103910005C018B819C81A816B90644F4C501AB807B
:10392000BC809C838B83C80186016C012501AB811F
:10393000BC814A1A5B0A7801EC18FD08F7FE04C046
:10394000F094E194F108F394C016D10624F0882491
:103950008A94982C03C0B1E08B2E912CC20162E0B6
:1039600070E00E94D53D8B0125C0D301ED91FC9103
:103970002114310441F00480F581E02DC301B6012A
:103980004B815C8107C00480F581E02DC3016B8110
:103990007C81A60129813A8119950E191F0917FF0B
:1039A00004C0C80CD91C040D151DEB81FC81319697
:1039B000FC83EB834B815C81A416B506B4F60F90B3
:1039C0000F900F900F90CF91DF911F910F91FF906B
:1039D000EF90DF90CF90BF90AF909F908F907F90AF
:1039E0006F905F904F903F902F9008954F925F920D
:1039F0006F927F928F929F92AF92BF92CF92DF92FF
:103A0000EF92FF920F931F936C015B014A01390102
:103A10002801DC01ED91FC910284F385E02D870102
:103A20001995D601ED91FC91A40141505040440DEF
:103A3000551D0284F385E02DC601B501930119954A
:103A4000D601ED91FC910084F185E02DC601B50110
:103A5000A40192011995D601ED91FC910894A10859
:103A6000B108A60CB71C0084F185E02DC601B50194
:103A7000A401920119951F910F91FF90EF90DF9093
:103A8000CF90BF90AF909F908F907F906F905F90FE
:103A90004F900895CF92DF92EF92FF920F931F9372
:103AA000DC016B017801ED91FC918A01015010401D
:103AB000020F131F0680F781E02D960119951F91C3
:103AC0000F91FF90EF90DF90CF900895CF92DF920B
:103AD000EF92FF920F931F93DC016A01C9017801F5
:103AE000ED91FC9111979B0121503040280F391F17
:103AF0000680F781E02DCD01860119951F910F9168
:103B0000FF90EF90DF90CF9008956F927F928F9209
:103B10009F92AF92BF92CF92DF92EF92FF920F935C
:103B20001F93CF93DF935C013A0169014801EB01D8
:103B3000C60ED71E0DC0D501ED91FC910084F18514
:103B4000E02DC501BE01A3019401870119952196BD
:103B5000CC15DD0584F3DF91CF911F910F91FF907C
:103B6000EF90DF90CF90BF90AF909F908F907F901D
:103B70006F900895EF92FF920F931F93FC017B01CA
:103B8000A081B18120853185028513851E960D9017
:103B9000BC91A02D60E070E040E050E0FD0119957F
:103BA0001F910F91FF90EF9008952F923F924F92A7
:103BB0005F926F927F928F929F92AF92BF92CF92BD
:103BC000DF92EF92FF920F931F93DF93CF93CDB7C6
:103BD000DEB72F970FB6F894DEBF0FBECDBF5C01E6
:103BE0005E834D8318870F83FA86E986CB86DC01D6
:103BF00018968D919C911997681779070CF0A4C0BD
:103C00001A968D919C911B97481759070CF09CC0F0
:103C1000EC2DF0E0FF87EE87CF01880F991F8E0F04
:103C20009F1F880F991F860F971F181619060CF0F3
:103C30008BC0CF01F3E0880F991FFA95E1F7840F4D
:103C4000951F181619060CF07FC085E0289FA0016B
:103C500011245A8349832B011B011C825C8155303E
:103C600011F480E005C0E981FA81EC5FFD4F849199
:103C70002C863D866D807E8043011B82C82EDD240C
:103C800080FF1CC0D501ED91FC91BB85B13049F49A
:103C90000480F581E02DC501B201A3012F81388593
:103CA00022C00684F785E02DC5016C857D85A401C1
:103CB0002E853F858901EF80F88423C0E985FA8548
:103CC0002F813885E217F307E9F0D501ED91FC91DA
:103CD000BB85B13051F40480F581E02DC501B201FE
:103CE000A30129853A8519950DC00684F785E02D35
:103CF000C5016C857D85A4012E853F858901E984F8
:103D0000FA841995EB81EF5FEB832E853F85820E58
:103D1000931E0894611C711CE83021F0D594C7945F
:103D20008C2DACCF3C813F5F3C834E855F85240E5C
:103D3000351E0894411C511C89819A8101969A83F1
:103D40008983363009F08ACF2F960FB6F894DEBFFC
:103D50000FBECDBFCF91DF911F910F91FF90EF90DC
:103D6000DF90CF90BF90AF909F908F907F906F909B
:103D70005F904F903F902F900895CF92EF92FF92D7
:103D80000F931F93CF93DF93EC01262F6A3061F4DA
:103D90002C8930E003E0220F331F0A95E1F78E856E
:103DA0009F85820F931F37C06D30C9F16C857D856B
:103DB0004E855F8508891989EA88FB88CC880E942E
:103DC000D51D2C8986E0289FB00111248C859D8506
:103DD000680F791F7D876C878E89882301F1422FB8
:103DE00050E08AEF9FEF9C01429FC001439F900DDE
:103DF000529F900D112428853985820F931F8617B5
:103E000097076CF413E0440F551F1A95E1F78E8560
:103E10009F85840F951F9F878E871D861C8681E056
:103E200090E0DF91CF911F910F91FF90EF90CF9095
:103E30000895FC0175876487578746870895FC01BC
:103E4000662309F461E0648B0895FC01738B628B37
:103E5000718B608B08950895DC0158968C9158976A
:103E6000882329F06EBD0DB407FEFDCF089530E81C
:103E700040E050E070E0832F90E08623972359962E
:103E8000ED91FC915A9796962C919697892B21F05B
:103E90008081822B808304C0808120952823208309
:103EA0005B96ED91FC915C97808197969C9197979A
:103EB000892B80835B96ED91FC915C97908197961E
:103EC0008C91979780958923808336954F5F5F4FBC
:103ED0004830510581F608950F931F938C01DC0142
:103EE0005F96ED91FC919097908199968C9199971E
:103EF0008095892380835D96ED91FC915E979081FA
:103F000098968C91809589238083C8010E942C1FEC
:103F1000D8015D96ED91FC915E97808198969C9179
:103F2000892B80831F910F9108950F931F938C010C
:103F3000DC015F96ED91FC919097808199969C9120
:103F40009997892B80835D96ED91FC915E97908186
:103F500098968C91809589238083C8010E942C1F9C
:103F6000D8015D96ED91FC915E97808198969C9129
:103F7000892B80831F910F910895CF92DF92EF924A
:103F8000FF920F931F937C01162FC42ED22E6AE24C
:103F90000E946C1FC70160E00E94951FF70162A597
:103FA000610FC7010E94951FC70160E00E94951F25
:103FB000F70162A56D0DC7010E94951FC7016BE255
:103FC0000E946C1FC70160E00E94951FF70163A566
:103FD0006C0DC7010E94951FC70160E00E94951FEC
:103FE000F70163A5600FC7010E94951FC7016CE22E
:103FF0000E946C1F1F910F91FF90EF90DF90CF9068
:104000000895FF920F931F938C01F62E672FDC010A
:104010005F96ED91FC919097808199969C919997EC
:10402000892B80835D96ED91FC915E9790819896A7
:104030008C91809589238083C8010E942C1FC80120
:104040006F2D0E942C1FD8015D96ED91FC915E971B
:10405000808198969C91892B80831F910F91FF906E
:104060000895FF920F931F93CF93DF93EC01F22EED
:10407000132F77FD2EC088859985681779074CF531
:1040800057FD27C08A859B854817590714F5262FA9
:104090002F5F042F0F5FCE010E94BD1FEF8DF8A18F
:1040A000808199A5892B8083ED8DFE8D908188A5D7
:1040B000809589238083CE01612F0E942C1FCE0121
:1040C0006F2D0E942C1FED8DFE8D808198A5892B70
:1040D0008083DF91CF911F910F91FF900895DF9220
:1040E000EF92FF920F931F93CF93DF93EC01FB01AD
:1040F0007901D02E8885998568177907D4F52A85A6
:104100003B8542175307ACF5C701840F951F28174D
:1041100039071CF47901E41AF50A042F01500E0D39
:10412000CE016E2F2E2F0E94BD1FEF8DF8A1808132
:1041300099A5892B8083ED8DFE8D908188A5809532
:104140008923808308C0CE01612F0E942C1FCE01DD
:104150006D2D0E942C1F0894E108F1088FEFE816DE
:104160008FEFF80681F7ED8DFE8D808198A5892B64
:104170008083DF91CF911F910F91FF90EF90DF909F
:104180000895DF92EF92FF920F931F93CF93DF93E7
:10419000EC01FA017901D02E288539856217730761
:1041A000D4F58A859B8548175907ACF5C701860F5A
:1041B000971F281739071CF47901E61AF70A262FEA
:1041C00021502E0DCE014E2F0E2F0E94BD1FEF8DC0
:1041D000F8A1808199A5892B8083ED8DFE8D90813A
:1041E00088A580958923808308C0CE01612F0E9415
:1041F0002C1FCE016D2D0E942C1F0894E108F108A0
:104200008FEFE8168FEFF80681F7ED8DFE8D808138
:1042100098A5892B8083DF91CF911F910F91FF90FB
:10422000EF90DF900895EF92FF920F931F93FC01A0
:104230007B01A081B18120853185028513851E9681
:104240000D90BC91A02D60E070E040E050E0FD01D9
:1042500019951F910F91FF90EF900895AF92BF9223
:10426000CF92DF92EF92FF920F931F93CF93DF9342
:104270006C015901E801DC0118962D913C911997C8
:10428000621773070CF057C01A96ED91FC911B97BB
:104290004E175F070CF04FC0C501860F971F2817F8
:1042A00039071CF45901A61AB70ACE01840F951FCD
:1042B000E817F9071CF4EF01C41BD50B262F21507A
:1042C0002A0D042F01500C0FC6010E94BD1FD601FC
:1042D0005F96ED91FC919097808199969C9199972A
:1042E000892B80835D96ED91FC915E9790819896E5
:1042F0008C918095892380838E010EC0C6016F2D1D
:104300000E942C1FC6016E2D0E942C1F21971C1687
:104310001D06A4F3015010401016110614F4E50117
:10432000F6CFD6015D96ED91FC915E9780819896CF
:104330009C91892B8083DF91CF911F910F91FF90EA
:10434000EF90DF90CF90BF90AF9008951F93CF93E1
:10435000DF93EC01162F66E30E946C1F13701D8B18
:10436000113081F0113028F01230A9F01330B1F57E
:1043700023C08F89823019F4CE0160EC14C0CE01C5
:1043800068EC11C08F89823019F4CE0160EA1CC03C
:10439000CE0168EA19C08F89823019F4CE0160E03D
:1043A00002C0CE0168E00E94951F80E890E09987E6
:1043B000888780EA90E010C08F89823019F4CE019E
:1043C00060E602C0CE0168E60E94951F80EA90E098
:1043D0009987888780E890E09B878A87DF91CF91D3
:1043E0001F910895662311F460E201C061E20E940A
:1043F0006C1F0895AF92BF92CF92DF92EF92FF921F
:104400000F931F93CF93DF935C01FB01EB01219688
:10441000D49031C08E010F5F1F4FFE016491C50122
:104420000E946C1F78010894E11CF11CF801C490F3
:104430000C2D0F77E701102F08C0FE012196E491A3
:10444000C5016E2F0E94951F11501123B1F7E7018E
:10445000C00FD11DC7FE0EC0FE018491682F70E011
:104460006F3F710511F464EF71E0219680E090E0F8
:104470000E94E012DA94DD2069F6DF91CF911F915E
:104480000F91FF90EF90DF90CF90BF90AF90089585
:104490000F931F93CF93DF93EC018B011BA61AA6FA
:1044A0008AA161E00E949B1389A161E00E949B1395
:1044B000E9A14E2F50E0FA01EE5CFE4FE491F0E0EE
:1044C000EE0FFF1FE250FF4F859194919E8F8D8FCD
:1044D000EAA12E2F30E0F901EE5CFE4FE491F0E00E
:1044E000EE0FFF1FE250FF4F8591949198A38F8F9D
:1044F00048585E4FFA01849188A728583E4FF90129
:10450000849189A7888D882361F00E947C3580E0A2
:104510000E946B3581E00E945D3580E00E94663527
:104520003DC08DA161E00E949B138CA161E00E94BF
:104530009B13EDA14E2F50E0FA01EE5CFE4FE4918B
:10454000F0E0EE0FFF1FE250FF4FA591B491BC8F3A
:10455000AB8FECA12E2F30E0F901EE5CFE4FE49121
:10456000F0E0EE0FFF1FE250FF4F859194919A8F7C
:10457000898F48585E4FFA0194919FA328583E4F67
:10458000F90184918EA38C91909598239C93E98D49
:10459000FA8D90818EA1809589238083ED8DFE8D8B
:1045A000908188A58095892380838BA1882309F138
:1045B00061E00E949B138BA161E00E944E1464EFA6
:1045C00071E080E090E00E94E0128BA160E00E9428
:1045D0004E1464EF71E080E090E00E94E0128BA145
:1045E00061E00E944E1464EF71E080E090E00E9470
:1045F000E0120115110521F0CE01B8010E94FA2147
:10460000DF91CF911F910F9108951F93CF93DF9367
:10461000EC01162F6FEF76E00E944822112351F42F
:10462000CE016AE377E00E94FA2182E08AA781E066
:104630008BA705C0CE0167E477E00E94FA21CE0186
:1046400064E577E00E94FA21123041F4CE0166E37E
:104650000E946C1FCE0160EC0E94951F1F8BDF91A2
:10466000CF911F910895DF92EF92FF920F931F93C6
:104670008C01F62EE42ED22E60E870E040EA50E085
:104680000E94141B8CE596E0F80191838083F1A2CF
:10469000E2A2D3A281E0808F15A214A21F910F91F4
:1046A000FF90EF90DF90089582E090E0A0E0B0E00E
:1046B00080939B0990939C09A0939D09B0939E09B8
:1046C0001092B2091092BC091092BB0984E796E0DF
:1046D0009093BA098093B9091092BE091092DB0930
:1046E0001092DC091092DF091092E10908952F92CF
:1046F0003F924F925F926F927F928F929F92AF9272
:10470000BF92CF92DF92EF92FF920F931F93DF93AE
:10471000CF93CDB7DEB7C754D0400FB6F894DEBF05
:104720000FBECDBF582E492EFB013A01190180A1C1
:1047300091A1998B888B24E736E03F872E8782A151
:104740008A8B83A18B8B84A195A1A6A1B7A18C8B09
:104750009D8BAE8BBF8B80A591A5A2A5B3A5888F9D
:10476000998FAA8FBB8F84A595A5A6A5B7A58C8F79
:104770009D8FAE8FBF8F80A988A381A992A9A3A97D
:10478000B4A989A39AA3ABA3BCA385A996A9A7A9F9
:10479000B0AD8DA39EA3AFA3B8A781AD92AD9AA7EC
:1047A00089A71EA61DA63CA72BA718AA7A018E01D1
:1047B000025F1F4F3BE2A32EB12CAC0EBD1E4E017B
:1047C0000894811C911C35C0D7018C918F3221F443
:1047D0000894E11CF11C2DC0422F4E194D3008F0F9
:1047E0004CE0C42EDD24C401B701A6010E94B33AF7
:1047F000F401EC0DFD1D1082C5010E94492AC5017E
:10480000B801A40121E00E94912F882351F4E52DE5
:10481000F42D1382128284E796E0918380831582BF
:1048200066C0EC0CFD1CC8010E94492AC501580154
:104830008C01C7016FE270E00E94A83A9C010097CA
:1048400019F6E618F708F101F182E082E52DF42D62
:10485000D80112968D919C9113979383828384E75C
:1048600096E09183808314968C9114978483159697
:104870008C911597858316962D913D914D915C9164
:10488000199726833783408751871A962D913D913A
:104890004D915C911D9722873387448755871E96DB
:1048A0002D913D914D915C91519726873787408B93
:1048B000518B52968C915297828B53962D913D91AC
:1048C0004D915C915697238B348B458B568B579625
:1048D0002D913D914D915C915A97278B308F418F4F
:1048E000528F5B968D919C915C97948F838F852DD1
:1048F000942DC95BDF4F0FB6F894DEBF0FBECDBF5E
:10490000CF91DF911F910F91FF90EF90DF90CF90AB
:10491000BF90AF909F908F907F906F905F904F90DF
:104920003F902F9008959F92AF92BF92CF92DF92C7
:10493000EF92FF920F931F93DF93CF93CDB7DEB724
:10494000C657D0400FB6F894DEBF0FBECDBFC82EFD
:10495000992E8A01D22E43E0A42EB12CAC0EBD1E9E
:10496000C501A8019E012F5F3F4F0E947723E98078
:10497000FA80E00EF11EF701808144E756E02885B9
:10498000882309F03FC08D819E819BA38AA359A3F0
:1049900048A38F818CA32DA389859A85AB85BC857F
:1049A0008EA39FA3A8A7B9A78D859E85AF85B8893B
:1049B0008AA79BA7ACA7BDA789899A89AB89BC891F
:1049C0008EA79FA7A8ABB9AB8D898AAB8E899F892B
:1049D000A88DB98D8BAB9CABADABBEAB8A8D9B8DDF
:1049E000AC8DBD8D8FAB98AFA9AFBAAF8E8D9F8DBB
:1049F0009CAF8BAF8C2D992DBE01605E7F4F42E541
:104A000055E09FC0FE01FF96118210825EAF4DAF50
:104A1000FE01EE5BFF4F10822223A9F02250CE014F
:104A2000CD96223048F469EB79E0A7012D2D0E9444
:104A3000912F882381F407C0B501A7012D2D0E9475
:104A4000912F882329F48C2D992D0E94E9367BC063
:104A5000C5010E94492AF6E0DF2259F0FE01E05B21
:104A6000FF4F4081518162817381CE01CD960E94BA
:104A700039299E01265A3F4FFE01FF968081918180
:104A8000F9019383828384E796E091838083FE011A
:104A9000EF5BFF4F8081F9018483FE01EE5BFF4FE6
:104AA0008081F9018583FE01ED5BFF4F808191815B
:104AB000A281B381F90186839783A087B187FE0124
:104AC000E95BFF4F80819181A281B381F9018287E7
:104AD0009387A487B587FE01E55BFF4F80819181B5
:104AE000A281B381F90186879787A08BB18BFE01E4
:104AF000E15BFF4F8081F901828BFE01E05BFF4F9C
:104B000080819181A281B381F901838B948BA58BE4
:104B1000B68BFE01EC5AFF4F80819181A281B38157
:104B2000F901878B908FA18FB28FFE01E85AFF4F5A
:104B300080819181F901948F838F8C2D992DB901FA
:104B4000A7010E94F3378C2D992DCA58DF4F0FB65D
:104B5000F894DEBF0FBECDBFCF91DF911F910F91B3
:104B6000FF90EF90DF90CF90BF90AF909F9008950F
:104B7000EF92FF920F931F93CF93DF93EC01462F99
:104B80008C01055C1F4FC80161E00E942528882325
:104B9000D1F0FC2EED2ECE01B80141E00E94323161
:104BA000882339F4CE01B80140E00E9432318823D5
:104BB00051F0CE014E966F2D7E2D0E947F2C8823C2
:104BC00019F081E001C080E0DF91CF911F910F913A
:104BD000FF90EF900895FC01673020F086E1858317
:104BE00080E00895262F30E060FD02C0663019F4A1
:104BF0008DB58E7F02C08DB581608DBD8CB58C7FEB
:104C00008CBD4CB522FD02C090E001C092E036950B
:104C10002795822F8170842B892B8CBD81E008958C
:104C2000FF920F931F93CF93DF938B010E94D212B9
:104C3000EB01FF24FA94FEBC0DB407FEFDCF8EB548
:104C40008F3F11F481E008C00E94D2126C1B7D0BD3
:104C50006017710780F380E0DF91CF911F910F9172
:104C6000FF900895FC01848160E00E944E14089535
:104C7000FC01848161E00E944E140895DC016EBD48
:104C8000FA0120E030E00DB407FEFDCF80818EBD3B
:104C90000DB407FEFDCF81818EBD2E5F3F4F329652
:104CA00082E02030380779F70DB407FEFDCF8FEF93
:104CB0008EBD0DB407FEFDCF8FEF8EBD0DB407FE88
:104CC000FDCF8FEF8EBD0DB407FEFDCF8EB51A96CA
:104CD0008C931A978F71853011F481E0089581E1EA
:104CE00015968C931597CD010E94382680E0089583
:104CF000FF920F931F93CF93DF93EC010E94D21288
:104D00008B01FF24FA9409C00E94D212601B710B20
:104D10006D52714010F08FE00DC0FEBC0DB407FE67
:104D2000FDCF8EB58A878F3F79F38E3F11F481E0F6
:104D300006C08DE08D83CE010E94382680E0DF9191
:104D4000CF911F910F91FF900895CF93DF93EC01C6
:104D50008E818823D1F08FEF8EBD2F8138854FEF64
:104D600004C00DB407FEFDCF4EBD2F5F3F4FC901FC
:104D7000019781509240A8F338872F830DB407FE26
:104D8000FDCFCE010E9438261E82DF91CF9108957B
:104D9000DF92EF92FF920F931F93CF93DF93EC017B
:104DA000D62E79018A010E94A526CE010E943226C4
:104DB000CE016CE271E00E9410268D2D80648EBDC4
:104DC0000DB407FEFDCF28E130E0D801C701022E67
:104DD00004C0B695A795979587950A94D2F78EBD8E
:104DE0000DB407FEFDCF285030408FEF283F380725
:104DF00061F7DD2011F485E906C088E0D81611F4CA
:104E000087E801C08FEF8EBD0DB407FEFDCF90E0A7
:104E10002FEF2EBD0DB407FEFDCF8EB587FF02C06C
:104E20009150B9F78A87DF91CF911F910F91FF9031
:104E3000EF90DF900895CF92DF92EF92FF920F9361
:104E40001F93CF93DF93EC017A018B016901411528
:104E500051056105710511F482E137C08B858330FE
:104E600039F029E0EE0CFF1C001F111F2A95D1F725
:104E7000CE0168E1A80197010E94C826882311F09D
:104E800084E023C0CE016EEFA6010E943E26882357
:104E9000E9F0CE0168E572E00E941026882311F443
:104EA00085E113C0CE016DE020E030E040E050E04D
:104EB0000E94C826882341F48FEF8EBD0DB407FEF3
:104EC000FDCF8EB5882379F084E18D83CE010E94D9
:104ED000382680E0DF91CF911F910F91FF90EF90E6
:104EE000DF90CF900895CE010E94382681E0F2CF66
:104EF0008F929F92AF92BF92CF92DF92EF92FF92EA
:104F00000F931F93CF93DF93EC015A016B0149017B
:104F10000115110509F47BC0C801820F931F815050
:104F2000924008F06FC08E81882371F0888199814A
:104F3000AA81BB81481759076A077B0729F48F812B
:104F400098858816990618F5A882B982CA82DB82EC
:104F50008B85833039F069E0AA0CBB1CCC1CDD1CAE
:104F60006A95D1F7CE0161E1A60195010E94C8269C
:104F7000882319F083E08D8345C0CE010E947826F6
:104F8000882309F43FC018861F8281E08E838FEF4B
:104F90008EBD8F8198852FEF05C00DB407FEFDCF24
:104FA0002EBD019688159905C0F398878F83D80187
:104FB000119720E030E09FEF0BC00DB407FEFDCF4E
:104FC0008EB5F701E20FF31F80839EBD2F5F3F4F29
:104FD0002A173B0790F30DB407FEFDCF8EB5AE0D3B
:104FE000BF1D8C932F813885200F311F38872F8369
:104FF0008985882319F02050324048F0CE010E9464
:10500000A52605C0CE010E94382680E001C081E0BF
:10501000DF91CF911F910F91FF90EF90DF90CF9094
:10502000BF90AF909F908F900895EF92FF920F9353
:105030001F93790120E030E000E012E00E94782721
:105040001F910F91FF90EF900895BF92CF92DF9242
:10505000EF92FF920F931F93CF93DF93EC01B62E45
:105060001B8619861E821D824C830E94D2126B0100
:105070008C8161E00E949B13CE010E94382682E35E
:1050800060E00E949B1383E361E00E949B1384E332
:1050900061E00E949B1385E361E00E949B1385E31E
:1050A00061E00E944E1483E58CBD8DB58E7F8DBD71
:1050B00080E09FEF9EBD0DB407FEFDCF8F5F8A306D
:1050C000C9F7CE010E94322609C00E94D2126C1983
:1050D0007D09615D774010F081E05EC0CE0160E047
:1050E00020E030E040E050E00E94C826182F8A8778
:1050F000813059F7CE0168E02AEA31E040E050E023
:105100000E94C82682FF02C01B8711C080E02FEFDB
:105110002EBD0DB407FEFDCF9EB58F5F8430C1F765
:105120009A879A3A11F082E037C082E08B878B85AC
:10513000823021F0EE24FF2487010FC0E12CF12CF6
:10514000012DF0E41F2F09C00E94D2126C197D09B5
:10515000615D774010F088E01FC0CE0167E320E07A
:1051600030E040E050E00E94C826CE0169E2A8018C
:1051700097010E94C8268A87882331F78B85823061
:1051800031F5CE016AE320E030E040E050E00E94DB
:10519000C826882339F086E08D83CE010E94382608
:1051A00080E01CC08FEF8EBD0DB407FEFDCF8EB525
:1051B000807C803C11F483E08B8780E09FEF9EBD74
:1051C0000DB407FEFDCF2EB58F5F8330C1F7CE0142
:1051D0000E943826CE016B2D0E94EB25DF91CF91E6
:1051E0001F910F91FF90EF90DF90CF90BF900895A7
:1051F000CF93DF93EC01DB0180E090E020E2FD0142
:10520000E80FF91F208301968B309105C1F757E015
:1052100040E021C02E3219F086EE97E007C05A30E8
:1052200019F15AE048E017C03217F1F0FC0101967D
:1052300034913323C9F75417B8F02132A8F02F372F
:1052400098F4822F81568A3108F42052FD01E40F30
:10525000F11D20834F5F29912223E1F690E08C918C
:10526000803219F091E001C090E0892FDF91CF9159
:1052700008956F927F928F929F92AF92BF92CF923A
:10528000DF92EF92FF920F931F93CF93DF93EC0186
:105290007A018B012D81222309F480C08B899C899E
:1052A000AD89BE8984179507A607B70708F476C0AD
:1052B00085C0E114F1040105110549F41E821F8225
:1052C000188619861A861B861C861D8665C02A8547
:1052D0003B854C855D85EB8DFC8D858590E0099641
:1052E000215030404040504039014A01082E04C04E
:1052F00096948794779467940A94D2F72F5F3F4FE0
:105300004F4F5F4F0894E108F10801091109570157
:10531000680104C0D694C794B794A7948A95D2F72D
:105320000894E11CF11C011D111DA614B704C8044A
:10533000D90428F0211531054105510549F48F891B
:10534000988DA98DBA8D8E839F83A887B98716C043
:10535000A618B708C808D90811C04E815F816885B2
:1053600079858B8D9C8D94010E9413330894A1083C
:10537000B108C108D108882331F410C086E0882E16
:10538000912C8C0E9D1EA114B104C104D10429F7E7
:10539000EA86FB860C871D8781E001C080E0DF91F3
:1053A000CF911F910F91FF90EF90DF90CF90BF9022
:1053B000AF909F908F907F906F900895223009F06A
:1053C00078CFE6CFCF93DF93EC01462F6E857F85B4
:1053D000888999890E94F730882319F420E030E009
:1053E0000AC08A89282F30E095E0220F331F9A9552
:1053F000E1F72A51364FC901DF91CF9108950F93FC
:105400001F93CF93DF938C01FC0185818823D9F111
:10541000848187FF35C0C80161E00E94E229EC0168
:10542000009789F1F8018581823040F4838994895D
:10543000A589B6898C8F9D8FAE8FBF8FF801878924
:10544000908D9B8F8A8F8789908DA18DB28DCD0194
:10545000AA27BB279D8B8C8BE091E409F091E5098D
:10546000309751F0BE016A5E7F4FCE014896199584
:10547000888D998D9B8B8A8BF80184818F778483AB
:105480000E94983001C080E0DF91CF911F910F9171
:105490000895CF93DF93EC010E94FF29882311F038
:1054A0001D8281E0DF91CF9108956F927F928F925C
:1054B0009F92AF92BF92CF92DF92EF92FF920F93A3
:1054C0001F93DF93CF9300D00F92CDB7DEB77C014F
:1054D0005A016B01DC0115968C911597813009F00A
:1054E0008FC014968C9181FF8BC09EC00097A10540
:1054F000B10511F481E085C0F7016284738484846E
:105500009584C701B601A5010E943929882309F4B1
:1055100077C0D7015B968D919C915C97A114B104E3
:10552000C104D10489F457964D915D916D917C91A0
:105530005A970E948633882309F462C0F701178ABC
:10554000108E118E128E3DC0D70116964D915D9131
:105550006D917C9119979E012F5F3F4F0E941333ED
:10556000882309F44DC0D7015B96ED91FC915C97BF
:1055700049815A816B817C818789803129F088EF4C
:105580009FEFAFEFBFE004C088EF9FEFA0E0B0E077
:10559000481759076A077B07A0F4CF010E9486339A
:1055A000882371F1F7014681578160857185838D6C
:1055B000948D0FEF1FEF2FEF3FE00E94773288238B
:1055C000F9F0D7015396AD92BD92CD92DC925697E9
:1055D00014968C911497806814968C93C7010E943E
:1055E000FF29882369F0B601A5016A147B048C04A5
:1055F0009D0410F4B401A301C7010E94392901C020
:1056000080E00F900F900F900F90CF91DF911F913E
:105610000F91FF90EF90DF90CF90BF90AF909F9051
:105620008F907F906F900895F70183899489A58961
:10563000B68984179507A607B70708F057CFE0CFBC
:105640002F923F924F925F926F927F928F929F9292
:10565000AF92BF92CF92DF92EF92FF920F931F9380
:10566000CF93DF93EC012A018D81882309F4C6C012
:105670008C8180FFC3C0D8C025014E185F084B0144
:1056800076E0272E312C2C0E3D1E3201B1C02A852A
:105690003B854C855D856FEFA62E61E0B62EA2227C
:1056A000B3228D8179018A0199E016950795F794C7
:1056B000E7949A95D1F7EB8DFC8D823049F4428DB9
:1056C000538D648D758D4E0D5F1D601F711F3FC022
:1056D000D480DA94DE20A114B104D9F4DD20C9F419
:1056E000211531054105510549F48F89988DA98D02
:1056F000BA8D8E839F83A887B9870BC04E815F8147
:1057000068857985CF0191010E941333882309F4BC
:1057100075C0EB8DFC8D4E815F8168857985425027
:10572000504060407040058404C0440F551F661F00
:10573000771F0A94D2F786859785A089B189480F8B
:10574000591F6A1F7B1F4D0D511D611D711D80E08A
:1057500092E08A199B0963018615970508F46C018C
:105760008C8186FD06C080E0C81682E0D80609F06C
:1057700073C08091280690912906A0912A06B091C5
:105780002B06481759076A077B0709F465C0809103
:10579000E60B9091E70B9501860174010E94782732
:1057A000882361F18C0C9D1C12C095012A51364F43
:1057B000A9014C0D5D1DD401F90102C081918D93A9
:1057C000E417F507D9F7E21BF30B8E0E9F1E960127
:1057D00040E050E08A859B85AC85BD85820F931F94
:1057E000A41FB51F8A879B87AC87BD876C187D086F
:1057F0006114710409F04BCFA20102C04FEF5FEFBB
:10580000CA01DF91CF911F910F91FF90EF90DF9030
:10581000CF90BF90AF909F908F907F906F905F9050
:105820004F903F902F900895AB88BC88CD88DE883C
:10583000EA84FB840C851D859A0140E050E0D60186
:10584000C5018E199F09A00BB10B82179307A407FE
:10585000B50708F411CF13CFCB01BA0140E00E9485
:10586000F730882309F0A1CFC9CFCF92DF92EF9212
:10587000FF920F931F93DF93CF930F92CDB7DEB7B5
:105880006C01FC018581823070F0E284F384048530
:105890001585C601BE016F5F7F4F41E050E00E9459
:1058A000202B019769F020E030E0C9010F90CF91E3
:1058B000DF911F910F91FF90EF90DF90CF900895AF
:1058C000F60182859385A485B5854F96A11DB11DEE
:1058D00082879387A487B587F5E016950795F79497
:1058E000E794FA95D1F78E2D8F70282F30E0E5E000
:1058F000220F331FEA95E1F72A51364FD6CF0F9387
:105900001F93CF93DF93EC018B018D81882309F0E6
:1059100041C0FB0187898031B1F482E08D831F8A09
:10592000188E198E1A8E808D918DA0E0B0E045E022
:10593000880F991FAA1FBB1F4A95D1F78B8B9C8B91
:10594000AD8BBE8B15C0803229F583E08D83FB01C2
:10595000428D538D648D758D4F8B588F698F7A8FE3
:105960009E012D5E3F4FC8010E94DF33882391F0D6
:105970001C8F0B8F81E08C831E821F8218861986F4
:105980001A861B861C861D861E861F86188A198A03
:105990001A8A01C080E0DF91CF911F910F91089585
:1059A0001F93CF93DF93EC01142FE62FF0E075E007
:1059B000EE0FFF1F7A95E1F7EA51F64F838581716B
:1059C00021F0842F827409F054C06A8B80912806DC
:1059D00090912906A0912A06B0912B068E879F8769
:1059E000A88BB98B84899589A0E0B0E0BC015527CC
:1059F0004427828D938DA0E0B0E0482B592B6A2B71
:105A00007B2B4F8B588F698F7A8F838590E08871BD
:105A10009070009751F4848D958DA68DB78D8B8BEA
:105A20009C8BAD8BBE8B81E00CC0409711F59E0125
:105A30002D5E3F4F8B8D9C8D0E94DF338823C9F0F4
:105A400084E08D83812F8F708C831E821F82188645
:105A500019861A861B861C861D8616FD02C081E0EB
:105A600009C0CE0140E050E060E070E00E94552A9D
:105A700001C080E0DF91CF911F910895CF93DF9314
:105A8000EC019C012A5F3F4F8B8D9C8D41E050E0E3
:105A900060E070E00E944E348823A1F08F89988DD9
:105AA000A98DBA8D0097A105B10559F48E819F810A
:105AB000A885B9858F8B988FA98FBA8F8C818068C4
:105AC0008C8381E0DF91CF9108952F923F924F9286
:105AD0005F927F928F929F92AF92BF92CF92DF920E
