:100000000C9474000C94A0000C94A0000C94A0001C
:100010000C94A0000C94A0000C94A0000C94A000E0
:100020000C94A0000C94A0000C94A0000C94A000D0
:100030000C94A0000C94A0000C94A0000C94A000C0
:100040000C94A0000C94A0000C94A0000C94A000B0
:100050000C94A0000C94A0000C94A0000C94120628
:100060000C94A0000C941E010C944A020C94A00065
:100070000C94A0000C94A0000C94A0000C94A00080
:100080000C94A0000C94A0000C94A0000C94A00070
:100090000C9457010C9489020C94A0000C94A000BD
:1000A0000C94A0000C94A0000C94A0000C94A00050
:1000B0000C94A0000C94A0000C94A0000C94A00040
:1000C0000C94A0000C94A0000C94A0000C9490013F
:1000D0000C94C8020C94A0000C94C9010C94070362
:1000E0000C94A000A200710411241FBECFEFD1E236
:1000F000DEBFCDBF00E00CBF12E0A0E0B2E0ECE359
:10010000F0E100E00BBF02C007900D92AE34B107E2
:10011000D9F714E0AEE4B2E001C01D92AB3FB107E5
:10012000E1F710E0C8EED0E004C02297FE010E9483
:100130001808C43ED107C9F70E948F050C94F10737
:100140000C94000080E091E00E94BC068093500275
:100150009093510208950F931F9302E714E0C80192
:1001600060E072E00E94FC056091500270915102C3
:10017000C8010E94FF0510924F0210924E02E091BA
:100180005002F091510210821F910F91089582E761
:1001900094E00E94CC03892B49F182E794E00E940D
:1001A000FD038A3011F08D3019F40E94AB000895E0
:1001B00020914E0230914F022F3F3105B8F4E0916B
:1001C0005002F0915102E20FF31F808380914E02A2
:1001D00090914F02019690934F0280934E02E091CE
:1001E0005002F0915102E80FF91F108208950F9309
:1001F0001F9302E714E0C80140E855E260E070E0B8
:100200000E944603C80165E072E00E94FF05C80134
:100210006DE072E00E94FF05C8016FE272E00E948B
:10022000FF0510924F0210924E02E0915002F091A1
:10023000510210821F910F91089508951F920F92FD
:100240000FB60F920BB60F9211242F933F934F933B
:100250008F939F93EF93FF934091C600209192025A
:10026000309193022F5F3F4F2F7330708091940233
:10027000909195022817390759F0E0919202F09178
:100280009302EE5AFD4F40833093930220939202E3
:10029000FF91EF919F918F914F913F912F910F90EF
:1002A0000BBE0F900FBE0F901F90189508951F92D0
:1002B0000F920FB60F920BB60F9211242F933F930C
:1002C0004F938F939F93EF93FF934091CE00209194
:1002D0001A0330911B032F5F3F4F2F7330708091B3
:1002E0001C0390911D032817390759F0E0911A0358
:1002F000F0911B03E652FD4F408330931B03209384
:100300001A03FF91EF919F918F914F913F912F9100
:100310000F900BBE0F900FBE0F901F901895089571
:100320001F920F920FB60F920BB60F9211242F93BC
:100330003F934F938F939F93EF93FF934091D600FA
:100340002091A2033091A3032F5F3F4F2F73307092
:100350008091A4039091A5032817390759F0E091E3
:10036000A203F091A303EE59FC4F40833093A30303
:100370002093A203FF91EF919F918F914F913F9115
:100380002F910F900BBE0F900FBE0F901F901895DE
:1003900008951F920F920FB60F920BB60F92112471
:1003A0002F933F934F938F939F93EF93FF9340919E
:1003B000360120912A0430912B042F5F3F4F2F7379
:1003C000307080912C0490912D042817390759F032
:1003D000E0912A04F0912B04E651FC4F40833093C6
:1003E0002B0420932A04FF91EF919F918F914F91BD
:1003F0003F912F910F900BBE0F900FBE0F901F904B
:100400001895E0917E04F0917F04E05CFF4F8191AC
:10041000919120813181821B930B8F739070892B76
:1004200011F00E941D01E0919D04F0919E04E05C9A
:10043000FF4F8191919120813181821B930B8F73AA
:100440009070892B11F00E945601E091BC04F0914C
:10045000BD04E05CFF4F8191919120813181821B2D
:10046000930B8F739070892B11F00E948F01E09194
:10047000DB04F091DC04E05CFF4F819191912081DD
:100480003181821B930B8F739070892B11F00E9426
:10049000C80108951F920F920FB60F920BB60F92DC
:1004A00011242F933F938F939F93EF93FF9320916A
:1004B000D6023091D7028091D8029091D9022817A4
:1004C000390731F48091C1008F7D8093C10014C041
:1004D000E091D802F091D902EA56FD4F2081809137
:1004E000D8029091D90201968F7390709093D9029F
:1004F0008093D8022093C600FF91EF919F918F9136
:100500003F912F910F900BBE0F900FBE0F901F9039
:1005100018951F920F920FB60F920BB60F921124DF
:100520002F933F938F939F93EF93FF9320915E03BD
:1005300030915F0380916003909161032817390720
:1005400031F48091C9008F7D8093C90014C0E0917F
:100550006003F0916103E25EFC4F208180916003B3
:100560009091610301968F739070909361038093D3
:1005700060032093CE00FF91EF919F918F913F9167
:100580002F910F900BBE0F900FBE0F901F901895DC
:100590001F920F920FB60F920BB60F9211242F934A
:1005A0003F938F939F93EF93FF932091E6033091B6
:1005B000E7038091E8039091E9032817390731F4A4
:1005C0008091D1008F7D8093D10014C0E091E80329
:1005D000F091E903EA55FC4F20818091E803909166
:1005E000E90301968F7390709093E9038093E80379
:1005F0002093D600FF91EF919F918F913F912F9182
:100600000F900BBE0F900FBE0F901F9018951F926A
:100610000F920FB60F920BB60F9211242F933F93A8
:100620008F939F93EF93FF9320916E0430916F040B
:1006300080917004909171042817390731F48091EA
:1006400031018F7D8093310114C0E0917004F091ED
:100650007104E25DFB4F20818091700490917104E0
:1006600001968F739070909371048093700420931F
:100670003601FF91EF919F918F913F912F910F90B4
:100680000BBE0F900FBE0F901F901895AF92BF92A8
:10069000DF92EF92FF920F931F93CF93DF93EC01C2
:1006A0007A018B01DD24403081EE580780E0680735
:1006B00080E0780711F0DD24D39491E0A92EB12CCD
:1006C000EC89FD89DD2069F0C5010E8C02C0880F20
:1006D000991F0A94E2F7808360E079E08DE390E06F
:1006E00005C0108260E874E88EE190E0A8019701EF
:1006F0000E94F407215030404040504056954795A5
:100700003795279580E12030380720F0DD2011F063
:10071000DD24D6CFE889F9893083EA89FB892083F3
:10072000EE89FF89408121E030E0C9010A8C02C0D6
:10073000880F991F0A94E2F7482B4083EE89FF89BE
:100740004081C9010B8C02C0880F991F0A94E2F7FF
:10075000482B4083EE89FF894081C9010C8C02C07F
:10076000880F991F0A94E2F7482B4083EE89FF898E
:1007700080810D8C02C0220F331F0A94E2F720956E
:1007800028232083DF91CF911F910F91FF90EF904D
:10079000DF90BF90AF900895DC011C96ED91FC9125
:1007A0001D97E05CFF4F2191319180819181281B41
:1007B000390B2F733070C9010895DC011C96ED913F
:1007C000FC911D97E05CFF4F20813181E054F040A7
:1007D000DF01AE5BBF4F8D919C91119728173907B0
:1007E00019F42FEF3FEF07C08D919C91E80FF91F8F
:1007F0008081282F30E0C9010895DC011C96ED911D
:10080000FC911D97E05CFF4F20813181E054F04066
:10081000DF01AE5BBF4F8D919C911197281739076F
:1008200019F42FEF3FEF10C08D919C911197E80FB5
:10083000F91F20818D919C91119701968F73907073
:1008400011969C938E9330E0C9010895FC01868532
:100850009785DC01A05CBF4FFC01EE5BFF4F2D9143
:100860003C9111978081918128173907C1F708952C
:10087000CF93DF93EC01EE85FF85E05CFF4F208195
:100880003181E054F0402F5F3F4F2F733070DF0114
:10089000AE5BBF4F8D919C91119728173907D1F30B
:1008A000E05CFF4F80819181E054F040E80FF91F38
:1008B0006083EE85FF85E05CFF4F31832083EE8906
:1008C000FF89208181E090E00D8C02C0880F991F84
:1008D0000A94E2F7282B208381E090E0DF91CF910A
:1008E00008951F93109275041092740428EE33E05B
:1008F00040E050E0209376043093770440937804EE
:100900005093790461E472E070937304609372040D
:1009100082E592E090937F0480937E0486E992E0E2
:10092000909381048093800485EC90E090938304FD
:100930008093820484EC90E09093850480938404F7
:1009400080EC90E0909387048093860481EC90E0A3
:10095000909389048093880486EC90E090938B04B4
:1009600080938A0414E010938C04B3E0B0938D0458
:10097000A7E0A0938E04F5E0F0938F04E1E0E0930C
:100980009004109294041092930420939504309351
:100990009604409397045093980470939204609344
:1009A00091048AED92E090939E0480939D048EE1E1
:1009B00093E09093A00480939F048DEC90E090933B
:1009C000A2048093A1048CEC90E09093A404809303
:1009D000A30488EC90E09093A6048093A50489EC8E
:1009E00090E09093A8048093A7048EEC90E09093FD
:1009F000AA048093A9041093AB04B093AC04A09311
:100A0000AD04F093AE04E093AF041092B3041092DF
:100A1000B2042093B4043093B5044093B6045093C9
:100A2000B7047093B1046093B00482E693E09093AE
:100A3000BD048093BC0486EA93E09093BF04809346
:100A4000BE0485ED90E09093C1048093C00484EDD2
:100A500090E09093C3048093C20480ED90E0909363
:100A6000C5048093C40481ED90E09093C704809303
:100A7000C60486ED90E09093C9048093C804109357
:100A8000CA04B093CB04A093CC04F093CD04E093BC
:100A9000CE041092D2041092D1042093D304309348
:100AA000D4044093D5045093D6047093D00460933B
:100AB000CF048AEE93E09093DC048093DB048EE213
:100AC00094E09093DE048093DD0485E391E09093BD
:100AD000E0048093DF0484E391E09093E204809348
:100AE000E10480E391E09093E4048093E30481E3E4
:100AF00091E09093E6048093E50486E391E090937F
:100B0000E8048093E7041093E904B093EA04A09307
:100B1000EB04F093EC04E093ED041F910895CF9360
:100B2000DF930E945A060E94F700C1E0D2E00E94C3
:100B3000C7002097E1F30E940102F9CFCF92DF9224
:100B4000EF92FF920F931F93CF93DF937C016B0182
:100B50008A01C0E0D0E00FC0D6016D916D01D701D0
:100B6000ED91FC910190F081E02DC7011995C80F1E
:100B7000D91F015010400115110571F7CE01DF9109
:100B8000CF911F910F91FF90EF90DF90CF9008953C
:100B9000EF92FF920F931F938C01DC01ED91FC917A
:100BA0000190F081E02D6DE019957C01D801ED9167
:100BB000FC910190F081E02DC8016AE019959C013B
:100BC0002E0D3F1DC9011F910F91FF90EF900895C9
:100BD000CF93DF93DB010D900020E9F71197A61B5F
:100BE000B70BEC01E881F9810280F381E02DAD01C2
:100BF0001995DF91CF9108950E94E8050895EF922D
:100C0000FF920F931F937C010E94E8058C01C7019E
:100C10000E94C805080F191FC8011F910F91FF906E
:100C2000EF9008951F920F920FB60F9211242F93F9
:100C30003F938F939F93AF93BF938091F2049091D2
:100C4000F304A091F404B091F5043091F6040196F8
:100C5000A11DB11D232F2D5F2D3720F02D5701969B
:100C6000A11DB11D2093F6048093F2049093F30428
:100C7000A093F404B093F5048091EE049091EF04F6
:100C8000A091F004B091F1040196A11DB11D8093D3
:100C9000EE049093EF04A093F004B093F104BF919D
:100CA000AF919F918F913F912F910F900FBE0F9019
:100CB0001F901895789484B5826084BD84B5816056
:100CC00084BD85B5826085BD85B5816085BDEEE654
:100CD000F0E0808181608083E1E8F0E01082808133
:100CE00082608083808181608083E0E8F0E08081A1
:100CF00081608083E1EBF0E0808184608083E0EBC1
:100D0000F0E0808181608083E1E9F0E080818260B1
:100D10008083808181608083E0E9F0E08081816070
:100D20008083E1EAF0E0808182608083808181605D
:100D30008083E0EAF0E0808181608083E1E2F1E09D
:100D4000808182608083808181608083E0E2F1E045
:100D5000808181608083EAE7F0E080818460808325
:100D600080818260808380818160808380818068CF
:100D700080831092C10008950F931F93CF93DF9348
:100D8000BC018230910510F462E070E0E091F9045A
:100D9000F091FA04A0E0B0E040E050E024C080818F
:100DA000918186179707D0F08617970771F4828193
:100DB0009381109729F013969C938E9312972CC0D1
:100DC0009093FA048093F90427C04115510519F056
:100DD0008417950718F4EF018D01AC01DF018281C2
:100DE00093819C01F9013097D1F641155105F9F035
:100DF000CA01861B970B8430910580F48A819B8100
:100E00000115110521F0F8019383828304C09093AA
:100E1000FA048093F904FE01329645C0FE01E80F02
:100E2000F91F619371930297998388833CC08091E5
:100E3000F7049091F804892B41F480913902909144
:100E40003A029093F8048093F70440913B0250914A
:100E50003C024115510541F44DB75EB78091370210
:100E600090913802481B590B2091F7043091F804F7
:100E700024173507B0F4CA01821B930B8617970716
:100E800080F0AB014E5F5F4F8417950750F0420F23
:100E9000531F5093F8044093F704F9016193719341
:100EA00002C0E0E0F0E0CF01DF91CF911F910F9100
:100EB0000895CF93DF939C01009709F48FC0EC0154
:100EC00022971B821A826091F9047091FA046115CD
:100ED000710581F488819981820F931F2091F70415
:100EE0003091F8042817390739F5D093F804C093E6
:100EF000F70474C0DB0140E050E0AC17BD0708F117
:100F0000BB83AA83FE0121913191E20FF31FAE173B
:100F1000BF0779F48D919C911197280F391F2E5F8F
:100F20003F4F3983288312968D919C9113979B8311
:100F30008A834115510571F4D093FA04C093F904E2
:100F40004DC012968D919C911397AD01009711F0B1
:100F5000DC01D3CFDA011396DC93CE931297FA011A
:100F600021913191E20FF31FCE17DF0769F48881D9
:100F70009981280F391F2E5F3F4FFA01318320835B
:100F80008A819B8193838283E0E0F0E0DB0112960B
:100F90008D919C911397009719F0BC01FD01F6CF3C
:100FA000AB014E5F5F4FDB018D919C91840F951FCC
:100FB0002091F7043091F8042817390779F4309715
:100FC00029F41092FA041092F90402C013821282DA
:100FD000425050405093F8044093F704DF91CF9172
:100FE0000895F8940C941C08A1E21A2EAA1BBB1BAE
:100FF000FD010DC0AA1FBB1FEE1FFF1FA217B307E5
:10100000E407F50720F0A21BB30BE40BF50B661FFA
:10101000771F881F991F1A9469F7609570958095BE
:1010200090959B01AC01BD01CF010895EE0FFF1F0C
:0C1030000590F491E02D1994F894FFCF86
:10103C00476F743A005048415345303100436C6956
:10104C00656E7420736964652069732077616974B7
:10105C00696E6720666F7220696E7075742E005011
:10106C00484153453032002000FB040000000000D2
:0E107C000038049E05CC03FD03DD03260400AE
:00000001FF
